{
  "_format": "hh-sol-artifact-1",
  "contractName": "Certify",
  "sourceName": "contracts/Certify.sol",
  "abi": [
    {
      "inputs": [],
      "stateMutability": "nonpayable",
      "type": "constructor"
    },
    {
      "anonymous": false,
      "inputs": [
        {
          "indexed": true,
          "internalType": "address",
          "name": "owner",
          "type": "address"
        },
        {
          "indexed": true,
          "internalType": "address",
          "name": "approved",
          "type": "address"
        },
        {
          "indexed": true,
          "internalType": "uint256",
          "name": "tokenId",
          "type": "uint256"
        }
      ],
      "name": "Approval",
      "type": "event"
    },
    {
      "anonymous": false,
      "inputs": [
        {
          "indexed": true,
          "internalType": "address",
          "name": "owner",
          "type": "address"
        },
        {
          "indexed": true,
          "internalType": "address",
          "name": "operator",
          "type": "address"
        },
        {
          "indexed": false,
          "internalType": "bool",
          "name": "approved",
          "type": "bool"
        }
      ],
      "name": "ApprovalForAll",
      "type": "event"
    },
    {
      "anonymous": false,
      "inputs": [
        {
          "indexed": true,
          "internalType": "address",
          "name": "from",
          "type": "address"
        },
        {
          "indexed": true,
          "internalType": "address",
          "name": "to",
          "type": "address"
        },
        {
          "indexed": true,
          "internalType": "uint256",
          "name": "tokenId",
          "type": "uint256"
        }
      ],
      "name": "Transfer",
      "type": "event"
    },
    {
      "inputs": [
        {
          "internalType": "string",
          "name": "_studentId",
          "type": "string"
        },
        {
          "internalType": "string",
          "name": "_certificateId",
          "type": "string"
        },
        {
          "internalType": "string",
          "name": "_imageHash",
          "type": "string"
        },
        {
          "internalType": "string",
          "name": "_generatedDate",
          "type": "string"
        }
      ],
      "name": "addStudentCertificate",
      "outputs": [],
      "stateMutability": "nonpayable",
      "type": "function"
    },
    {
      "inputs": [],
      "name": "admin",
      "outputs": [
        {
          "internalType": "address",
          "name": "",
          "type": "address"
        }
      ],
      "stateMutability": "view",
      "type": "function"
    },
    {
      "inputs": [
        {
          "internalType": "address",
          "name": "to",
          "type": "address"
        },
        {
          "internalType": "uint256",
          "name": "tokenId",
          "type": "uint256"
        }
      ],
      "name": "approve",
      "outputs": [],
      "stateMutability": "nonpayable",
      "type": "function"
    },
    {
      "inputs": [
        {
          "internalType": "address",
          "name": "owner",
          "type": "address"
        }
      ],
      "name": "balanceOf",
      "outputs": [
        {
          "internalType": "uint256",
          "name": "",
          "type": "uint256"
        }
      ],
      "stateMutability": "view",
      "type": "function"
    },
    {
      "inputs": [
        {
          "internalType": "address",
          "name": "newAdmin",
          "type": "address"
        }
      ],
      "name": "changeAdmin",
      "outputs": [],
      "stateMutability": "nonpayable",
      "type": "function"
    },
    {
      "inputs": [
        {
          "internalType": "string",
          "name": "_studentId",
          "type": "string"
        },
        {
          "internalType": "address",
          "name": "_stuWallet",
          "type": "address"
        }
      ],
      "name": "changeStudentWalletAddress",
      "outputs": [],
      "stateMutability": "nonpayable",
      "type": "function"
    },
    {
      "inputs": [],
      "name": "claimNFT",
      "outputs": [],
      "stateMutability": "nonpayable",
      "type": "function"
    },
    {
      "inputs": [
        {
          "internalType": "uint256",
          "name": "number",
          "type": "uint256"
        }
      ],
      "name": "convertToString",
      "outputs": [
        {
          "internalType": "string",
          "name": "",
          "type": "string"
        }
      ],
      "stateMutability": "pure",
      "type": "function"
    },
    {
      "inputs": [
        {
          "internalType": "string",
          "name": "_studentId",
          "type": "string"
        },
        {
          "internalType": "string",
          "name": "_stuName",
          "type": "string"
        },
        {
          "internalType": "address",
          "name": "_stuWallet",
          "type": "address"
        },
        {
          "internalType": "uint256",
          "name": "_enrolledYear",
          "type": "uint256"
        },
        {
          "internalType": "string",
          "name": "_enrolledProgram",
          "type": "string"
        }
      ],
      "name": "enrollStudent",
      "outputs": [],
      "stateMutability": "nonpayable",
      "type": "function"
    },
    {
      "inputs": [
        {
          "internalType": "uint256",
          "name": "tokenId",
          "type": "uint256"
        }
      ],
      "name": "getApproved",
      "outputs": [
        {
          "internalType": "address",
          "name": "",
          "type": "address"
        }
      ],
      "stateMutability": "view",
      "type": "function"
    },
    {
      "inputs": [
        {
          "internalType": "address",
          "name": "owner",
          "type": "address"
        },
        {
          "internalType": "address",
          "name": "operator",
          "type": "address"
        }
      ],
      "name": "isApprovedForAll",
      "outputs": [
        {
          "internalType": "bool",
          "name": "",
          "type": "bool"
        }
      ],
      "stateMutability": "view",
      "type": "function"
    },
    {
      "inputs": [],
      "name": "name",
      "outputs": [
        {
          "internalType": "string",
          "name": "",
          "type": "string"
        }
      ],
      "stateMutability": "view",
      "type": "function"
    },
    {
      "inputs": [
        {
          "internalType": "uint256",
          "name": "tokenId",
          "type": "uint256"
        }
      ],
      "name": "ownerOf",
      "outputs": [
        {
          "internalType": "address",
          "name": "",
          "type": "address"
        }
      ],
      "stateMutability": "view",
      "type": "function"
    },
    {
      "inputs": [
        {
          "internalType": "address",
          "name": "from",
          "type": "address"
        },
        {
          "internalType": "address",
          "name": "to",
          "type": "address"
        },
        {
          "internalType": "uint256",
          "name": "tokenId",
          "type": "uint256"
        }
      ],
      "name": "safeTransferFrom",
      "outputs": [],
      "stateMutability": "nonpayable",
      "type": "function"
    },
    {
      "inputs": [
        {
          "internalType": "address",
          "name": "from",
          "type": "address"
        },
        {
          "internalType": "address",
          "name": "to",
          "type": "address"
        },
        {
          "internalType": "uint256",
          "name": "tokenId",
          "type": "uint256"
        },
        {
          "internalType": "bytes",
          "name": "data",
          "type": "bytes"
        }
      ],
      "name": "safeTransferFrom",
      "outputs": [],
      "stateMutability": "nonpayable",
      "type": "function"
    },
    {
      "inputs": [
        {
          "internalType": "address",
          "name": "operator",
          "type": "address"
        },
        {
          "internalType": "bool",
          "name": "approved",
          "type": "bool"
        }
      ],
      "name": "setApprovalForAll",
      "outputs": [],
      "stateMutability": "nonpayable",
      "type": "function"
    },
    {
      "inputs": [
        {
          "internalType": "string",
          "name": "",
          "type": "string"
        }
      ],
      "name": "studentAcademics",
      "outputs": [
        {
          "internalType": "uint256",
          "name": "firstYearPercent",
          "type": "uint256"
        },
        {
          "internalType": "uint256",
          "name": "secondYearPercent",
          "type": "uint256"
        },
        {
          "internalType": "uint256",
          "name": "thirdYearPercent",
          "type": "uint256"
        },
        {
          "internalType": "uint256",
          "name": "finalYearPercent",
          "type": "uint256"
        }
      ],
      "stateMutability": "view",
      "type": "function"
    },
    {
      "inputs": [
        {
          "internalType": "string",
          "name": "",
          "type": "string"
        }
      ],
      "name": "studentCertificates",
      "outputs": [
        {
          "internalType": "string",
          "name": "certificateId",
          "type": "string"
        },
        {
          "internalType": "string",
          "name": "imageHash",
          "type": "string"
        },
        {
          "internalType": "address",
          "name": "ownerAddress",
          "type": "address"
        },
        {
          "internalType": "uint256",
          "name": "tokenId",
          "type": "uint256"
        },
        {
          "internalType": "string",
          "name": "generatedDate",
          "type": "string"
        }
      ],
      "stateMutability": "view",
      "type": "function"
    },
    {
      "inputs": [
        {
          "internalType": "address",
          "name": "",
          "type": "address"
        }
      ],
      "name": "studentWallets",
      "outputs": [
        {
          "internalType": "string",
          "name": "",
          "type": "string"
        }
      ],
      "stateMutability": "view",
      "type": "function"
    },
    {
      "inputs": [
        {
          "internalType": "string",
          "name": "",
          "type": "string"
        }
      ],
      "name": "students",
      "outputs": [
        {
          "internalType": "string",
          "name": "stuId",
          "type": "string"
        },
        {
          "internalType": "address",
          "name": "stuWallet",
          "type": "address"
        },
        {
          "internalType": "string",
          "name": "stuName",
          "type": "string"
        },
        {
          "internalType": "uint256",
          "name": "enrolledYear",
          "type": "uint256"
        },
        {
          "internalType": "uint256",
          "name": "enrolledIndex",
          "type": "uint256"
        },
        {
          "internalType": "string",
          "name": "enrolledProgram",
          "type": "string"
        },
        {
          "internalType": "bool",
          "name": "isGraduated",
          "type": "bool"
        },
        {
          "internalType": "bool",
          "name": "hasClaimedCertificate",
          "type": "bool"
        },
        {
          "internalType": "string",
          "name": "certificateId",
          "type": "string"
        }
      ],
      "stateMutability": "view",
      "type": "function"
    },
    {
      "inputs": [
        {
          "internalType": "bytes4",
          "name": "interfaceId",
          "type": "bytes4"
        }
      ],
      "name": "supportsInterface",
      "outputs": [
        {
          "internalType": "bool",
          "name": "",
          "type": "bool"
        }
      ],
      "stateMutability": "view",
      "type": "function"
    },
    {
      "inputs": [],
      "name": "symbol",
      "outputs": [
        {
          "internalType": "string",
          "name": "",
          "type": "string"
        }
      ],
      "stateMutability": "view",
      "type": "function"
    },
    {
      "inputs": [
        {
          "internalType": "uint256",
          "name": "",
          "type": "uint256"
        }
      ],
      "name": "tokenOwners",
      "outputs": [
        {
          "internalType": "address",
          "name": "",
          "type": "address"
        }
      ],
      "stateMutability": "view",
      "type": "function"
    },
    {
      "inputs": [
        {
          "internalType": "uint256",
          "name": "_tokenId",
          "type": "uint256"
        }
      ],
      "name": "tokenURI",
      "outputs": [
        {
          "internalType": "string",
          "name": "",
          "type": "string"
        }
      ],
      "stateMutability": "view",
      "type": "function"
    },
    {
      "inputs": [],
      "name": "totalStudentsEnrolled",
      "outputs": [
        {
          "internalType": "uint256",
          "name": "",
          "type": "uint256"
        }
      ],
      "stateMutability": "view",
      "type": "function"
    },
    {
      "inputs": [
        {
          "internalType": "address",
          "name": "from",
          "type": "address"
        },
        {
          "internalType": "address",
          "name": "to",
          "type": "address"
        },
        {
          "internalType": "uint256",
          "name": "tokenId",
          "type": "uint256"
        }
      ],
      "name": "transferFrom",
      "outputs": [],
      "stateMutability": "nonpayable",
      "type": "function"
    },
    {
      "inputs": [
        {
          "internalType": "string",
          "name": "_studentId",
          "type": "string"
        },
        {
          "components": [
            {
              "internalType": "uint256",
              "name": "firstYearPercent",
              "type": "uint256"
            },
            {
              "internalType": "uint256",
              "name": "secondYearPercent",
              "type": "uint256"
            },
            {
              "internalType": "uint256",
              "name": "thirdYearPercent",
              "type": "uint256"
            },
            {
              "internalType": "uint256",
              "name": "finalYearPercent",
              "type": "uint256"
            }
          ],
          "internalType": "struct Certify.Academics",
          "name": "_studentAcademics",
          "type": "tuple"
        }
      ],
      "name": "updateAcademics",
      "outputs": [],
      "stateMutability": "nonpayable",
      "type": "function"
    },
    {
      "inputs": [],
      "name": "usedDecimalPoints",
      "outputs": [
        {
          "internalType": "uint256",
          "name": "",
          "type": "uint256"
        }
      ],
      "stateMutability": "view",
      "type": "function"
    }
  ],
  "bytecode": "0x6080604052600060065560026007553480156200001b57600080fd5b50604051806040016040528060078152602001664365727469667960c81b8152506040518060400160405280600381526020016221a2a960e91b815250816000908162000069919062000138565b50600162000078828262000138565b5050600880546001600160a01b031916331790555062000204565b634e487b7160e01b600052604160045260246000fd5b600181811c90821680620000be57607f821691505b602082108103620000df57634e487b7160e01b600052602260045260246000fd5b50919050565b601f8211156200013357600081815260208120601f850160051c810160208610156200010e5750805b601f850160051c820191505b818110156200012f578281556001016200011a565b5050505b505050565b81516001600160401b0381111562000154576200015462000093565b6200016c81620001658454620000a9565b84620000e5565b602080601f831160018114620001a457600084156200018b5750858301515b600019600386901b1c1916600185901b1785556200012f565b600085815260208120601f198616915b82811015620001d557888601518255948401946001909101908401620001b4565b5085821015620001f45787850151600019600388901b60f8161c191681555b5050505050600190811b01905550565b61362480620002146000396000f3fe608060405234801561001057600080fd5b50600436106101c45760003560e01c806395d89b41116100f9578063c87b56dd11610097578063e985e9c511610071578063e985e9c514610423578063f851a44014610436578063f8a14f4614610449578063fcda73ec1461047257600080fd5b8063c87b56dd146103a7578063cc207885146103ba578063e59eed28146103c357600080fd5b8063b82e47b6116100d3578063b82e47b614610335578063b88d4fde14610359578063c191ca831461036c578063c7ef6bfb1461037f57600080fd5b806395d89b4114610307578063a22cb4651461030f578063aaaedf011461032257600080fd5b80633ae5443e116101665780636352211e116101405780636352211e146102b8578063672756ad146102cb57806370a08231146102d35780638f283970146102f457600080fd5b80633ae5443e1461027f57806342842e0e1461029257806348b3daef146102a557600080fd5b8063081812fc116101a2578063081812fc14610219578063095ea7b3146102445780630f5981b51461025957806323b872dd1461026c57600080fd5b806301ffc9a7146101c95780630375cea9146101f157806306fdde0314610211575b600080fd5b6101dc6101d736600461269a565b61047b565b60405190151581526020015b60405180910390f35b6102046101ff3660046126be565b6104cd565b6040516101e89190612727565b6102046104d8565b61022c6102273660046126be565b61056a565b6040516001600160a01b0390911681526020016101e8565b610257610252366004612756565b610591565b005b61025761026736600461282c565b6106ab565b61025761027a3660046128cd565b610821565b61025761028d366004612909565b610898565b6102576102a03660046128cd565b610a58565b6102576102b3366004612957565b610a73565b61022c6102c63660046126be565b610d53565b610257610db3565b6102e66102e1366004612a04565b61108a565b6040519081526020016101e8565b610257610302366004612a04565b611110565b6102046111b2565b61025761031d366004612a1f565b6111c1565b610204610330366004612a04565b6111d0565b610348610343366004612a5b565b61126a565b6040516101e8959493929190612a90565b610257610367366004612aeb565b611449565b61025761037a366004612b5b565b611489565b61039261038d366004612a5b565b6116df565b6040516101e899989796959493929190612bfe565b6102046103b53660046126be565b611968565b6102e660075481565b6104036103d1366004612a5b565b8051602081830181018051600c8252928201919093012091528054600182015460028301546003909301549192909184565b6040805194855260208501939093529183015260608201526080016101e8565b6101dc610431366004612c8a565b6119f0565b60085461022c906001600160a01b031681565b61022c6104573660046126be565b600d602052600090815260409020546001600160a01b031681565b6102e660065481565b60006001600160e01b031982166380ac58cd60e01b14806104ac57506001600160e01b03198216635b5e139f60e01b145b806104c757506301ffc9a760e01b6001600160e01b03198316145b92915050565b60606104c782611a1e565b6060600080546104e790612cb4565b80601f016020809104026020016040519081016040528092919081815260200182805461051390612cb4565b80156105605780601f1061053557610100808354040283529160200191610560565b820191906000526020600020905b81548152906001019060200180831161054357829003601f168201915b5050505050905090565b600061057582611b35565b506000908152600460205260409020546001600160a01b031690565b600061059c82610d53565b9050806001600160a01b0316836001600160a01b03160361060e5760405162461bcd60e51b815260206004820152602160248201527f4552433732313a20617070726f76616c20746f2063757272656e74206f776e656044820152603960f91b60648201526084015b60405180910390fd5b336001600160a01b038216148061062a575061062a81336119f0565b61069c5760405162461bcd60e51b815260206004820152603d60248201527f4552433732313a20617070726f76652063616c6c6572206973206e6f7420746f60448201527f6b656e206f776e6572206f7220617070726f76656420666f7220616c6c0000006064820152608401610605565b6106a68383611b97565b505050565b6008546001600160a01b031633146106d55760405162461bcd60e51b815260040161060590612cee565b6000600a836040516106e79190612d58565b908152604051908190036020019020805461070190612cb4565b9050116107485760405162461bcd60e51b815260206004820152601560248201527414dd1d59195b9d08191bd95cdb9bdd08195e1a5cdd605a1b6044820152606401610605565b600a826040516107589190612d58565b9081526040519081900360200190206006015460ff16156107da5760405162461bcd60e51b815260206004820152603660248201527f43616e6e6f74206d6f64696679206d61726b73206f6e6365206365727469666960448201527518d85d19481a185cc81899595b8819195c1b1bde595960521b6064820152608401610605565b80600c836040516107eb9190612d58565b90815260408051602092819003830190208351815591830151600183015582015160028201556060909101516003909101555050565b61082b3382611c05565b61088d5760405162461bcd60e51b815260206004820152602d60248201527f4552433732313a2063616c6c6572206973206e6f7420746f6b656e206f776e6560448201526c1c881bdc88185c1c1c9bdd9959609a1b6064820152608401610605565b6106a6838383611c64565b6008546001600160a01b031633146108c25760405162461bcd60e51b815260040161060590612cee565b6001600160a01b038116600090815260096020526040902080546108e590612cb4565b15905061092b5760405162461bcd60e51b815260206004820152601460248201527315d85b1b195d08185b1c9958591e48195e1a5cdd60621b6044820152606401610605565b6000600a8360405161093d9190612d58565b908152604051908190036020019020805461095790612cb4565b9050116109a65760405162461bcd60e51b815260206004820152601860248201527f53747564656e7420494420646f65736e6f7420657869737400000000000000006044820152606401610605565b6040518060200160405280600081525060096000600a856040516109ca9190612d58565b9081526040805160209281900383019020600101546001600160a01b03168352908201929092520160002090610a009082612dc2565b5080600a83604051610a129190612d58565b908152604080516020928190038301902060010180546001600160a01b0319166001600160a01b0394851617905591831660009081526009909152206106a68382612dc2565b6106a683838360405180602001604052806000815250611449565b6008546001600160a01b03163314610a9d5760405162461bcd60e51b815260040161060590612cee565b600a84604051610aad9190612d58565b90815260200160405180910390206007018054610ac990612cb4565b159050610b185760405162461bcd60e51b815260206004820152601d60248201527f436572746966696361746520616c72656164792067656e6572617465640000006044820152606401610605565b60006001600160a01b0316600b84604051610b339190612d58565b908152604051908190036020019020600201546001600160a01b031614610baa5760405162461bcd60e51b815260206004820152602560248201527f43657274696669636174652068617320616c7265616479206265656e206173736044820152641a59db995960da1b6064820152608401610605565b600a84604051610bba9190612d58565b908152604051908190036020018120600101546001600160a01b031690600b90610be5908690612d58565b908152602001604051809103902060020160006101000a8154816001600160a01b0302191690836001600160a01b0316021790555081600b84604051610c2b9190612d58565b90815260200160405180910390206001019081610c489190612dc2565b5080600b84604051610c5a9190612d58565b90815260200160405180910390206004019081610c779190612dc2565b5082600b84604051610c899190612d58565b90815260405190819003602001902090610ca39082612dc2565b506001600a85604051610cb69190612d58565b908152604051908190036020018120600601805492151560ff19909316929092179091558390600a90610cea908790612d58565b90815260200160405180910390206007019081610d079190612dc2565b50600a84604051610d189190612d58565b908152602001604051809103902060040154600b84604051610d3a9190612d58565b9081526040519081900360200190206003015550505050565b6000818152600260205260408120546001600160a01b0316806104c75760405162461bcd60e51b8152602060048201526018602482015277115490cdcc8c4e881a5b9d985b1a59081d1bdad95b88125160421b6044820152606401610605565b3360009081526009602052604081208054610dcd90612cb4565b905011610e1c5760405162461bcd60e51b815260206004820152601c60248201527f4f4e6c792073747564656e7420616c6c6f77656420746f206d696e74000000006044820152606401610605565b3360009081526009602052604081208054610e3690612cb4565b80601f0160208091040260200160405190810160405280929190818152602001828054610e6290612cb4565b8015610eaf5780601f10610e8457610100808354040283529160200191610eaf565b820191906000526020600020905b815481529060010190602001808311610e9257829003601f168201915b505050505090506000600a82604051610ec89190612d58565b90815260200160405180910390206007018054610ee490612cb4565b80601f0160208091040260200160405190810160405280929190818152602001828054610f1090612cb4565b8015610f5d5780601f10610f3257610100808354040283529160200191610f5d565b820191906000526020600020905b815481529060010190602001808311610f4057829003601f168201915b505050505090506000600b82604051610f769190612d58565b908152602001604051809103902060030154905060008111610fd25760405162461bcd60e51b81526020600482015260156024820152744e6f7420656c696769626c6520746f20636c61696d60581b6044820152606401610605565b600a83604051610fe29190612d58565b9081526040519081900360200190206006015460ff61010090910416156110415760405162461bcd60e51b815260206004820152601360248201527213919508105b1c9958591e4810db185a5b5959606a1b6044820152606401610605565b61104b3382611dc8565b6001600a8460405161105d9190612d58565b90815260405190819003602001902060060180549115156101000261ff0019909216919091179055505050565b60006001600160a01b0382166110f45760405162461bcd60e51b815260206004820152602960248201527f4552433732313a2061646472657373207a65726f206973206e6f7420612076616044820152683634b21037bbb732b960b91b6064820152608401610605565b506001600160a01b031660009081526003602052604090205490565b6008546001600160a01b0316331461113a5760405162461bcd60e51b815260040161060590612cee565b6001600160a01b0381166111905760405162461bcd60e51b815260206004820152601860248201527f50726f7669646520612076616c696420616464647265737300000000000000006044820152606401610605565b600880546001600160a01b0319166001600160a01b0392909216919091179055565b6060600180546104e790612cb4565b6111cc338383611de2565b5050565b600960205260009081526040902080546111e990612cb4565b80601f016020809104026020016040519081016040528092919081815260200182805461121590612cb4565b80156112625780601f1061123757610100808354040283529160200191611262565b820191906000526020600020905b81548152906001019060200180831161124557829003601f168201915b505050505081565b8051602081830181018051600b8252928201919093012091528054819061129090612cb4565b80601f01602080910402602001604051908101604052809291908181526020018280546112bc90612cb4565b80156113095780601f106112de57610100808354040283529160200191611309565b820191906000526020600020905b8154815290600101906020018083116112ec57829003601f168201915b50505050509080600101805461131e90612cb4565b80601f016020809104026020016040519081016040528092919081815260200182805461134a90612cb4565b80156113975780601f1061136c57610100808354040283529160200191611397565b820191906000526020600020905b81548152906001019060200180831161137a57829003601f168201915b505050506002830154600384015460048501805494956001600160a01b0390931694919350906113c690612cb4565b80601f01602080910402602001604051908101604052809291908181526020018280546113f290612cb4565b801561143f5780601f106114145761010080835404028352916020019161143f565b820191906000526020600020905b81548152906001019060200180831161142257829003601f168201915b5050505050905085565b60405162461bcd60e51b81526020600482015260156024820152744e4654206e6f6e207472616e736665727261626c6560581b6044820152606401610605565b6008546001600160a01b031633146114b35760405162461bcd60e51b815260040161060590612cee565b600a856040516114c39190612d58565b90815260405190819003602001902080546114dd90612cb4565b15905061152c5760405162461bcd60e51b815260206004820152601b60248201527f53747564656e7420494420616c726561647920656e726f6c6c656400000000006044820152606401610605565b6001600160a01b0383166000908152600960205260409020805461154f90612cb4565b1590506115955760405162461bcd60e51b815260206004820152601460248201527315d85b1b195d08185b1c9958591e48195e1a5cdd60621b6044820152606401610605565b83600a866040516115a69190612d58565b908152602001604051809103902060020190816115c39190612dc2565b5081600a866040516115d59190612d58565b90815260200160405180910390206003018190555084600a866040516115fb9190612d58565b908152604051908190036020019020906116159082612dc2565b5080600a866040516116279190612d58565b908152602001604051809103902060050190816116449190612dc2565b5082600a866040516116569190612d58565b908152604080516020928190038301902060010180546001600160a01b0319166001600160a01b03948516179055918516600090815260099091522061169c8682612dc2565b50600680549060006116ad83612e98565b9190505550600654600a866040516116c59190612d58565b908152604051908190036020019020600401555050505050565b8051602081830181018051600a8252928201919093012091528054819061170590612cb4565b80601f016020809104026020016040519081016040528092919081815260200182805461173190612cb4565b801561177e5780601f106117535761010080835404028352916020019161177e565b820191906000526020600020905b81548152906001019060200180831161176157829003601f168201915b505050600184015460028501805494956001600160a01b039092169491935091506117a890612cb4565b80601f01602080910402602001604051908101604052809291908181526020018280546117d490612cb4565b80156118215780601f106117f657610100808354040283529160200191611821565b820191906000526020600020905b81548152906001019060200180831161180457829003601f168201915b50505050509080600301549080600401549080600501805461184290612cb4565b80601f016020809104026020016040519081016040528092919081815260200182805461186e90612cb4565b80156118bb5780601f10611890576101008083540402835291602001916118bb565b820191906000526020600020905b81548152906001019060200180831161189e57829003601f168201915b505050506006830154600784018054939460ff80841695610100909404169350916118e590612cb4565b80601f016020809104026020016040519081016040528092919081815260200182805461191190612cb4565b801561195e5780601f106119335761010080835404028352916020019161195e565b820191906000526020600020905b81548152906001019060200180831161194157829003601f168201915b5050505050905089565b6000818152600260205260409020546060906001600160a01b03166119e75760405162461bcd60e51b815260206004820152602f60248201527f4552433732314d657461646174613a2055524920717565727920666f72206e6f60448201526e3732bc34b9ba32b73a103a37b5b2b760891b6064820152608401610605565b6104c782611eb0565b6001600160a01b03918216600090815260056020908152604080832093909416825291909152205460ff1690565b606081600003611a455750506040805180820190915260018152600360fc1b602082015290565b8160005b8115611a6f5780611a5981612e98565b9150611a689050600a83612ec7565b9150611a49565b60008167ffffffffffffffff811115611a8a57611a8a612780565b6040519080825280601f01601f191660200182016040528015611ab4576020820181803683370190505b5090506000611ac4600184612edb565b90505b8515611b2c57611ad8600a87612eee565b611ae3906030612f02565b60f81b8282611af181612f15565b935081518110611b0357611b03612f2c565b60200101906001600160f81b031916908160001a905350611b25600a87612ec7565b9550611ac7565b50949350505050565b6000818152600260205260409020546001600160a01b0316611b945760405162461bcd60e51b8152602060048201526018602482015277115490cdcc8c4e881a5b9d985b1a59081d1bdad95b88125160421b6044820152606401610605565b50565b600081815260046020526040902080546001600160a01b0319166001600160a01b0384169081179091558190611bcc82610d53565b6001600160a01b03167f8c5be1e5ebec7d5bd14f71427d1e84f3dd0314c0f7b2291e5b200ac8c7c3b92560405160405180910390a45050565b600080611c1183610d53565b9050806001600160a01b0316846001600160a01b03161480611c385750611c3881856119f0565b80611c5c5750836001600160a01b0316611c518461056a565b6001600160a01b0316145b949350505050565b826001600160a01b0316611c7782610d53565b6001600160a01b031614611c9d5760405162461bcd60e51b815260040161060590612f42565b6001600160a01b038216611cff5760405162461bcd60e51b8152602060048201526024808201527f4552433732313a207472616e7366657220746f20746865207a65726f206164646044820152637265737360e01b6064820152608401610605565b826001600160a01b0316611d1282610d53565b6001600160a01b031614611d385760405162461bcd60e51b815260040161060590612f42565b600081815260046020908152604080832080546001600160a01b03199081169091556001600160a01b0387811680865260038552838620805460001901905590871680865283862080546001019055868652600290945282852080549092168417909155905184937fddf252ad1be2c89b69c2b068fc378daa952ba7f163c4a11628f55a4df523b3ef91a4505050565b6111cc8282604051806020016040528060008152506120a3565b816001600160a01b0316836001600160a01b031603611e435760405162461bcd60e51b815260206004820152601960248201527f4552433732313a20617070726f766520746f2063616c6c6572000000000000006044820152606401610605565b6001600160a01b03838116600081815260056020908152604080832094871680845294825291829020805460ff191686151590811790915591519182527f17307eab39ab6107e8899845ad3d59bd9653f200f220920489ca2b5937696c31910160405180910390a3505050565b6000818152600d60209081526040808320546001600160a01b031683526009909152812080546060929190611ee490612cb4565b80601f0160208091040260200160405190810160405280929190818152602001828054611f1090612cb4565b8015611f5d5780601f10611f3257610100808354040283529160200191611f5d565b820191906000526020600020905b815481529060010190602001808311611f4057829003601f168201915b505050505090506000600a82604051611f769190612d58565b90815260200160405180910390206002018054611f9290612cb4565b80601f0160208091040260200160405190810160405280929190818152602001828054611fbe90612cb4565b801561200b5780601f10611fe05761010080835404028352916020019161200b565b820191906000526020600020905b815481529060010190602001808311611fee57829003601f168201915b505050505090506000600a836040516120249190612d58565b90815260200160405180910390206003015490506000612043826104cd565b90506120798382612053896121d7565b60405160200161206593929190612fd9565b604051602081830303815290604052612392565b604051602001612089919061307a565b604051602081830303815290604052945050505050919050565b6120ad83836124f9565b6120ba60008484846120d6565b6106a65760405162461bcd60e51b815260040161060590612f87565b60006001600160a01b0384163b156121cc57604051630a85bd0160e11b81526001600160a01b0385169063150b7a029061211a9033908990889088906004016130bf565b6020604051808303816000875af1925050508015612155575060408051601f3d908101601f19168201909252612152918101906130fc565b60015b6121b2573d808015612183576040519150601f19603f3d011682016040523d82523d6000602084013e612188565b606091505b5080516000036121aa5760405162461bcd60e51b815260040161060590612f87565b805181602001fd5b6001600160e01b031916630a85bd0160e11b149050611c5c565b506001949350505050565b6000818152600d60209081526040808320546001600160a01b03168352600990915281208054606092919061220b90612cb4565b80601f016020809104026020016040519081016040528092919081815260200182805461223790612cb4565b80156122845780601f1061225957610100808354040283529160200191612284565b820191906000526020600020905b81548152906001019060200180831161226757829003601f168201915b505050505090506000600a8260405161229d9190612d58565b908152602001604051809103902060020180546122b990612cb4565b80601f01602080910402602001604051908101604052809291908181526020018280546122e590612cb4565b80156123325780601f1061230757610100808354040283529160200191612332565b820191906000526020600020905b81548152906001019060200180831161231557829003601f168201915b505050505090506000600a8360405161234b9190612d58565b9081526020016040518091039020600301549050600061236a826104cd565b90506123828382604051602001612065929190613119565b6040516020016120899190613552565b606081516000036123b157505060408051602081019091526000815290565b60006040518060600160405280604081526020016135af60409139905060006003845160026123e09190612f02565b6123ea9190612ec7565b6123f5906004613597565b90506000612404826020612f02565b67ffffffffffffffff81111561241c5761241c612780565b6040519080825280601f01601f191660200182016040528015612446576020820181803683370190505b509050818152600183018586518101602084015b818310156124b45760039283018051603f601282901c811687015160f890811b8552600c83901c8216880151811b6001860152600683901c8216880151811b60028601529116860151901b9382019390935260040161245a565b6003895106600181146124ce57600281146124df576124eb565b613d3d60f01b6001198301526124eb565b603d60f81b6000198301525b509398975050505050505050565b6001600160a01b03821661254f5760405162461bcd60e51b815260206004820181905260248201527f4552433732313a206d696e7420746f20746865207a65726f20616464726573736044820152606401610605565b6000818152600260205260409020546001600160a01b0316156125b45760405162461bcd60e51b815260206004820152601c60248201527f4552433732313a20746f6b656e20616c7265616479206d696e746564000000006044820152606401610605565b6000818152600260205260409020546001600160a01b0316156126195760405162461bcd60e51b815260206004820152601c60248201527f4552433732313a20746f6b656e20616c7265616479206d696e746564000000006044820152606401610605565b6001600160a01b038216600081815260036020908152604080832080546001019055848352600290915280822080546001600160a01b0319168417905551839291907fddf252ad1be2c89b69c2b068fc378daa952ba7f163c4a11628f55a4df523b3ef908290a45050565b6001600160e01b031981168114611b9457600080fd5b6000602082840312156126ac57600080fd5b81356126b781612684565b9392505050565b6000602082840312156126d057600080fd5b5035919050565b60005b838110156126f25781810151838201526020016126da565b50506000910152565b600081518084526127138160208601602086016126d7565b601f01601f19169290920160200192915050565b6020815260006126b760208301846126fb565b80356001600160a01b038116811461275157600080fd5b919050565b6000806040838503121561276957600080fd5b6127728361273a565b946020939093013593505050565b634e487b7160e01b600052604160045260246000fd5b600067ffffffffffffffff808411156127b1576127b1612780565b604051601f8501601f19908116603f011681019082821181831017156127d9576127d9612780565b816040528093508581528686860111156127f257600080fd5b858560208301376000602087830101525050509392505050565b600082601f83011261281d57600080fd5b6126b783833560208501612796565b60008082840360a081121561284057600080fd5b833567ffffffffffffffff8082111561285857600080fd5b6128648783880161280c565b94506080601f198401121561287857600080fd5b6040519250608083019150828210818311171561289757612897612780565b50806040525060208401358152604084013560208201526060840135604082015260808401356060820152809150509250929050565b6000806000606084860312156128e257600080fd5b6128eb8461273a565b92506128f96020850161273a565b9150604084013590509250925092565b6000806040838503121561291c57600080fd5b823567ffffffffffffffff81111561293357600080fd5b61293f8582860161280c565b92505061294e6020840161273a565b90509250929050565b6000806000806080858703121561296d57600080fd5b843567ffffffffffffffff8082111561298557600080fd5b6129918883890161280c565b955060208701359150808211156129a757600080fd5b6129b38883890161280c565b945060408701359150808211156129c957600080fd5b6129d58883890161280c565b935060608701359150808211156129eb57600080fd5b506129f88782880161280c565b91505092959194509250565b600060208284031215612a1657600080fd5b6126b78261273a565b60008060408385031215612a3257600080fd5b612a3b8361273a565b915060208301358015158114612a5057600080fd5b809150509250929050565b600060208284031215612a6d57600080fd5b813567ffffffffffffffff811115612a8457600080fd5b611c5c8482850161280c565b60a081526000612aa360a08301886126fb565b8281036020840152612ab581886126fb565b6001600160a01b03871660408501526060840186905283810360808501529050612adf81856126fb565b98975050505050505050565b60008060008060808587031215612b0157600080fd5b612b0a8561273a565b9350612b186020860161273a565b925060408501359150606085013567ffffffffffffffff811115612b3b57600080fd5b8501601f81018713612b4c57600080fd5b6129f887823560208401612796565b600080600080600060a08688031215612b7357600080fd5b853567ffffffffffffffff80821115612b8b57600080fd5b612b9789838a0161280c565b96506020880135915080821115612bad57600080fd5b612bb989838a0161280c565b9550612bc76040890161273a565b9450606088013593506080880135915080821115612be457600080fd5b50612bf18882890161280c565b9150509295509295909350565b6000610120808352612c128184018d6126fb565b6001600160a01b038c16602085015283810360408501529050612c35818b6126fb565b905088606084015287608084015282810360a0840152612c5581886126fb565b905085151560c084015284151560e0840152828103610100840152612c7a81856126fb565b9c9b505050505050505050505050565b60008060408385031215612c9d57600080fd5b612ca68361273a565b915061294e6020840161273a565b600181811c90821680612cc857607f821691505b602082108103612ce857634e487b7160e01b600052602260045260246000fd5b50919050565b6020808252602e908201527f4f6e6c79207468652061646d696e20697320616c6c6f77656420746f2063616c60408201526d36103a343290333ab731ba34b7b760911b606082015260800190565b60008151612d4e8185602086016126d7565b9290920192915050565b60008251612d6a8184602087016126d7565b9190910192915050565b601f8211156106a657600081815260208120601f850160051c81016020861015612d9b5750805b601f850160051c820191505b81811015612dba57828155600101612da7565b505050505050565b815167ffffffffffffffff811115612ddc57612ddc612780565b612df081612dea8454612cb4565b84612d74565b602080601f831160018114612e255760008415612e0d5750858301515b600019600386901b1c1916600185901b178555612dba565b600085815260208120601f198616915b82811015612e5457888601518255948401946001909101908401612e35565b5085821015612e725787850151600019600388901b60f8161c191681555b5050505050600190811b01905550565b634e487b7160e01b600052601160045260246000fd5b600060018201612eaa57612eaa612e82565b5060010190565b634e487b7160e01b600052601260045260246000fd5b600082612ed657612ed6612eb1565b500490565b818103818111156104c7576104c7612e82565b600082612efd57612efd612eb1565b500690565b808201808211156104c7576104c7612e82565b600081612f2457612f24612e82565b506000190190565b634e487b7160e01b600052603260045260246000fd5b60208082526025908201527f4552433732313a207472616e736665722066726f6d20696e636f72726563742060408201526437bbb732b960d91b606082015260800190565b60208082526032908201527f4552433732313a207472616e7366657220746f206e6f6e20455243373231526560408201527131b2b4bb32b91034b6b83632b6b2b73a32b960711b606082015260800190565b6f3d9139ba3ab232b73a2730b6b2911d1160811b815283516000906130058160108501602089016126d7565b6c11161110113130ba31b4111d1160991b601091840191820152845161303281601d8401602089016126d7565b6a111634b6b0b3b2911d101160a91b601d9290910191820152835161305e8160288401602088016126d7565b61227d60f01b60289290910191820152602a0195945050505050565b7f646174613a6170706c69636174696f6e2f6a736f6e3b6261736536342c0000008152600082516130b281601d8501602087016126d7565b91909101601d0192915050565b6001600160a01b03858116825284166020820152604081018390526080606082018190526000906130f2908301846126fb565b9695505050505050565b60006020828403121561310e57600080fd5b81516126b781612684565b7f3c7376672077696474683d2233353922206865696768743d223539342220766981527f6577426f783d223020302033353920353934222066696c6c3d226e6f6e65222060208201527f786d6c6e733d22687474703a2f2f7777772e77332e6f72672f323030302f737660408201527f67223e3c7265637420783d22322e3939393934222077696474683d223335362260608201527f206865696768743d22353930222066696c6c3d2223463146314631222f3e3c7060808201527f61746820643d224d3120304c3335362032352e3831334c3120383756305a222060a08201527f66696c6c3d2223423238303639222f3e3c7061746820643d224d3335352e352060c08201527f345639324c302e352034483335352e355a222066696c6c3d222342464132393460e08201527f222f3e3c7061746820643d224d3335362e393835203539332e3233324c322e326101008201527f333533203536342e3138344c3335372e373738203530362e3233364c3335362e6101208201527f393835203539332e3233325a222066696c6c3d2223423238303639222f3e3c706101408201527f61746820643d224d322e3031383232203538372e3939364c322e3832303436206101608201527f3530304c3335372e303033203539312e3233334c322e3031383232203538372e6101808201527f3939365a222066696c6c3d2223424641323934222f3e3c6c696e652078313d226101a08201527f34302e39393939222079313d22333939222078323d22333331222079323d22336101c08201527f393922207374726f6b653d22626c61636b2220207374726f6b652d77696474686101e08201527f3d2232222f3e3c7465787420783d223136252220793d22333025222066696c6c6102008201527f3d22626c61636b222020666f6e742d7765696768743d223630302220666f6e746102208201527f2d73697a653d22333222203e496d70657269616c20436f6c6c6567653c2f74656102408201527f78743e3c7465787420783d223430252220793d22373325222066696c6c3d22626102608201527f6c61636b2220666f6e742d73697a653d22323222203e416c756d6e693c2f74656102808201527f78743e3c7465787420783d223530252220793d2236342e3525222066696c6c3d6102a08201527f22626c61636b2220746578742d616e63686f723d226d6964646c652220666f6e6102c08201526b3a16b9b4bd329e91191a911f60a11b6102e08201526000611c5c6135396135336134be6102ec860188612d3c565b7f3c2f746578743e3c7465787420783d223333252220793d2238322e352522206681527f696c6c3d22626c61636b2220666f6e742d7765696768743d223630302220206660208201527f6f6e742d73697a653d223138223e4261746368206f6620000000000000000000604082015260570190565b85612d3c565b6c1e17ba32bc3a1f1e17b9bb339f60991b8152600d0190565b7f646174613a696d6167652f7376672b786d6c3b6261736536342c00000000000081526000825161358a81601a8501602087016126d7565b91909101601a0192915050565b80820281158282048414176104c7576104c7612e8256fe4142434445464748494a4b4c4d4e4f505152535455565758595a6162636465666768696a6b6c6d6e6f707172737475767778797a303132333435363738392b2fa26469706673582212205e2b114e0ab71dc0923de421450e1c03ec1a389f0e2805ce4bbd7c677ff04b1b64736f6c63430008120033",
  "linkReferences": {},
  "deployedLinkReferences": {}
}