{
  "_format": "hh-sol-artifact-1",
  "contractName": "Certify",
  "sourceName": "contracts/Certify.sol",
  "abi": [
    {
      "inputs": [],
      "stateMutability": "nonpayable",
      "type": "constructor"
    },
    {
      "anonymous": false,
      "inputs": [
        {
          "indexed": true,
          "internalType": "address",
          "name": "owner",
          "type": "address"
        },
        {
          "indexed": true,
          "internalType": "address",
          "name": "approved",
          "type": "address"
        },
        {
          "indexed": true,
          "internalType": "uint256",
          "name": "tokenId",
          "type": "uint256"
        }
      ],
      "name": "Approval",
      "type": "event"
    },
    {
      "anonymous": false,
      "inputs": [
        {
          "indexed": true,
          "internalType": "address",
          "name": "owner",
          "type": "address"
        },
        {
          "indexed": true,
          "internalType": "address",
          "name": "operator",
          "type": "address"
        },
        {
          "indexed": false,
          "internalType": "bool",
          "name": "approved",
          "type": "bool"
        }
      ],
      "name": "ApprovalForAll",
      "type": "event"
    },
    {
      "anonymous": false,
      "inputs": [
        {
          "indexed": true,
          "internalType": "address",
          "name": "from",
          "type": "address"
        },
        {
          "indexed": true,
          "internalType": "address",
          "name": "to",
          "type": "address"
        },
        {
          "indexed": true,
          "internalType": "uint256",
          "name": "tokenId",
          "type": "uint256"
        }
      ],
      "name": "Transfer",
      "type": "event"
    },
    {
      "inputs": [
        {
          "internalType": "string",
          "name": "_studentId",
          "type": "string"
        },
        {
          "internalType": "string",
          "name": "_certificateId",
          "type": "string"
        },
        {
          "internalType": "string",
          "name": "_imageHash",
          "type": "string"
        },
        {
          "internalType": "string",
          "name": "_generatedDate",
          "type": "string"
        }
      ],
      "name": "addStudentCertificate",
      "outputs": [],
      "stateMutability": "nonpayable",
      "type": "function"
    },
    {
      "inputs": [],
      "name": "admin",
      "outputs": [
        {
          "internalType": "address",
          "name": "",
          "type": "address"
        }
      ],
      "stateMutability": "view",
      "type": "function"
    },
    {
      "inputs": [
        {
          "internalType": "address",
          "name": "to",
          "type": "address"
        },
        {
          "internalType": "uint256",
          "name": "tokenId",
          "type": "uint256"
        }
      ],
      "name": "approve",
      "outputs": [],
      "stateMutability": "nonpayable",
      "type": "function"
    },
    {
      "inputs": [
        {
          "internalType": "address",
          "name": "owner",
          "type": "address"
        }
      ],
      "name": "balanceOf",
      "outputs": [
        {
          "internalType": "uint256",
          "name": "",
          "type": "uint256"
        }
      ],
      "stateMutability": "view",
      "type": "function"
    },
    {
      "inputs": [
        {
          "internalType": "address",
          "name": "newAdmin",
          "type": "address"
        }
      ],
      "name": "changeAdmin",
      "outputs": [],
      "stateMutability": "nonpayable",
      "type": "function"
    },
    {
      "inputs": [
        {
          "internalType": "string",
          "name": "_studentId",
          "type": "string"
        },
        {
          "internalType": "address",
          "name": "_stuWallet",
          "type": "address"
        }
      ],
      "name": "changeStudentWalletAddress",
      "outputs": [],
      "stateMutability": "nonpayable",
      "type": "function"
    },
    {
      "inputs": [],
      "name": "claimNFT",
      "outputs": [],
      "stateMutability": "nonpayable",
      "type": "function"
    },
    {
      "inputs": [
        {
          "internalType": "string",
          "name": "_studentId",
          "type": "string"
        },
        {
          "internalType": "string",
          "name": "_stuName",
          "type": "string"
        },
        {
          "internalType": "address",
          "name": "_stuWallet",
          "type": "address"
        },
        {
          "internalType": "string",
          "name": "_enrolledYear",
          "type": "string"
        },
        {
          "internalType": "string",
          "name": "_enrolledProgram",
          "type": "string"
        }
      ],
      "name": "enrollStudent",
      "outputs": [],
      "stateMutability": "nonpayable",
      "type": "function"
    },
    {
      "inputs": [
        {
          "internalType": "uint256",
          "name": "tokenId",
          "type": "uint256"
        }
      ],
      "name": "getApproved",
      "outputs": [
        {
          "internalType": "address",
          "name": "",
          "type": "address"
        }
      ],
      "stateMutability": "view",
      "type": "function"
    },
    {
      "inputs": [
        {
          "internalType": "address",
          "name": "owner",
          "type": "address"
        },
        {
          "internalType": "address",
          "name": "operator",
          "type": "address"
        }
      ],
      "name": "isApprovedForAll",
      "outputs": [
        {
          "internalType": "bool",
          "name": "",
          "type": "bool"
        }
      ],
      "stateMutability": "view",
      "type": "function"
    },
    {
      "inputs": [],
      "name": "name",
      "outputs": [
        {
          "internalType": "string",
          "name": "",
          "type": "string"
        }
      ],
      "stateMutability": "view",
      "type": "function"
    },
    {
      "inputs": [
        {
          "internalType": "uint256",
          "name": "tokenId",
          "type": "uint256"
        }
      ],
      "name": "ownerOf",
      "outputs": [
        {
          "internalType": "address",
          "name": "",
          "type": "address"
        }
      ],
      "stateMutability": "view",
      "type": "function"
    },
    {
      "inputs": [
        {
          "internalType": "address",
          "name": "from",
          "type": "address"
        },
        {
          "internalType": "address",
          "name": "to",
          "type": "address"
        },
        {
          "internalType": "uint256",
          "name": "tokenId",
          "type": "uint256"
        }
      ],
      "name": "safeTransferFrom",
      "outputs": [],
      "stateMutability": "nonpayable",
      "type": "function"
    },
    {
      "inputs": [
        {
          "internalType": "address",
          "name": "from",
          "type": "address"
        },
        {
          "internalType": "address",
          "name": "to",
          "type": "address"
        },
        {
          "internalType": "uint256",
          "name": "tokenId",
          "type": "uint256"
        },
        {
          "internalType": "bytes",
          "name": "data",
          "type": "bytes"
        }
      ],
      "name": "safeTransferFrom",
      "outputs": [],
      "stateMutability": "nonpayable",
      "type": "function"
    },
    {
      "inputs": [
        {
          "internalType": "address",
          "name": "operator",
          "type": "address"
        },
        {
          "internalType": "bool",
          "name": "approved",
          "type": "bool"
        }
      ],
      "name": "setApprovalForAll",
      "outputs": [],
      "stateMutability": "nonpayable",
      "type": "function"
    },
    {
      "inputs": [
        {
          "internalType": "string",
          "name": "",
          "type": "string"
        }
      ],
      "name": "studentAcademics",
      "outputs": [
        {
          "internalType": "uint256",
          "name": "firstYearPercent",
          "type": "uint256"
        },
        {
          "internalType": "uint256",
          "name": "secondYearPercent",
          "type": "uint256"
        },
        {
          "internalType": "uint256",
          "name": "thirdYearPercent",
          "type": "uint256"
        },
        {
          "internalType": "uint256",
          "name": "finalYearPercent",
          "type": "uint256"
        }
      ],
      "stateMutability": "view",
      "type": "function"
    },
    {
      "inputs": [
        {
          "internalType": "string",
          "name": "",
          "type": "string"
        }
      ],
      "name": "studentCertificates",
      "outputs": [
        {
          "internalType": "string",
          "name": "certificateId",
          "type": "string"
        },
        {
          "internalType": "string",
          "name": "imageHash",
          "type": "string"
        },
        {
          "internalType": "address",
          "name": "ownerAddress",
          "type": "address"
        },
        {
          "internalType": "uint256",
          "name": "tokenId",
          "type": "uint256"
        },
        {
          "internalType": "string",
          "name": "generatedDate",
          "type": "string"
        }
      ],
      "stateMutability": "view",
      "type": "function"
    },
    {
      "inputs": [
        {
          "internalType": "address",
          "name": "",
          "type": "address"
        }
      ],
      "name": "studentWallets",
      "outputs": [
        {
          "internalType": "string",
          "name": "",
          "type": "string"
        }
      ],
      "stateMutability": "view",
      "type": "function"
    },
    {
      "inputs": [
        {
          "internalType": "string",
          "name": "",
          "type": "string"
        }
      ],
      "name": "students",
      "outputs": [
        {
          "internalType": "string",
          "name": "stuId",
          "type": "string"
        },
        {
          "internalType": "address",
          "name": "stuWallet",
          "type": "address"
        },
        {
          "internalType": "string",
          "name": "stuName",
          "type": "string"
        },
        {
          "internalType": "string",
          "name": "enrolledYear",
          "type": "string"
        },
        {
          "internalType": "uint256",
          "name": "enrolledIndex",
          "type": "uint256"
        },
        {
          "internalType": "string",
          "name": "enrolledProgram",
          "type": "string"
        },
        {
          "internalType": "bool",
          "name": "isGraduated",
          "type": "bool"
        },
        {
          "internalType": "bool",
          "name": "hasClaimedCertificate",
          "type": "bool"
        },
        {
          "internalType": "string",
          "name": "certificateId",
          "type": "string"
        }
      ],
      "stateMutability": "view",
      "type": "function"
    },
    {
      "inputs": [
        {
          "internalType": "bytes4",
          "name": "interfaceId",
          "type": "bytes4"
        }
      ],
      "name": "supportsInterface",
      "outputs": [
        {
          "internalType": "bool",
          "name": "",
          "type": "bool"
        }
      ],
      "stateMutability": "view",
      "type": "function"
    },
    {
      "inputs": [],
      "name": "symbol",
      "outputs": [
        {
          "internalType": "string",
          "name": "",
          "type": "string"
        }
      ],
      "stateMutability": "view",
      "type": "function"
    },
    {
      "inputs": [
        {
          "internalType": "uint256",
          "name": "",
          "type": "uint256"
        }
      ],
      "name": "tokenOwners",
      "outputs": [
        {
          "internalType": "address",
          "name": "",
          "type": "address"
        }
      ],
      "stateMutability": "view",
      "type": "function"
    },
    {
      "inputs": [
        {
          "internalType": "uint256",
          "name": "_tokenId",
          "type": "uint256"
        }
      ],
      "name": "tokenURI",
      "outputs": [
        {
          "internalType": "string",
          "name": "",
          "type": "string"
        }
      ],
      "stateMutability": "view",
      "type": "function"
    },
    {
      "inputs": [],
      "name": "totalStudentsEnrolled",
      "outputs": [
        {
          "internalType": "uint256",
          "name": "",
          "type": "uint256"
        }
      ],
      "stateMutability": "view",
      "type": "function"
    },
    {
      "inputs": [
        {
          "internalType": "address",
          "name": "from",
          "type": "address"
        },
        {
          "internalType": "address",
          "name": "to",
          "type": "address"
        },
        {
          "internalType": "uint256",
          "name": "tokenId",
          "type": "uint256"
        }
      ],
      "name": "transferFrom",
      "outputs": [],
      "stateMutability": "nonpayable",
      "type": "function"
    },
    {
      "inputs": [
        {
          "internalType": "string",
          "name": "_studentId",
          "type": "string"
        },
        {
          "components": [
            {
              "internalType": "uint256",
              "name": "firstYearPercent",
              "type": "uint256"
            },
            {
              "internalType": "uint256",
              "name": "secondYearPercent",
              "type": "uint256"
            },
            {
              "internalType": "uint256",
              "name": "thirdYearPercent",
              "type": "uint256"
            },
            {
              "internalType": "uint256",
              "name": "finalYearPercent",
              "type": "uint256"
            }
          ],
          "internalType": "struct Certify.Academics",
          "name": "_studentAcademics",
          "type": "tuple"
        }
      ],
      "name": "updateAcademics",
      "outputs": [],
      "stateMutability": "nonpayable",
      "type": "function"
    },
    {
      "inputs": [],
      "name": "usedDecimalPoints",
      "outputs": [
        {
          "internalType": "uint256",
          "name": "",
          "type": "uint256"
        }
      ],
      "stateMutability": "view",
      "type": "function"
    }
  ],
  "bytecode": "0x6080604052600060065560026007553480156200001b57600080fd5b50604051806040016040528060078152602001664365727469667960c81b8152506040518060400160405280600381526020016221a2a960e91b815250816000908162000069919062000138565b50600162000078828262000138565b5050600880546001600160a01b031916331790555062000204565b634e487b7160e01b600052604160045260246000fd5b600181811c90821680620000be57607f821691505b602082108103620000df57634e487b7160e01b600052602260045260246000fd5b50919050565b601f8211156200013357600081815260208120601f850160051c810160208610156200010e5750805b601f850160051c820191505b818110156200012f578281556001016200011a565b5050505b505050565b81516001600160401b0381111562000154576200015462000093565b6200016c81620001658454620000a9565b84620000e5565b602080601f831160018114620001a457600084156200018b5750858301515b600019600386901b1c1916600185901b1785556200012f565b600085815260208120601f198616915b82811015620001d557888601518255948401946001909101908401620001b4565b5085821015620001f45787850151600019600388901b60f8161c191681555b5050505050600190811b01905550565b61366480620002146000396000f3fe608060405234801561001057600080fd5b50600436106101a95760003560e01c806395d89b41116100f9578063cc20788511610097578063f851a44011610071578063f851a440146103f5578063f8a14f4614610408578063fa40a46214610431578063fcda73ec1461044457600080fd5b8063cc20788514610379578063e59eed2814610382578063e985e9c5146103e257600080fd5b8063b82e47b6116100d3578063b82e47b614610307578063b88d4fde1461032b578063c7ef6bfb1461033e578063c87b56dd1461036657600080fd5b806395d89b41146102d9578063a22cb465146102e1578063aaaedf01146102f457600080fd5b80633ae5443e116101665780636352211e116101405780636352211e1461028a578063672756ad1461029d57806370a08231146102a55780638f283970146102c657600080fd5b80633ae5443e1461025157806342842e0e1461026457806348b3daef1461027757600080fd5b806301ffc9a7146101ae57806306fdde03146101d6578063081812fc146101eb578063095ea7b3146102165780630f5981b51461022b57806323b872dd1461023e575b600080fd5b6101c16101bc36600461270c565b61044d565b60405190151581526020015b60405180910390f35b6101de61049f565b6040516101cd9190612780565b6101fe6101f9366004612793565b610531565b6040516001600160a01b0390911681526020016101cd565b6102296102243660046127c8565b610558565b005b61022961023936600461289e565b610672565b61022961024c36600461293f565b6107e8565b61022961025f36600461297b565b61085f565b61022961027236600461293f565b610a1f565b6102296102853660046129c9565b610a3a565b6101fe610298366004612793565b610d1a565b610229610d7a565b6102b86102b3366004612a76565b611072565b6040519081526020016101cd565b6102296102d4366004612a76565b6110f8565b6101de61119a565b6102296102ef366004612a91565b6111a9565b6101de610302366004612a76565b6111b8565b61031a610315366004612acd565b611252565b6040516101cd959493929190612b02565b610229610339366004612b5d565b611431565b61035161034c366004612acd565b611471565b6040516101cd99989796959493929190612bcd565b6101de610374366004612793565b611782565b6102b860075481565b6103c2610390366004612acd565b8051602081830181018051600c8252928201919093012091528054600182015460028301546003909301549192909184565b6040805194855260208501939093529183015260608201526080016101cd565b6101c16103f0366004612c67565b61180a565b6008546101fe906001600160a01b031681565b6101fe610416366004612793565b600d602052600090815260409020546001600160a01b031681565b61022961043f366004612c91565b611838565b6102b860065481565b60006001600160e01b031982166380ac58cd60e01b148061047e57506001600160e01b03198216635b5e139f60e01b145b8061049957506301ffc9a760e01b6001600160e01b03198316145b92915050565b6060600080546104ae90612d4f565b80601f01602080910402602001604051908101604052809291908181526020018280546104da90612d4f565b80156105275780601f106104fc57610100808354040283529160200191610527565b820191906000526020600020905b81548152906001019060200180831161050a57829003601f168201915b5050505050905090565b600061053c82611a97565b506000908152600460205260409020546001600160a01b031690565b600061056382610d1a565b9050806001600160a01b0316836001600160a01b0316036105d55760405162461bcd60e51b815260206004820152602160248201527f4552433732313a20617070726f76616c20746f2063757272656e74206f776e656044820152603960f91b60648201526084015b60405180910390fd5b336001600160a01b03821614806105f157506105f1813361180a565b6106635760405162461bcd60e51b815260206004820152603d60248201527f4552433732313a20617070726f76652063616c6c6572206973206e6f7420746f60448201527f6b656e206f776e6572206f7220617070726f76656420666f7220616c6c00000060648201526084016105cc565b61066d8383611af9565b505050565b6008546001600160a01b0316331461069c5760405162461bcd60e51b81526004016105cc90612d89565b6000600a836040516106ae9190612df3565b90815260405190819003602001902080546106c890612d4f565b90501161070f5760405162461bcd60e51b815260206004820152601560248201527414dd1d59195b9d08191bd95cdb9bdd08195e1a5cdd605a1b60448201526064016105cc565b600a8260405161071f9190612df3565b9081526040519081900360200190206006015460ff16156107a15760405162461bcd60e51b815260206004820152603660248201527f43616e6e6f74206d6f64696679206d61726b73206f6e6365206365727469666960448201527518d85d19481a185cc81899595b8819195c1b1bde595960521b60648201526084016105cc565b80600c836040516107b29190612df3565b90815260408051602092819003830190208351815591830151600183015582015160028201556060909101516003909101555050565b6107f23382611b67565b6108545760405162461bcd60e51b815260206004820152602d60248201527f4552433732313a2063616c6c6572206973206e6f7420746f6b656e206f776e6560448201526c1c881bdc88185c1c1c9bdd9959609a1b60648201526084016105cc565b61066d838383611bc6565b6008546001600160a01b031633146108895760405162461bcd60e51b81526004016105cc90612d89565b6001600160a01b038116600090815260096020526040902080546108ac90612d4f565b1590506108f25760405162461bcd60e51b815260206004820152601460248201527315d85b1b195d08185b1c9958591e48195e1a5cdd60621b60448201526064016105cc565b6000600a836040516109049190612df3565b908152604051908190036020019020805461091e90612d4f565b90501161096d5760405162461bcd60e51b815260206004820152601860248201527f53747564656e7420494420646f65736e6f74206578697374000000000000000060448201526064016105cc565b6040518060200160405280600081525060096000600a856040516109919190612df3565b9081526040805160209281900383019020600101546001600160a01b031683529082019290925201600020906109c79082612e5d565b5080600a836040516109d99190612df3565b908152604080516020928190038301902060010180546001600160a01b0319166001600160a01b03948516179055918316600090815260099091522061066d8382612e5d565b61066d83838360405180602001604052806000815250611431565b6008546001600160a01b03163314610a645760405162461bcd60e51b81526004016105cc90612d89565b600a84604051610a749190612df3565b90815260200160405180910390206007018054610a9090612d4f565b159050610adf5760405162461bcd60e51b815260206004820152601d60248201527f436572746966696361746520616c72656164792067656e65726174656400000060448201526064016105cc565b60006001600160a01b0316600b84604051610afa9190612df3565b908152604051908190036020019020600201546001600160a01b031614610b715760405162461bcd60e51b815260206004820152602560248201527f43657274696669636174652068617320616c7265616479206265656e206173736044820152641a59db995960da1b60648201526084016105cc565b600a84604051610b819190612df3565b908152604051908190036020018120600101546001600160a01b031690600b90610bac908690612df3565b908152602001604051809103902060020160006101000a8154816001600160a01b0302191690836001600160a01b0316021790555081600b84604051610bf29190612df3565b90815260200160405180910390206001019081610c0f9190612e5d565b5080600b84604051610c219190612df3565b90815260200160405180910390206004019081610c3e9190612e5d565b5082600b84604051610c509190612df3565b90815260405190819003602001902090610c6a9082612e5d565b506001600a85604051610c7d9190612df3565b908152604051908190036020018120600601805492151560ff19909316929092179091558390600a90610cb1908790612df3565b90815260200160405180910390206007019081610cce9190612e5d565b50600a84604051610cdf9190612df3565b908152602001604051809103902060040154600b84604051610d019190612df3565b9081526040519081900360200190206003015550505050565b6000818152600260205260408120546001600160a01b0316806104995760405162461bcd60e51b8152602060048201526018602482015277115490cdcc8c4e881a5b9d985b1a59081d1bdad95b88125160421b60448201526064016105cc565b3360009081526009602052604081208054610d9490612d4f565b905011610de35760405162461bcd60e51b815260206004820152601c60248201527f4f4e6c792073747564656e7420616c6c6f77656420746f206d696e740000000060448201526064016105cc565b3360009081526009602052604081208054610dfd90612d4f565b80601f0160208091040260200160405190810160405280929190818152602001828054610e2990612d4f565b8015610e765780601f10610e4b57610100808354040283529160200191610e76565b820191906000526020600020905b815481529060010190602001808311610e5957829003601f168201915b505050505090506000600a82604051610e8f9190612df3565b90815260200160405180910390206007018054610eab90612d4f565b80601f0160208091040260200160405190810160405280929190818152602001828054610ed790612d4f565b8015610f245780601f10610ef957610100808354040283529160200191610f24565b820191906000526020600020905b815481529060010190602001808311610f0757829003601f168201915b505050505090506000600b82604051610f3d9190612df3565b908152602001604051809103902060030154905060008111610f995760405162461bcd60e51b81526020600482015260156024820152744e6f7420656c696769626c6520746f20636c61696d60581b60448201526064016105cc565b600a83604051610fa99190612df3565b9081526040519081900360200190206006015460ff61010090910416156110085760405162461bcd60e51b815260206004820152601360248201527213919508105b1c9958591e4810db185a5b5959606a1b60448201526064016105cc565b6000818152600d6020526040902080546001600160a01b031916339081179091556110339082611d2a565b6001600a846040516110459190612df3565b90815260405190819003602001902060060180549115156101000261ff0019909216919091179055505050565b60006001600160a01b0382166110dc5760405162461bcd60e51b815260206004820152602960248201527f4552433732313a2061646472657373207a65726f206973206e6f7420612076616044820152683634b21037bbb732b960b91b60648201526084016105cc565b506001600160a01b031660009081526003602052604090205490565b6008546001600160a01b031633146111225760405162461bcd60e51b81526004016105cc90612d89565b6001600160a01b0381166111785760405162461bcd60e51b815260206004820152601860248201527f50726f7669646520612076616c6964206164646472657373000000000000000060448201526064016105cc565b600880546001600160a01b0319166001600160a01b0392909216919091179055565b6060600180546104ae90612d4f565b6111b4338383611d44565b5050565b600960205260009081526040902080546111d190612d4f565b80601f01602080910402602001604051908101604052809291908181526020018280546111fd90612d4f565b801561124a5780601f1061121f5761010080835404028352916020019161124a565b820191906000526020600020905b81548152906001019060200180831161122d57829003601f168201915b505050505081565b8051602081830181018051600b8252928201919093012091528054819061127890612d4f565b80601f01602080910402602001604051908101604052809291908181526020018280546112a490612d4f565b80156112f15780601f106112c6576101008083540402835291602001916112f1565b820191906000526020600020905b8154815290600101906020018083116112d457829003601f168201915b50505050509080600101805461130690612d4f565b80601f016020809104026020016040519081016040528092919081815260200182805461133290612d4f565b801561137f5780601f106113545761010080835404028352916020019161137f565b820191906000526020600020905b81548152906001019060200180831161136257829003601f168201915b505050506002830154600384015460048501805494956001600160a01b0390931694919350906113ae90612d4f565b80601f01602080910402602001604051908101604052809291908181526020018280546113da90612d4f565b80156114275780601f106113fc57610100808354040283529160200191611427565b820191906000526020600020905b81548152906001019060200180831161140a57829003601f168201915b5050505050905085565b60405162461bcd60e51b81526020600482015260156024820152744e4654206e6f6e207472616e736665727261626c6560581b60448201526064016105cc565b8051602081830181018051600a8252928201919093012091528054819061149790612d4f565b80601f01602080910402602001604051908101604052809291908181526020018280546114c390612d4f565b80156115105780601f106114e557610100808354040283529160200191611510565b820191906000526020600020905b8154815290600101906020018083116114f357829003601f168201915b505050600184015460028501805494956001600160a01b0390921694919350915061153a90612d4f565b80601f016020809104026020016040519081016040528092919081815260200182805461156690612d4f565b80156115b35780601f10611588576101008083540402835291602001916115b3565b820191906000526020600020905b81548152906001019060200180831161159657829003601f168201915b5050505050908060030180546115c890612d4f565b80601f01602080910402602001604051908101604052809291908181526020018280546115f490612d4f565b80156116415780601f1061161657610100808354040283529160200191611641565b820191906000526020600020905b81548152906001019060200180831161162457829003601f168201915b50505050509080600401549080600501805461165c90612d4f565b80601f016020809104026020016040519081016040528092919081815260200182805461168890612d4f565b80156116d55780601f106116aa576101008083540402835291602001916116d5565b820191906000526020600020905b8154815290600101906020018083116116b857829003601f168201915b505050506006830154600784018054939460ff80841695610100909404169350916116ff90612d4f565b80601f016020809104026020016040519081016040528092919081815260200182805461172b90612d4f565b80156117785780601f1061174d57610100808354040283529160200191611778565b820191906000526020600020905b81548152906001019060200180831161175b57829003601f168201915b5050505050905089565b6000818152600260205260409020546060906001600160a01b03166118015760405162461bcd60e51b815260206004820152602f60248201527f4552433732314d657461646174613a2055524920717565727920666f72206e6f60448201526e3732bc34b9ba32b73a103a37b5b2b760891b60648201526084016105cc565b61049982611e12565b6001600160a01b03918216600090815260056020908152604080832093909416825291909152205460ff1690565b6008546001600160a01b031633146118625760405162461bcd60e51b81526004016105cc90612d89565b600a856040516118729190612df3565b908152604051908190036020019020805461188c90612d4f565b1590506118db5760405162461bcd60e51b815260206004820152601b60248201527f53747564656e7420494420616c726561647920656e726f6c6c6564000000000060448201526064016105cc565b6001600160a01b038316600090815260096020526040902080546118fe90612d4f565b1590506119445760405162461bcd60e51b815260206004820152601460248201527315d85b1b195d08185b1c9958591e48195e1a5cdd60621b60448201526064016105cc565b83600a866040516119559190612df3565b908152602001604051809103902060020190816119729190612e5d565b5081600a866040516119849190612df3565b908152602001604051809103902060030190816119a19190612e5d565b5084600a866040516119b39190612df3565b908152604051908190036020019020906119cd9082612e5d565b5080600a866040516119df9190612df3565b908152602001604051809103902060050190816119fc9190612e5d565b5082600a86604051611a0e9190612df3565b908152604080516020928190038301902060010180546001600160a01b0319166001600160a01b039485161790559185166000908152600990915220611a548682612e5d565b5060068054906000611a6583612f33565b9190505550600654600a86604051611a7d9190612df3565b908152604051908190036020019020600401555050505050565b6000818152600260205260409020546001600160a01b0316611af65760405162461bcd60e51b8152602060048201526018602482015277115490cdcc8c4e881a5b9d985b1a59081d1bdad95b88125160421b60448201526064016105cc565b50565b600081815260046020526040902080546001600160a01b0319166001600160a01b0384169081179091558190611b2e82610d1a565b6001600160a01b03167f8c5be1e5ebec7d5bd14f71427d1e84f3dd0314c0f7b2291e5b200ac8c7c3b92560405160405180910390a45050565b600080611b7383610d1a565b9050806001600160a01b0316846001600160a01b03161480611b9a5750611b9a818561180a565b80611bbe5750836001600160a01b0316611bb384610531565b6001600160a01b0316145b949350505050565b826001600160a01b0316611bd982610d1a565b6001600160a01b031614611bff5760405162461bcd60e51b81526004016105cc90612f4c565b6001600160a01b038216611c615760405162461bcd60e51b8152602060048201526024808201527f4552433732313a207472616e7366657220746f20746865207a65726f206164646044820152637265737360e01b60648201526084016105cc565b826001600160a01b0316611c7482610d1a565b6001600160a01b031614611c9a5760405162461bcd60e51b81526004016105cc90612f4c565b600081815260046020908152604080832080546001600160a01b03199081169091556001600160a01b0387811680865260038552838620805460001901905590871680865283862080546001019055868652600290945282852080549092168417909155905184937fddf252ad1be2c89b69c2b068fc378daa952ba7f163c4a11628f55a4df523b3ef91a4505050565b6111b482826040518060200160405280600081525061207f565b816001600160a01b0316836001600160a01b031603611da55760405162461bcd60e51b815260206004820152601960248201527f4552433732313a20617070726f766520746f2063616c6c65720000000000000060448201526064016105cc565b6001600160a01b03838116600081815260056020908152604080832094871680845294825291829020805460ff191686151590811790915591519182527f17307eab39ab6107e8899845ad3d59bd9653f200f220920489ca2b5937696c31910160405180910390a3505050565b6000818152600d60209081526040808320546001600160a01b031683526009909152812080546060929190611e4690612d4f565b80601f0160208091040260200160405190810160405280929190818152602001828054611e7290612d4f565b8015611ebf5780601f10611e9457610100808354040283529160200191611ebf565b820191906000526020600020905b815481529060010190602001808311611ea257829003601f168201915b505050505090506000600a82604051611ed89190612df3565b90815260200160405180910390206002018054611ef490612d4f565b80601f0160208091040260200160405190810160405280929190818152602001828054611f2090612d4f565b8015611f6d5780601f10611f4257610100808354040283529160200191611f6d565b820191906000526020600020905b815481529060010190602001808311611f5057829003601f168201915b505050505090506000600a83604051611f869190612df3565b90815260200160405180910390206003018054611fa290612d4f565b80601f0160208091040260200160405190810160405280929190818152602001828054611fce90612d4f565b801561201b5780601f10611ff05761010080835404028352916020019161201b565b820191906000526020600020905b815481529060010190602001808311611ffe57829003601f168201915b505050505090506120568282612030886121b3565b60405160200161204293929190612fe3565b604051602081830303815290604052612404565b6040516020016120669190613085565b6040516020818303038152906040529350505050919050565b612089838361256b565b61209660008484846120b2565b61066d5760405162461bcd60e51b81526004016105cc90612f91565b60006001600160a01b0384163b156121a857604051630a85bd0160e11b81526001600160a01b0385169063150b7a02906120f69033908990889088906004016130ca565b6020604051808303816000875af1925050508015612131575060408051601f3d908101601f1916820190925261212e91810190613107565b60015b61218e573d80801561215f576040519150601f19603f3d011682016040523d82523d6000602084013e612164565b606091505b5080516000036121865760405162461bcd60e51b81526004016105cc90612f91565b805181602001fd5b6001600160e01b031916630a85bd0160e11b149050611bbe565b506001949350505050565b6000818152600d60209081526040808320546001600160a01b031680845260099092528220805460609391906121e890612d4f565b80601f016020809104026020016040519081016040528092919081815260200182805461221490612d4f565b80156122615780601f1061223657610100808354040283529160200191612261565b820191906000526020600020905b81548152906001019060200180831161224457829003601f168201915b505050505090506000600a8260405161227a9190612df3565b9081526020016040518091039020600201805461229690612d4f565b80601f01602080910402602001604051908101604052809291908181526020018280546122c290612d4f565b801561230f5780601f106122e45761010080835404028352916020019161230f565b820191906000526020600020905b8154815290600101906020018083116122f257829003601f168201915b505050505090506000600a836040516123289190612df3565b9081526020016040518091039020600301805461234490612d4f565b80601f016020809104026020016040519081016040528092919081815260200182805461237090612d4f565b80156123bd5780601f10612392576101008083540402835291602001916123bd565b820191906000526020600020905b8154815290600101906020018083116123a057829003601f168201915b505050505090506123da8282604051602001612042929190613124565b6040516020016123ea919061355d565b604051602081830303815290604052945050505050919050565b6060815160000361242357505060408051602081019091526000815290565b60006040518060600160405280604081526020016135ef604091399050600060038451600261245291906135a2565b61245c91906135b5565b6124679060046135d7565b905060006124768260206135a2565b67ffffffffffffffff81111561248e5761248e6127f2565b6040519080825280601f01601f1916602001820160405280156124b8576020820181803683370190505b509050818152600183018586518101602084015b818310156125265760039283018051603f601282901c811687015160f890811b8552600c83901c8216880151811b6001860152600683901c8216880151811b60028601529116860151901b938201939093526004016124cc565b60038951066001811461254057600281146125515761255d565b613d3d60f01b60011983015261255d565b603d60f81b6000198301525b509398975050505050505050565b6001600160a01b0382166125c15760405162461bcd60e51b815260206004820181905260248201527f4552433732313a206d696e7420746f20746865207a65726f206164647265737360448201526064016105cc565b6000818152600260205260409020546001600160a01b0316156126265760405162461bcd60e51b815260206004820152601c60248201527f4552433732313a20746f6b656e20616c7265616479206d696e7465640000000060448201526064016105cc565b6000818152600260205260409020546001600160a01b03161561268b5760405162461bcd60e51b815260206004820152601c60248201527f4552433732313a20746f6b656e20616c7265616479206d696e7465640000000060448201526064016105cc565b6001600160a01b038216600081815260036020908152604080832080546001019055848352600290915280822080546001600160a01b0319168417905551839291907fddf252ad1be2c89b69c2b068fc378daa952ba7f163c4a11628f55a4df523b3ef908290a45050565b6001600160e01b031981168114611af657600080fd5b60006020828403121561271e57600080fd5b8135612729816126f6565b9392505050565b60005b8381101561274b578181015183820152602001612733565b50506000910152565b6000815180845261276c816020860160208601612730565b601f01601f19169290920160200192915050565b6020815260006127296020830184612754565b6000602082840312156127a557600080fd5b5035919050565b80356001600160a01b03811681146127c357600080fd5b919050565b600080604083850312156127db57600080fd5b6127e4836127ac565b946020939093013593505050565b634e487b7160e01b600052604160045260246000fd5b600067ffffffffffffffff80841115612823576128236127f2565b604051601f8501601f19908116603f0116810190828211818310171561284b5761284b6127f2565b8160405280935085815286868601111561286457600080fd5b858560208301376000602087830101525050509392505050565b600082601f83011261288f57600080fd5b61272983833560208501612808565b60008082840360a08112156128b257600080fd5b833567ffffffffffffffff808211156128ca57600080fd5b6128d68783880161287e565b94506080601f19840112156128ea57600080fd5b60405192506080830191508282108183111715612909576129096127f2565b50806040525060208401358152604084013560208201526060840135604082015260808401356060820152809150509250929050565b60008060006060848603121561295457600080fd5b61295d846127ac565b925061296b602085016127ac565b9150604084013590509250925092565b6000806040838503121561298e57600080fd5b823567ffffffffffffffff8111156129a557600080fd5b6129b18582860161287e565b9250506129c0602084016127ac565b90509250929050565b600080600080608085870312156129df57600080fd5b843567ffffffffffffffff808211156129f757600080fd5b612a038883890161287e565b95506020870135915080821115612a1957600080fd5b612a258883890161287e565b94506040870135915080821115612a3b57600080fd5b612a478883890161287e565b93506060870135915080821115612a5d57600080fd5b50612a6a8782880161287e565b91505092959194509250565b600060208284031215612a8857600080fd5b612729826127ac565b60008060408385031215612aa457600080fd5b612aad836127ac565b915060208301358015158114612ac257600080fd5b809150509250929050565b600060208284031215612adf57600080fd5b813567ffffffffffffffff811115612af657600080fd5b611bbe8482850161287e565b60a081526000612b1560a0830188612754565b8281036020840152612b278188612754565b6001600160a01b03871660408501526060840186905283810360808501529050612b518185612754565b98975050505050505050565b60008060008060808587031215612b7357600080fd5b612b7c856127ac565b9350612b8a602086016127ac565b925060408501359150606085013567ffffffffffffffff811115612bad57600080fd5b8501601f81018713612bbe57600080fd5b612a6a87823560208401612808565b6000610120808352612be18184018d612754565b6001600160a01b038c16602085015283810360408501529050612c04818b612754565b90508281036060840152612c18818a612754565b905087608084015282810360a0840152612c328188612754565b905085151560c084015284151560e0840152828103610100840152612c578185612754565b9c9b505050505050505050505050565b60008060408385031215612c7a57600080fd5b612c83836127ac565b91506129c0602084016127ac565b600080600080600060a08688031215612ca957600080fd5b853567ffffffffffffffff80821115612cc157600080fd5b612ccd89838a0161287e565b96506020880135915080821115612ce357600080fd5b612cef89838a0161287e565b9550612cfd604089016127ac565b94506060880135915080821115612d1357600080fd5b612d1f89838a0161287e565b93506080880135915080821115612d3557600080fd5b50612d428882890161287e565b9150509295509295909350565b600181811c90821680612d6357607f821691505b602082108103612d8357634e487b7160e01b600052602260045260246000fd5b50919050565b6020808252602e908201527f4f6e6c79207468652061646d696e20697320616c6c6f77656420746f2063616c60408201526d36103a343290333ab731ba34b7b760911b606082015260800190565b60008151612de9818560208601612730565b9290920192915050565b60008251612e05818460208701612730565b9190910192915050565b601f82111561066d57600081815260208120601f850160051c81016020861015612e365750805b601f850160051c820191505b81811015612e5557828155600101612e42565b505050505050565b815167ffffffffffffffff811115612e7757612e776127f2565b612e8b81612e858454612d4f565b84612e0f565b602080601f831160018114612ec05760008415612ea85750858301515b600019600386901b1c1916600185901b178555612e55565b600085815260208120601f198616915b82811015612eef57888601518255948401946001909101908401612ed0565b5085821015612f0d5787850151600019600388901b60f8161c191681555b5050505050600190811b01905550565b634e487b7160e01b600052601160045260246000fd5b600060018201612f4557612f45612f1d565b5060010190565b60208082526025908201527f4552433732313a207472616e736665722066726f6d20696e636f72726563742060408201526437bbb732b960d91b606082015260800190565b60208082526032908201527f4552433732313a207472616e7366657220746f206e6f6e20455243373231526560408201527131b2b4bb32b91034b6b83632b6b2b73a32b960711b606082015260800190565b683d913730b6b2911d1160b91b81528351600090613008816009850160208901612730565b721116101132b73937b63632b22cb2b0b9111d1160691b600991840191820152845161303b81601c840160208901612730565b6c1116101134b6b0b3b2911d101160991b601c92909101918201528351613069816029840160208801612730565b61227d60f01b60299290910191820152602b0195945050505050565b7f646174613a6170706c69636174696f6e2f6a736f6e3b6261736536342c0000008152600082516130bd81601d850160208701612730565b91909101601d0192915050565b6001600160a01b03858116825284166020820152604081018390526080606082018190526000906130fd90830184612754565b9695505050505050565b60006020828403121561311957600080fd5b8151612729816126f6565b7f3c7376672077696474683d2233353922206865696768743d223539342220766981527f6577426f783d223020302033353920353934222066696c6c3d226e6f6e65222060208201527f786d6c6e733d22687474703a2f2f7777772e77332e6f72672f323030302f737660408201527f67223e3c7265637420783d22322e3939393934222077696474683d223335362260608201527f206865696768743d22353930222066696c6c3d2223463146314631222f3e3c7060808201527f61746820643d224d3120304c3335362032352e3831334c3120383756305a222060a08201527f66696c6c3d2223423238303639222f3e3c7061746820643d224d3335352e352060c08201527f345639324c302e352034483335352e355a222066696c6c3d222342464132393460e08201527f222f3e3c7061746820643d224d3335362e393835203539332e3233324c322e326101008201527f333533203536342e3138344c3335372e373738203530362e3233364c3335362e6101208201527f393835203539332e3233325a222066696c6c3d2223423238303639222f3e3c706101408201527f61746820643d224d322e3031383232203538372e3939364c322e3832303436206101608201527f3530304c3335372e303033203539312e3233334c322e3031383232203538372e6101808201527f3939365a222066696c6c3d2223424641323934222f3e3c6c696e652078313d226101a08201527f34302e39393939222079313d22333939222078323d22333331222079323d22336101c08201527f393922207374726f6b653d22626c61636b2220207374726f6b652d77696474686101e08201527f3d2232222f3e3c7465787420783d223136252220793d22333025222066696c6c6102008201527f3d22626c61636b222020666f6e742d7765696768743d223630302220666f6e746102208201527f2d73697a653d22333222203e496d70657269616c20436f6c6c6567653c2f74656102408201527f78743e3c7465787420783d223430252220793d22373325222066696c6c3d22626102608201527f6c61636b2220666f6e742d73697a653d22323222203e416c756d6e693c2f74656102808201527f78743e3c7465787420783d223530252220793d2236342e3525222066696c6c3d6102a08201527f22626c61636b2220746578742d616e63686f723d226d6964646c652220666f6e6102c08201526b3a16b9b4bd329e91191a911f60a11b6102e08201526000611bbe61354461353e6134c96102ec860188612dd7565b7f3c2f746578743e3c7465787420783d223333252220793d2238322e352522206681527f696c6c3d22626c61636b2220666f6e742d7765696768743d223630302220206660208201527f6f6e742d73697a653d223138223e4261746368206f6620000000000000000000604082015260570190565b85612dd7565b6c1e17ba32bc3a1f1e17b9bb339f60991b8152600d0190565b7f646174613a696d6167652f7376672b786d6c3b6261736536342c00000000000081526000825161359581601a850160208701612730565b91909101601a0192915050565b8082018082111561049957610499612f1d565b6000826135d257634e487b7160e01b600052601260045260246000fd5b500490565b808202811582820484141761049957610499612f1d56fe4142434445464748494a4b4c4d4e4f505152535455565758595a6162636465666768696a6b6c6d6e6f707172737475767778797a303132333435363738392b2fa2646970667358221220215af62a3e523dbfd734fcfed1fc1c6939382e600d9d937e02bfe9075ebcbffd64736f6c63430008120033",
  "linkReferences": {},
  "deployedLinkReferences": {}
}