{
  "_format": "hh-sol-artifact-1",
  "contractName": "Certify",
  "sourceName": "contracts/Certify.sol",
  "abi": [
    {
      "inputs": [],
      "stateMutability": "nonpayable",
      "type": "constructor"
    },
    {
      "anonymous": false,
      "inputs": [
        {
          "indexed": true,
          "internalType": "address",
          "name": "owner",
          "type": "address"
        },
        {
          "indexed": true,
          "internalType": "address",
          "name": "approved",
          "type": "address"
        },
        {
          "indexed": true,
          "internalType": "uint256",
          "name": "tokenId",
          "type": "uint256"
        }
      ],
      "name": "Approval",
      "type": "event"
    },
    {
      "anonymous": false,
      "inputs": [
        {
          "indexed": true,
          "internalType": "address",
          "name": "owner",
          "type": "address"
        },
        {
          "indexed": true,
          "internalType": "address",
          "name": "operator",
          "type": "address"
        },
        {
          "indexed": false,
          "internalType": "bool",
          "name": "approved",
          "type": "bool"
        }
      ],
      "name": "ApprovalForAll",
      "type": "event"
    },
    {
      "anonymous": false,
      "inputs": [
        {
          "indexed": true,
          "internalType": "address",
          "name": "from",
          "type": "address"
        },
        {
          "indexed": true,
          "internalType": "address",
          "name": "to",
          "type": "address"
        },
        {
          "indexed": true,
          "internalType": "uint256",
          "name": "tokenId",
          "type": "uint256"
        }
      ],
      "name": "Transfer",
      "type": "event"
    },
    {
      "inputs": [
        {
          "internalType": "string",
          "name": "_studentId",
          "type": "string"
        },
        {
          "internalType": "string",
          "name": "_certificateId",
          "type": "string"
        },
        {
          "internalType": "string",
          "name": "_imageHash",
          "type": "string"
        },
        {
          "internalType": "string",
          "name": "_generatedDate",
          "type": "string"
        }
      ],
      "name": "addStudentCertificate",
      "outputs": [],
      "stateMutability": "nonpayable",
      "type": "function"
    },
    {
      "inputs": [],
      "name": "admin",
      "outputs": [
        {
          "internalType": "address",
          "name": "",
          "type": "address"
        }
      ],
      "stateMutability": "view",
      "type": "function"
    },
    {
      "inputs": [
        {
          "internalType": "address",
          "name": "to",
          "type": "address"
        },
        {
          "internalType": "uint256",
          "name": "tokenId",
          "type": "uint256"
        }
      ],
      "name": "approve",
      "outputs": [],
      "stateMutability": "nonpayable",
      "type": "function"
    },
    {
      "inputs": [
        {
          "internalType": "address",
          "name": "owner",
          "type": "address"
        }
      ],
      "name": "balanceOf",
      "outputs": [
        {
          "internalType": "uint256",
          "name": "",
          "type": "uint256"
        }
      ],
      "stateMutability": "view",
      "type": "function"
    },
    {
      "inputs": [
        {
          "internalType": "address",
          "name": "newAdmin",
          "type": "address"
        }
      ],
      "name": "changeAdmin",
      "outputs": [],
      "stateMutability": "nonpayable",
      "type": "function"
    },
    {
      "inputs": [
        {
          "internalType": "string",
          "name": "_studentId",
          "type": "string"
        },
        {
          "internalType": "address",
          "name": "_stuWallet",
          "type": "address"
        }
      ],
      "name": "changeStudentWalletAddress",
      "outputs": [],
      "stateMutability": "nonpayable",
      "type": "function"
    },
    {
      "inputs": [],
      "name": "claimNFT",
      "outputs": [],
      "stateMutability": "nonpayable",
      "type": "function"
    },
    {
      "inputs": [
        {
          "internalType": "string",
          "name": "_studentId",
          "type": "string"
        },
        {
          "internalType": "string",
          "name": "_stuName",
          "type": "string"
        },
        {
          "internalType": "address",
          "name": "_stuWallet",
          "type": "address"
        },
        {
          "internalType": "uint256",
          "name": "_enrolledYear",
          "type": "uint256"
        },
        {
          "internalType": "string",
          "name": "_enrolledProgram",
          "type": "string"
        }
      ],
      "name": "enrollStudent",
      "outputs": [],
      "stateMutability": "nonpayable",
      "type": "function"
    },
    {
      "inputs": [
        {
          "internalType": "uint256",
          "name": "tokenId",
          "type": "uint256"
        }
      ],
      "name": "getApproved",
      "outputs": [
        {
          "internalType": "address",
          "name": "",
          "type": "address"
        }
      ],
      "stateMutability": "view",
      "type": "function"
    },
    {
      "inputs": [
        {
          "internalType": "address",
          "name": "owner",
          "type": "address"
        },
        {
          "internalType": "address",
          "name": "operator",
          "type": "address"
        }
      ],
      "name": "isApprovedForAll",
      "outputs": [
        {
          "internalType": "bool",
          "name": "",
          "type": "bool"
        }
      ],
      "stateMutability": "view",
      "type": "function"
    },
    {
      "inputs": [],
      "name": "name",
      "outputs": [
        {
          "internalType": "string",
          "name": "",
          "type": "string"
        }
      ],
      "stateMutability": "view",
      "type": "function"
    },
    {
      "inputs": [
        {
          "internalType": "uint256",
          "name": "tokenId",
          "type": "uint256"
        }
      ],
      "name": "ownerOf",
      "outputs": [
        {
          "internalType": "address",
          "name": "",
          "type": "address"
        }
      ],
      "stateMutability": "view",
      "type": "function"
    },
    {
      "inputs": [
        {
          "internalType": "address",
          "name": "from",
          "type": "address"
        },
        {
          "internalType": "address",
          "name": "to",
          "type": "address"
        },
        {
          "internalType": "uint256",
          "name": "tokenId",
          "type": "uint256"
        }
      ],
      "name": "safeTransferFrom",
      "outputs": [],
      "stateMutability": "nonpayable",
      "type": "function"
    },
    {
      "inputs": [
        {
          "internalType": "address",
          "name": "from",
          "type": "address"
        },
        {
          "internalType": "address",
          "name": "to",
          "type": "address"
        },
        {
          "internalType": "uint256",
          "name": "tokenId",
          "type": "uint256"
        },
        {
          "internalType": "bytes",
          "name": "data",
          "type": "bytes"
        }
      ],
      "name": "safeTransferFrom",
      "outputs": [],
      "stateMutability": "nonpayable",
      "type": "function"
    },
    {
      "inputs": [
        {
          "internalType": "address",
          "name": "operator",
          "type": "address"
        },
        {
          "internalType": "bool",
          "name": "approved",
          "type": "bool"
        }
      ],
      "name": "setApprovalForAll",
      "outputs": [],
      "stateMutability": "nonpayable",
      "type": "function"
    },
    {
      "inputs": [
        {
          "internalType": "string",
          "name": "",
          "type": "string"
        }
      ],
      "name": "studentAcademics",
      "outputs": [
        {
          "internalType": "uint256",
          "name": "firstYearPercent",
          "type": "uint256"
        },
        {
          "internalType": "uint256",
          "name": "secondYearPercent",
          "type": "uint256"
        },
        {
          "internalType": "uint256",
          "name": "thirdYearPercent",
          "type": "uint256"
        },
        {
          "internalType": "uint256",
          "name": "finalYearPercent",
          "type": "uint256"
        }
      ],
      "stateMutability": "view",
      "type": "function"
    },
    {
      "inputs": [
        {
          "internalType": "string",
          "name": "",
          "type": "string"
        }
      ],
      "name": "studentCertificates",
      "outputs": [
        {
          "internalType": "string",
          "name": "certificateId",
          "type": "string"
        },
        {
          "internalType": "string",
          "name": "imageHash",
          "type": "string"
        },
        {
          "internalType": "address",
          "name": "ownerAddress",
          "type": "address"
        },
        {
          "internalType": "uint256",
          "name": "tokenId",
          "type": "uint256"
        },
        {
          "internalType": "string",
          "name": "generatedDate",
          "type": "string"
        }
      ],
      "stateMutability": "view",
      "type": "function"
    },
    {
      "inputs": [
        {
          "internalType": "address",
          "name": "",
          "type": "address"
        }
      ],
      "name": "studentWallets",
      "outputs": [
        {
          "internalType": "string",
          "name": "",
          "type": "string"
        }
      ],
      "stateMutability": "view",
      "type": "function"
    },
    {
      "inputs": [
        {
          "internalType": "string",
          "name": "",
          "type": "string"
        }
      ],
      "name": "students",
      "outputs": [
        {
          "internalType": "string",
          "name": "stuId",
          "type": "string"
        },
        {
          "internalType": "address",
          "name": "stuWallet",
          "type": "address"
        },
        {
          "internalType": "string",
          "name": "stuName",
          "type": "string"
        },
        {
          "internalType": "uint256",
          "name": "enrolledYear",
          "type": "uint256"
        },
        {
          "internalType": "uint256",
          "name": "enrolledIndex",
          "type": "uint256"
        },
        {
          "internalType": "string",
          "name": "enrolledProgram",
          "type": "string"
        },
        {
          "internalType": "bool",
          "name": "isGraduated",
          "type": "bool"
        },
        {
          "internalType": "bool",
          "name": "hasClaimedCertificate",
          "type": "bool"
        },
        {
          "internalType": "string",
          "name": "certificateId",
          "type": "string"
        }
      ],
      "stateMutability": "view",
      "type": "function"
    },
    {
      "inputs": [
        {
          "internalType": "bytes4",
          "name": "interfaceId",
          "type": "bytes4"
        }
      ],
      "name": "supportsInterface",
      "outputs": [
        {
          "internalType": "bool",
          "name": "",
          "type": "bool"
        }
      ],
      "stateMutability": "view",
      "type": "function"
    },
    {
      "inputs": [],
      "name": "symbol",
      "outputs": [
        {
          "internalType": "string",
          "name": "",
          "type": "string"
        }
      ],
      "stateMutability": "view",
      "type": "function"
    },
    {
      "inputs": [
        {
          "internalType": "uint256",
          "name": "",
          "type": "uint256"
        }
      ],
      "name": "tokenOwners",
      "outputs": [
        {
          "internalType": "address",
          "name": "",
          "type": "address"
        }
      ],
      "stateMutability": "view",
      "type": "function"
    },
    {
      "inputs": [
        {
          "internalType": "uint256",
          "name": "_tokenId",
          "type": "uint256"
        }
      ],
      "name": "tokenURI",
      "outputs": [
        {
          "internalType": "string",
          "name": "",
          "type": "string"
        }
      ],
      "stateMutability": "view",
      "type": "function"
    },
    {
      "inputs": [],
      "name": "totalStudentsEnrolled",
      "outputs": [
        {
          "internalType": "uint256",
          "name": "",
          "type": "uint256"
        }
      ],
      "stateMutability": "view",
      "type": "function"
    },
    {
      "inputs": [
        {
          "internalType": "address",
          "name": "from",
          "type": "address"
        },
        {
          "internalType": "address",
          "name": "to",
          "type": "address"
        },
        {
          "internalType": "uint256",
          "name": "tokenId",
          "type": "uint256"
        }
      ],
      "name": "transferFrom",
      "outputs": [],
      "stateMutability": "nonpayable",
      "type": "function"
    },
    {
      "inputs": [
        {
          "internalType": "string",
          "name": "_studentId",
          "type": "string"
        },
        {
          "components": [
            {
              "internalType": "uint256",
              "name": "firstYearPercent",
              "type": "uint256"
            },
            {
              "internalType": "uint256",
              "name": "secondYearPercent",
              "type": "uint256"
            },
            {
              "internalType": "uint256",
              "name": "thirdYearPercent",
              "type": "uint256"
            },
            {
              "internalType": "uint256",
              "name": "finalYearPercent",
              "type": "uint256"
            }
          ],
          "internalType": "struct Certify.Academics",
          "name": "_studentAcademics",
          "type": "tuple"
        }
      ],
      "name": "updateAcademics",
      "outputs": [],
      "stateMutability": "nonpayable",
      "type": "function"
    },
    {
      "inputs": [],
      "name": "usedDecimalPoints",
      "outputs": [
        {
          "internalType": "uint256",
          "name": "",
          "type": "uint256"
        }
      ],
      "stateMutability": "view",
      "type": "function"
    }
  ],
  "bytecode": "0x6080604052600060065560026007553480156200001b57600080fd5b50604051806040016040528060078152602001664365727469667960c81b8152506040518060400160405280600381526020016221a2a960e91b815250816000908162000069919062000138565b50600162000078828262000138565b5050600880546001600160a01b031916331790555062000204565b634e487b7160e01b600052604160045260246000fd5b600181811c90821680620000be57607f821691505b602082108103620000df57634e487b7160e01b600052602260045260246000fd5b50919050565b601f8211156200013357600081815260208120601f850160051c810160208610156200010e5750805b601f850160051c820191505b818110156200012f578281556001016200011a565b5050505b505050565b81516001600160401b0381111562000154576200015462000093565b6200016c81620001658454620000a9565b84620000e5565b602080601f831160018114620001a457600084156200018b5750858301515b600019600386901b1c1916600185901b1785556200012f565b600085815260208120601f198616915b82811015620001d557888601518255948401946001909101908401620001b4565b5085821015620001f45787850151600019600388901b60f8161c191681555b5050505050600190811b01905550565b61333f80620002146000396000f3fe608060405234801561001057600080fd5b50600436106101a95760003560e01c806395d89b41116100f9578063c87b56dd11610097578063e985e9c511610071578063e985e9c5146103f5578063f851a44014610408578063f8a14f461461041b578063fcda73ec1461044457600080fd5b8063c87b56dd14610379578063cc2078851461038c578063e59eed281461039557600080fd5b8063b82e47b6116100d3578063b82e47b614610307578063b88d4fde1461032b578063c191ca831461033e578063c7ef6bfb1461035157600080fd5b806395d89b41146102d9578063a22cb465146102e1578063aaaedf01146102f457600080fd5b80633ae5443e116101665780636352211e116101405780636352211e1461028a578063672756ad1461029d57806370a08231146102a55780638f283970146102c657600080fd5b80633ae5443e1461025157806342842e0e1461026457806348b3daef1461027757600080fd5b806301ffc9a7146101ae57806306fdde03146101d6578063081812fc146101eb578063095ea7b3146102165780630f5981b51461022b57806323b872dd1461023e575b600080fd5b6101c16101bc3660046125c5565b61044d565b60405190151581526020015b60405180910390f35b6101de61049f565b6040516101cd9190612632565b6101fe6101f9366004612645565b610531565b6040516001600160a01b0390911681526020016101cd565b61022961022436600461267a565b610558565b005b610229610239366004612750565b610672565b61022961024c3660046127f1565b6107e8565b61022961025f36600461282d565b61085f565b6102296102723660046127f1565b610a1f565b61022961028536600461287b565b610a3a565b6101fe610298366004612645565b610d28565b610229610d88565b6102b86102b3366004612928565b61105f565b6040519081526020016101cd565b6102296102d4366004612928565b6110e5565b6101de611187565b6102296102ef366004612943565b611196565b6101de610302366004612928565b6111a5565b61031a61031536600461297f565b61123f565b6040516101cd9594939291906129b4565b610229610339366004612a0f565b61141e565b61022961034c366004612a7f565b61145e565b61036461035f36600461297f565b6116b4565b6040516101cd99989796959493929190612b22565b6101de610387366004612645565b61193d565b6102b860075481565b6103d56103a336600461297f565b8051602081830181018051600c8252928201919093012091528054600182015460028301546003909301549192909184565b6040805194855260208501939093529183015260608201526080016101cd565b6101c1610403366004612bae565b6119c5565b6008546101fe906001600160a01b031681565b6101fe610429366004612645565b600d602052600090815260409020546001600160a01b031681565b6102b860065481565b60006001600160e01b031982166380ac58cd60e01b148061047e57506001600160e01b03198216635b5e139f60e01b145b8061049957506301ffc9a760e01b6001600160e01b03198316145b92915050565b6060600080546104ae90612bd8565b80601f01602080910402602001604051908101604052809291908181526020018280546104da90612bd8565b80156105275780601f106104fc57610100808354040283529160200191610527565b820191906000526020600020905b81548152906001019060200180831161050a57829003601f168201915b5050505050905090565b600061053c826119f3565b506000908152600460205260409020546001600160a01b031690565b600061056382610d28565b9050806001600160a01b0316836001600160a01b0316036105d55760405162461bcd60e51b815260206004820152602160248201527f4552433732313a20617070726f76616c20746f2063757272656e74206f776e656044820152603960f91b60648201526084015b60405180910390fd5b336001600160a01b03821614806105f157506105f181336119c5565b6106635760405162461bcd60e51b815260206004820152603d60248201527f4552433732313a20617070726f76652063616c6c6572206973206e6f7420746f60448201527f6b656e206f776e6572206f7220617070726f76656420666f7220616c6c00000060648201526084016105cc565b61066d8383611a55565b505050565b6008546001600160a01b0316331461069c5760405162461bcd60e51b81526004016105cc90612c12565b6000600a836040516106ae9190612c7c565b90815260405190819003602001902080546106c890612bd8565b90501161070f5760405162461bcd60e51b815260206004820152601560248201527414dd1d59195b9d08191bd95cdb9bdd08195e1a5cdd605a1b60448201526064016105cc565b600a8260405161071f9190612c7c565b9081526040519081900360200190206006015460ff16156107a15760405162461bcd60e51b815260206004820152603660248201527f43616e6e6f74206d6f64696679206d61726b73206f6e6365206365727469666960448201527518d85d19481a185cc81899595b8819195c1b1bde595960521b60648201526084016105cc565b80600c836040516107b29190612c7c565b90815260408051602092819003830190208351815591830151600183015582015160028201556060909101516003909101555050565b6107f23382611ac3565b6108545760405162461bcd60e51b815260206004820152602d60248201527f4552433732313a2063616c6c6572206973206e6f7420746f6b656e206f776e6560448201526c1c881bdc88185c1c1c9bdd9959609a1b60648201526084016105cc565b61066d838383611b22565b6008546001600160a01b031633146108895760405162461bcd60e51b81526004016105cc90612c12565b6001600160a01b038116600090815260096020526040902080546108ac90612bd8565b1590506108f25760405162461bcd60e51b815260206004820152601460248201527315d85b1b195d08185b1c9958591e48195e1a5cdd60621b60448201526064016105cc565b6000600a836040516109049190612c7c565b908152604051908190036020019020805461091e90612bd8565b90501161096d5760405162461bcd60e51b815260206004820152601860248201527f53747564656e7420494420646f65736e6f74206578697374000000000000000060448201526064016105cc565b6040518060200160405280600081525060096000600a856040516109919190612c7c565b9081526040805160209281900383019020600101546001600160a01b031683529082019290925201600020906109c79082612ce6565b5080600a836040516109d99190612c7c565b908152604080516020928190038301902060010180546001600160a01b0319166001600160a01b03948516179055918316600090815260099091522061066d8382612ce6565b61066d8383836040518060200160405280600081525061141e565b6008546001600160a01b03163314610a645760405162461bcd60e51b81526004016105cc90612c12565b600a84604051610a749190612c7c565b90815260200160405180910390206007018054610a9090612bd8565b159050610adf5760405162461bcd60e51b815260206004820152601d60248201527f436572746966696361746520616c72656164792067656e65726174656400000060448201526064016105cc565b60006001600160a01b0316600b84604051610afa9190612c7c565b908152604051908190036020019020600201546001600160a01b031614610b715760405162461bcd60e51b815260206004820152602560248201527f43657274696669636174652068617320616c7265616479206265656e206173736044820152641a59db995960da1b60648201526084016105cc565b6000610b7c85611c86565b9050600a85604051610b8e9190612c7c565b908152604051908190036020018120600101546001600160a01b031690600b90610bb9908790612c7c565b908152602001604051809103902060020160006101000a8154816001600160a01b0302191690836001600160a01b0316021790555082600b85604051610bff9190612c7c565b90815260200160405180910390206001019081610c1c9190612ce6565b5081600b85604051610c2e9190612c7c565b90815260200160405180910390206004019081610c4b9190612ce6565b5083600b85604051610c5d9190612c7c565b90815260405190819003602001902090610c779082612ce6565b506001600a86604051610c8a9190612c7c565b908152604051908190036020018120600601805492151560ff19909316929092179091558490600a90610cbe908890612c7c565b90815260200160405180910390206007019081610cdb9190612ce6565b50600a85604051610cec9190612c7c565b908152602001604051809103902060040154600b85604051610d0e9190612c7c565b908152604051908190036020019020600301555050505050565b6000818152600260205260408120546001600160a01b0316806104995760405162461bcd60e51b8152602060048201526018602482015277115490cdcc8c4e881a5b9d985b1a59081d1bdad95b88125160421b60448201526064016105cc565b3360009081526009602052604081208054610da290612bd8565b905011610df15760405162461bcd60e51b815260206004820152601c60248201527f4f4e6c792073747564656e7420616c6c6f77656420746f206d696e740000000060448201526064016105cc565b3360009081526009602052604081208054610e0b90612bd8565b80601f0160208091040260200160405190810160405280929190818152602001828054610e3790612bd8565b8015610e845780601f10610e5957610100808354040283529160200191610e84565b820191906000526020600020905b815481529060010190602001808311610e6757829003601f168201915b505050505090506000600a82604051610e9d9190612c7c565b90815260200160405180910390206007018054610eb990612bd8565b80601f0160208091040260200160405190810160405280929190818152602001828054610ee590612bd8565b8015610f325780601f10610f0757610100808354040283529160200191610f32565b820191906000526020600020905b815481529060010190602001808311610f1557829003601f168201915b505050505090506000600b82604051610f4b9190612c7c565b908152602001604051809103902060030154905060008111610fa75760405162461bcd60e51b81526020600482015260156024820152744e6f7420656c696769626c6520746f20636c61696d60581b60448201526064016105cc565b600a83604051610fb79190612c7c565b9081526040519081900360200190206006015460ff61010090910416156110165760405162461bcd60e51b815260206004820152601360248201527213919508105b1c9958591e4810db185a5b5959606a1b60448201526064016105cc565b6110203382611d0e565b6001600a846040516110329190612c7c565b90815260405190819003602001902060060180549115156101000261ff0019909216919091179055505050565b60006001600160a01b0382166110c95760405162461bcd60e51b815260206004820152602960248201527f4552433732313a2061646472657373207a65726f206973206e6f7420612076616044820152683634b21037bbb732b960b91b60648201526084016105cc565b506001600160a01b031660009081526003602052604090205490565b6008546001600160a01b0316331461110f5760405162461bcd60e51b81526004016105cc90612c12565b6001600160a01b0381166111655760405162461bcd60e51b815260206004820152601860248201527f50726f7669646520612076616c6964206164646472657373000000000000000060448201526064016105cc565b600880546001600160a01b0319166001600160a01b0392909216919091179055565b6060600180546104ae90612bd8565b6111a1338383611d28565b5050565b600960205260009081526040902080546111be90612bd8565b80601f01602080910402602001604051908101604052809291908181526020018280546111ea90612bd8565b80156112375780601f1061120c57610100808354040283529160200191611237565b820191906000526020600020905b81548152906001019060200180831161121a57829003601f168201915b505050505081565b8051602081830181018051600b8252928201919093012091528054819061126590612bd8565b80601f016020809104026020016040519081016040528092919081815260200182805461129190612bd8565b80156112de5780601f106112b3576101008083540402835291602001916112de565b820191906000526020600020905b8154815290600101906020018083116112c157829003601f168201915b5050505050908060010180546112f390612bd8565b80601f016020809104026020016040519081016040528092919081815260200182805461131f90612bd8565b801561136c5780601f106113415761010080835404028352916020019161136c565b820191906000526020600020905b81548152906001019060200180831161134f57829003601f168201915b505050506002830154600384015460048501805494956001600160a01b03909316949193509061139b90612bd8565b80601f01602080910402602001604051908101604052809291908181526020018280546113c790612bd8565b80156114145780601f106113e957610100808354040283529160200191611414565b820191906000526020600020905b8154815290600101906020018083116113f757829003601f168201915b5050505050905085565b60405162461bcd60e51b81526020600482015260156024820152744e4654206e6f6e207472616e736665727261626c6560581b60448201526064016105cc565b6008546001600160a01b031633146114885760405162461bcd60e51b81526004016105cc90612c12565b600a856040516114989190612c7c565b90815260405190819003602001902080546114b290612bd8565b1590506115015760405162461bcd60e51b815260206004820152601b60248201527f53747564656e7420494420616c726561647920656e726f6c6c6564000000000060448201526064016105cc565b6001600160a01b0383166000908152600960205260409020805461152490612bd8565b15905061156a5760405162461bcd60e51b815260206004820152601460248201527315d85b1b195d08185b1c9958591e48195e1a5cdd60621b60448201526064016105cc565b83600a8660405161157b9190612c7c565b908152602001604051809103902060020190816115989190612ce6565b5081600a866040516115aa9190612c7c565b90815260200160405180910390206003018190555084600a866040516115d09190612c7c565b908152604051908190036020019020906115ea9082612ce6565b5080600a866040516115fc9190612c7c565b908152602001604051809103902060050190816116199190612ce6565b5082600a8660405161162b9190612c7c565b908152604080516020928190038301902060010180546001600160a01b0319166001600160a01b0394851617905591851660009081526009909152206116718682612ce6565b506006805490600061168283612dbc565b9190505550600654600a8660405161169a9190612c7c565b908152604051908190036020019020600401555050505050565b8051602081830181018051600a825292820191909301209152805481906116da90612bd8565b80601f016020809104026020016040519081016040528092919081815260200182805461170690612bd8565b80156117535780601f1061172857610100808354040283529160200191611753565b820191906000526020600020905b81548152906001019060200180831161173657829003601f168201915b505050600184015460028501805494956001600160a01b0390921694919350915061177d90612bd8565b80601f01602080910402602001604051908101604052809291908181526020018280546117a990612bd8565b80156117f65780601f106117cb576101008083540402835291602001916117f6565b820191906000526020600020905b8154815290600101906020018083116117d957829003601f168201915b50505050509080600301549080600401549080600501805461181790612bd8565b80601f016020809104026020016040519081016040528092919081815260200182805461184390612bd8565b80156118905780601f1061186557610100808354040283529160200191611890565b820191906000526020600020905b81548152906001019060200180831161187357829003601f168201915b505050506006830154600784018054939460ff80841695610100909404169350916118ba90612bd8565b80601f01602080910402602001604051908101604052809291908181526020018280546118e690612bd8565b80156119335780601f1061190857610100808354040283529160200191611933565b820191906000526020600020905b81548152906001019060200180831161191657829003601f168201915b5050505050905089565b6000818152600260205260409020546060906001600160a01b03166119bc5760405162461bcd60e51b815260206004820152602f60248201527f4552433732314d657461646174613a2055524920717565727920666f72206e6f60448201526e3732bc34b9ba32b73a103a37b5b2b760891b60648201526084016105cc565b61049982611df6565b6001600160a01b03918216600090815260056020908152604080832093909416825291909152205460ff1690565b6000818152600260205260409020546001600160a01b0316611a525760405162461bcd60e51b8152602060048201526018602482015277115490cdcc8c4e881a5b9d985b1a59081d1bdad95b88125160421b60448201526064016105cc565b50565b600081815260046020526040902080546001600160a01b0319166001600160a01b0384169081179091558190611a8a82610d28565b6001600160a01b03167f8c5be1e5ebec7d5bd14f71427d1e84f3dd0314c0f7b2291e5b200ac8c7c3b92560405160405180910390a45050565b600080611acf83610d28565b9050806001600160a01b0316846001600160a01b03161480611af65750611af681856119c5565b80611b1a5750836001600160a01b0316611b0f84610531565b6001600160a01b0316145b949350505050565b826001600160a01b0316611b3582610d28565b6001600160a01b031614611b5b5760405162461bcd60e51b81526004016105cc90612dd5565b6001600160a01b038216611bbd5760405162461bcd60e51b8152602060048201526024808201527f4552433732313a207472616e7366657220746f20746865207a65726f206164646044820152637265737360e01b60648201526084016105cc565b826001600160a01b0316611bd082610d28565b6001600160a01b031614611bf65760405162461bcd60e51b81526004016105cc90612dd5565b600081815260046020908152604080832080546001600160a01b03199081169091556001600160a01b0387811680865260038552838620805460001901905590871680865283862080546001019055868652600290945282852080549092168417909155905184937fddf252ad1be2c89b69c2b068fc378daa952ba7f163c4a11628f55a4df523b3ef91a4505050565b600080600c83604051611c999190612c7c565b90815260408051918290036020908101832060808401835280548085526001820154928501839052600282015493850184905260039091015460608501819052939450600493611ce99190612e1a565b611cf39190612e1a565b611cfd9190612e1a565b611d079190612e2d565b9392505050565b6111a1828260405180602001604052806000815250611fdb565b816001600160a01b0316836001600160a01b031603611d895760405162461bcd60e51b815260206004820152601960248201527f4552433732313a20617070726f766520746f2063616c6c65720000000000000060448201526064016105cc565b6001600160a01b03838116600081815260056020908152604080832094871680845294825291829020805460ff191686151590811790915591519182527f17307eab39ab6107e8899845ad3d59bd9653f200f220920489ca2b5937696c31910160405180910390a3505050565b6000818152600d60209081526040808320546001600160a01b031683526009909152812080546060929190611e2a90612bd8565b80601f0160208091040260200160405190810160405280929190818152602001828054611e5690612bd8565b8015611ea35780601f10611e7857610100808354040283529160200191611ea3565b820191906000526020600020905b815481529060010190602001808311611e8657829003601f168201915b505050505090506000600a82604051611ebc9190612c7c565b90815260200160405180910390206002018054611ed890612bd8565b80601f0160208091040260200160405190810160405280929190818152602001828054611f0490612bd8565b8015611f515780601f10611f2657610100808354040283529160200191611f51565b820191906000526020600020905b815481529060010190602001808311611f3457829003601f168201915b505050505090506000600a83604051611f6a9190612c7c565b9081526020016040518091039020600301549050611fb28183611f8c8861210f565b604051602001611f9e93929190612ea1565b6040516020818303038152906040526122bd565b604051602001611fc29190612f34565b6040516020818303038152906040529350505050919050565b611fe58383612424565b611ff2600084848461200e565b61066d5760405162461bcd60e51b81526004016105cc90612e4f565b60006001600160a01b0384163b1561210457604051630a85bd0160e11b81526001600160a01b0385169063150b7a0290612052903390899088908890600401612f79565b6020604051808303816000875af192505050801561208d575060408051601f3d908101601f1916820190925261208a91810190612fb6565b60015b6120ea573d8080156120bb576040519150601f19603f3d011682016040523d82523d6000602084013e6120c0565b606091505b5080516000036120e25760405162461bcd60e51b81526004016105cc90612e4f565b805181602001fd5b6001600160e01b031916630a85bd0160e11b149050611b1a565b506001949350505050565b6000818152600d60209081526040808320546001600160a01b03168352600990915281208054606092919061214390612bd8565b80601f016020809104026020016040519081016040528092919081815260200182805461216f90612bd8565b80156121bc5780601f10612191576101008083540402835291602001916121bc565b820191906000526020600020905b81548152906001019060200180831161219f57829003601f168201915b505050505090506000600a826040516121d59190612c7c565b908152602001604051809103902060020180546121f190612bd8565b80601f016020809104026020016040519081016040528092919081815260200182805461221d90612bd8565b801561226a5780601f1061223f5761010080835404028352916020019161226a565b820191906000526020600020905b81548152906001019060200180831161224d57829003601f168201915b505050505090506000600a836040516122839190612c7c565b90815260200160405180910390206003015490506122ad8282604051602001611f9e929190612fd3565b604051602001611fc2919061326d565b606081516000036122dc57505060408051602081019091526000815290565b60006040518060600160405280604081526020016132ca604091399050600060038451600261230b9190612e1a565b6123159190612e2d565b6123209060046132b2565b9050600061232f826020612e1a565b67ffffffffffffffff811115612347576123476126a4565b6040519080825280601f01601f191660200182016040528015612371576020820181803683370190505b509050818152600183018586518101602084015b818310156123df5760039283018051603f601282901c811687015160f890811b8552600c83901c8216880151811b6001860152600683901c8216880151811b60028601529116860151901b93820193909352600401612385565b6003895106600181146123f9576002811461240a57612416565b613d3d60f01b600119830152612416565b603d60f81b6000198301525b509398975050505050505050565b6001600160a01b03821661247a5760405162461bcd60e51b815260206004820181905260248201527f4552433732313a206d696e7420746f20746865207a65726f206164647265737360448201526064016105cc565b6000818152600260205260409020546001600160a01b0316156124df5760405162461bcd60e51b815260206004820152601c60248201527f4552433732313a20746f6b656e20616c7265616479206d696e7465640000000060448201526064016105cc565b6000818152600260205260409020546001600160a01b0316156125445760405162461bcd60e51b815260206004820152601c60248201527f4552433732313a20746f6b656e20616c7265616479206d696e7465640000000060448201526064016105cc565b6001600160a01b038216600081815260036020908152604080832080546001019055848352600290915280822080546001600160a01b0319168417905551839291907fddf252ad1be2c89b69c2b068fc378daa952ba7f163c4a11628f55a4df523b3ef908290a45050565b6001600160e01b031981168114611a5257600080fd5b6000602082840312156125d757600080fd5b8135611d07816125af565b60005b838110156125fd5781810151838201526020016125e5565b50506000910152565b6000815180845261261e8160208601602086016125e2565b601f01601f19169290920160200192915050565b602081526000611d076020830184612606565b60006020828403121561265757600080fd5b5035919050565b80356001600160a01b038116811461267557600080fd5b919050565b6000806040838503121561268d57600080fd5b6126968361265e565b946020939093013593505050565b634e487b7160e01b600052604160045260246000fd5b600067ffffffffffffffff808411156126d5576126d56126a4565b604051601f8501601f19908116603f011681019082821181831017156126fd576126fd6126a4565b8160405280935085815286868601111561271657600080fd5b858560208301376000602087830101525050509392505050565b600082601f83011261274157600080fd5b611d07838335602085016126ba565b60008082840360a081121561276457600080fd5b833567ffffffffffffffff8082111561277c57600080fd5b61278887838801612730565b94506080601f198401121561279c57600080fd5b604051925060808301915082821081831117156127bb576127bb6126a4565b50806040525060208401358152604084013560208201526060840135604082015260808401356060820152809150509250929050565b60008060006060848603121561280657600080fd5b61280f8461265e565b925061281d6020850161265e565b9150604084013590509250925092565b6000806040838503121561284057600080fd5b823567ffffffffffffffff81111561285757600080fd5b61286385828601612730565b9250506128726020840161265e565b90509250929050565b6000806000806080858703121561289157600080fd5b843567ffffffffffffffff808211156128a957600080fd5b6128b588838901612730565b955060208701359150808211156128cb57600080fd5b6128d788838901612730565b945060408701359150808211156128ed57600080fd5b6128f988838901612730565b9350606087013591508082111561290f57600080fd5b5061291c87828801612730565b91505092959194509250565b60006020828403121561293a57600080fd5b611d078261265e565b6000806040838503121561295657600080fd5b61295f8361265e565b91506020830135801515811461297457600080fd5b809150509250929050565b60006020828403121561299157600080fd5b813567ffffffffffffffff8111156129a857600080fd5b611b1a84828501612730565b60a0815260006129c760a0830188612606565b82810360208401526129d98188612606565b6001600160a01b03871660408501526060840186905283810360808501529050612a038185612606565b98975050505050505050565b60008060008060808587031215612a2557600080fd5b612a2e8561265e565b9350612a3c6020860161265e565b925060408501359150606085013567ffffffffffffffff811115612a5f57600080fd5b8501601f81018713612a7057600080fd5b61291c878235602084016126ba565b600080600080600060a08688031215612a9757600080fd5b853567ffffffffffffffff80821115612aaf57600080fd5b612abb89838a01612730565b96506020880135915080821115612ad157600080fd5b612add89838a01612730565b9550612aeb6040890161265e565b9450606088013593506080880135915080821115612b0857600080fd5b50612b1588828901612730565b9150509295509295909350565b6000610120808352612b368184018d612606565b6001600160a01b038c16602085015283810360408501529050612b59818b612606565b905088606084015287608084015282810360a0840152612b798188612606565b905085151560c084015284151560e0840152828103610100840152612b9e8185612606565b9c9b505050505050505050505050565b60008060408385031215612bc157600080fd5b612bca8361265e565b91506128726020840161265e565b600181811c90821680612bec57607f821691505b602082108103612c0c57634e487b7160e01b600052602260045260246000fd5b50919050565b6020808252602e908201527f4f6e6c79207468652061646d696e20697320616c6c6f77656420746f2063616c60408201526d36103a343290333ab731ba34b7b760911b606082015260800190565b60008151612c728185602086016125e2565b9290920192915050565b60008251612c8e8184602087016125e2565b9190910192915050565b601f82111561066d57600081815260208120601f850160051c81016020861015612cbf5750805b601f850160051c820191505b81811015612cde57828155600101612ccb565b505050505050565b815167ffffffffffffffff811115612d0057612d006126a4565b612d1481612d0e8454612bd8565b84612c98565b602080601f831160018114612d495760008415612d315750858301515b600019600386901b1c1916600185901b178555612cde565b600085815260208120601f198616915b82811015612d7857888601518255948401946001909101908401612d59565b5085821015612d965787850151600019600388901b60f8161c191681555b5050505050600190811b01905550565b634e487b7160e01b600052601160045260246000fd5b600060018201612dce57612dce612da6565b5060010190565b60208082526025908201527f4552433732313a207472616e736665722066726f6d20696e636f72726563742060408201526437bbb732b960d91b606082015260800190565b8082018082111561049957610499612da6565b600082612e4a57634e487b7160e01b600052601260045260246000fd5b500490565b60208082526032908201527f4552433732313a207472616e7366657220746f206e6f6e20455243373231526560408201527131b2b4bb32b91034b6b83632b6b2b73a32b960711b606082015260800190565b6b3d912130ba31b427b3111d1160a11b8152600c8101849052711116101139ba3ab232b73a2730b6b2911d1160711b602c8201528251600090612eeb81603e8501602088016125e2565b6c1116101134b6b0b3b2911d101160991b603e918401918201528351612f1881604b8401602088016125e2565b61227d60f01b604b9290910191820152604d0195945050505050565b7f646174613a6170706c69636174696f6e2f6a736f6e3b6261736536342c000000815260008251612f6c81601d8501602087016125e2565b91909101601d0192915050565b6001600160a01b0385811682528416602082015260408101839052608060608201819052600090612fac90830184612606565b9695505050505050565b600060208284031215612fc857600080fd5b8151611d07816125af565b7f3c7376672077696474683d2233353622206865696768743d223539302220786d81527f6c6e733d22687474703a2f2f7777772e77332e6f72672f323030302f7376672260208201527f20786d6c6e733a786c696e6b3d22687474703a2f2f7777772e77332e6f72672f60408201526b189c9c9c97bc3634b735911f60a11b60608201527f3c696d61676520786c696e6b3a687265663d2268747470733a2f2f697066732e606c8201527f66696c65626173652e696f2f697066732f516d5a503347793948387a77463833608c8201527f426969676b55695239556341317072516770786a667244775056774c4531462260ac8201527f20783d22302220793d2230222077696474683d2233353622206865696768743d60cc82015267111a9c981110179f60c11b60ec8201527f3c7465787420783d223530252220793d2236342e35252220646f6d696e616e7460f48201527f2d626173656c696e653d226d6964646c65222066696c6c3d226e616d617374656101148201527f2220746578742d616e63686f723d226d6964646c652220666f6e742d73697a65610134820152651e91191a911f60d11b61015482015260006132416131ad61319a61015a850187612c60565b661e17ba32bc3a1f60c91b815260070190565b7f3c7465787420783d223633252220793d223830252220646f6d696e616e742d6281527f6173656c696e653d226d6964646c65222066696c6c3d226e616d61737465222060208201527f746578742d616e63686f723d226d6964646c652220666f6e742d73697a653d22604082015275191811103337b73a16bbb2b4b3b43a1e911b1818111f60511b606082015260760190565b9283525050661e17ba32bc3a1f60c91b6020820152651e17b9bb339f60d11b6027820152602d01919050565b7f646174613a696d6167652f7376672b786d6c3b6261736536342c0000000000008152600082516132a581601a8501602087016125e2565b91909101601a0192915050565b808202811582820484141761049957610499612da656fe4142434445464748494a4b4c4d4e4f505152535455565758595a6162636465666768696a6b6c6d6e6f707172737475767778797a303132333435363738392b2fa264697066735822122033e21495d46c31f515981bbe6eb8c3880bd0d3fa159946a9899d6f0f17f0724b64736f6c63430008120033",
  "linkReferences": {},
  "deployedLinkReferences": {}
}