{
  "_format": "hh-sol-artifact-1",
  "contractName": "Certify",
  "sourceName": "contracts/Certify.sol",
  "abi": [
    {
      "inputs": [],
      "stateMutability": "nonpayable",
      "type": "constructor"
    },
    {
      "anonymous": false,
      "inputs": [
        {
          "indexed": true,
          "internalType": "address",
          "name": "owner",
          "type": "address"
        },
        {
          "indexed": true,
          "internalType": "address",
          "name": "approved",
          "type": "address"
        },
        {
          "indexed": true,
          "internalType": "uint256",
          "name": "tokenId",
          "type": "uint256"
        }
      ],
      "name": "Approval",
      "type": "event"
    },
    {
      "anonymous": false,
      "inputs": [
        {
          "indexed": true,
          "internalType": "address",
          "name": "owner",
          "type": "address"
        },
        {
          "indexed": true,
          "internalType": "address",
          "name": "operator",
          "type": "address"
        },
        {
          "indexed": false,
          "internalType": "bool",
          "name": "approved",
          "type": "bool"
        }
      ],
      "name": "ApprovalForAll",
      "type": "event"
    },
    {
      "anonymous": false,
      "inputs": [
        {
          "indexed": true,
          "internalType": "address",
          "name": "from",
          "type": "address"
        },
        {
          "indexed": true,
          "internalType": "address",
          "name": "to",
          "type": "address"
        },
        {
          "indexed": true,
          "internalType": "uint256",
          "name": "tokenId",
          "type": "uint256"
        }
      ],
      "name": "Transfer",
      "type": "event"
    },
    {
      "inputs": [
        {
          "internalType": "string",
          "name": "_studentId",
          "type": "string"
        },
        {
          "internalType": "string",
          "name": "_certificateId",
          "type": "string"
        },
        {
          "internalType": "string",
          "name": "_imageHash",
          "type": "string"
        },
        {
          "internalType": "string",
          "name": "_generatedDate",
          "type": "string"
        }
      ],
      "name": "addStudentCertificate",
      "outputs": [],
      "stateMutability": "nonpayable",
      "type": "function"
    },
    {
      "inputs": [],
      "name": "admin",
      "outputs": [
        {
          "internalType": "address",
          "name": "",
          "type": "address"
        }
      ],
      "stateMutability": "view",
      "type": "function"
    },
    {
      "inputs": [
        {
          "internalType": "address",
          "name": "to",
          "type": "address"
        },
        {
          "internalType": "uint256",
          "name": "tokenId",
          "type": "uint256"
        }
      ],
      "name": "approve",
      "outputs": [],
      "stateMutability": "nonpayable",
      "type": "function"
    },
    {
      "inputs": [
        {
          "internalType": "address",
          "name": "owner",
          "type": "address"
        }
      ],
      "name": "balanceOf",
      "outputs": [
        {
          "internalType": "uint256",
          "name": "",
          "type": "uint256"
        }
      ],
      "stateMutability": "view",
      "type": "function"
    },
    {
      "inputs": [
        {
          "internalType": "address",
          "name": "newAdmin",
          "type": "address"
        }
      ],
      "name": "changeAdmin",
      "outputs": [],
      "stateMutability": "nonpayable",
      "type": "function"
    },
    {
      "inputs": [
        {
          "internalType": "string",
          "name": "_studentId",
          "type": "string"
        },
        {
          "internalType": "address",
          "name": "_stuWallet",
          "type": "address"
        }
      ],
      "name": "changeStudentWalletAddress",
      "outputs": [],
      "stateMutability": "nonpayable",
      "type": "function"
    },
    {
      "inputs": [],
      "name": "claimNFT",
      "outputs": [],
      "stateMutability": "nonpayable",
      "type": "function"
    },
    {
      "inputs": [
        {
          "internalType": "string",
          "name": "_studentId",
          "type": "string"
        },
        {
          "internalType": "string",
          "name": "_stuName",
          "type": "string"
        },
        {
          "internalType": "address",
          "name": "_stuWallet",
          "type": "address"
        },
        {
          "internalType": "uint256",
          "name": "_enrolledYear",
          "type": "uint256"
        },
        {
          "internalType": "string",
          "name": "_enrolledProgram",
          "type": "string"
        }
      ],
      "name": "enrollStudent",
      "outputs": [],
      "stateMutability": "nonpayable",
      "type": "function"
    },
    {
      "inputs": [
        {
          "internalType": "uint256",
          "name": "tokenId",
          "type": "uint256"
        }
      ],
      "name": "getApproved",
      "outputs": [
        {
          "internalType": "address",
          "name": "",
          "type": "address"
        }
      ],
      "stateMutability": "view",
      "type": "function"
    },
    {
      "inputs": [
        {
          "internalType": "address",
          "name": "owner",
          "type": "address"
        },
        {
          "internalType": "address",
          "name": "operator",
          "type": "address"
        }
      ],
      "name": "isApprovedForAll",
      "outputs": [
        {
          "internalType": "bool",
          "name": "",
          "type": "bool"
        }
      ],
      "stateMutability": "view",
      "type": "function"
    },
    {
      "inputs": [],
      "name": "name",
      "outputs": [
        {
          "internalType": "string",
          "name": "",
          "type": "string"
        }
      ],
      "stateMutability": "view",
      "type": "function"
    },
    {
      "inputs": [
        {
          "internalType": "uint256",
          "name": "tokenId",
          "type": "uint256"
        }
      ],
      "name": "ownerOf",
      "outputs": [
        {
          "internalType": "address",
          "name": "",
          "type": "address"
        }
      ],
      "stateMutability": "view",
      "type": "function"
    },
    {
      "inputs": [
        {
          "internalType": "address",
          "name": "from",
          "type": "address"
        },
        {
          "internalType": "address",
          "name": "to",
          "type": "address"
        },
        {
          "internalType": "uint256",
          "name": "tokenId",
          "type": "uint256"
        }
      ],
      "name": "safeTransferFrom",
      "outputs": [],
      "stateMutability": "nonpayable",
      "type": "function"
    },
    {
      "inputs": [
        {
          "internalType": "address",
          "name": "from",
          "type": "address"
        },
        {
          "internalType": "address",
          "name": "to",
          "type": "address"
        },
        {
          "internalType": "uint256",
          "name": "tokenId",
          "type": "uint256"
        },
        {
          "internalType": "bytes",
          "name": "data",
          "type": "bytes"
        }
      ],
      "name": "safeTransferFrom",
      "outputs": [],
      "stateMutability": "nonpayable",
      "type": "function"
    },
    {
      "inputs": [
        {
          "internalType": "address",
          "name": "operator",
          "type": "address"
        },
        {
          "internalType": "bool",
          "name": "approved",
          "type": "bool"
        }
      ],
      "name": "setApprovalForAll",
      "outputs": [],
      "stateMutability": "nonpayable",
      "type": "function"
    },
    {
      "inputs": [
        {
          "internalType": "string",
          "name": "",
          "type": "string"
        }
      ],
      "name": "studentAcademics",
      "outputs": [
        {
          "internalType": "uint256",
          "name": "firstYearPercent",
          "type": "uint256"
        },
        {
          "internalType": "uint256",
          "name": "secondYearPercent",
          "type": "uint256"
        },
        {
          "internalType": "uint256",
          "name": "thirdYearPercent",
          "type": "uint256"
        },
        {
          "internalType": "uint256",
          "name": "finalYearPercent",
          "type": "uint256"
        }
      ],
      "stateMutability": "view",
      "type": "function"
    },
    {
      "inputs": [
        {
          "internalType": "string",
          "name": "",
          "type": "string"
        }
      ],
      "name": "studentCertificates",
      "outputs": [
        {
          "internalType": "string",
          "name": "certificateId",
          "type": "string"
        },
        {
          "internalType": "string",
          "name": "imageHash",
          "type": "string"
        },
        {
          "internalType": "address",
          "name": "ownerAddress",
          "type": "address"
        },
        {
          "internalType": "uint256",
          "name": "tokenId",
          "type": "uint256"
        },
        {
          "internalType": "string",
          "name": "generatedDate",
          "type": "string"
        }
      ],
      "stateMutability": "view",
      "type": "function"
    },
    {
      "inputs": [
        {
          "internalType": "address",
          "name": "",
          "type": "address"
        }
      ],
      "name": "studentWallets",
      "outputs": [
        {
          "internalType": "string",
          "name": "",
          "type": "string"
        }
      ],
      "stateMutability": "view",
      "type": "function"
    },
    {
      "inputs": [
        {
          "internalType": "string",
          "name": "",
          "type": "string"
        }
      ],
      "name": "students",
      "outputs": [
        {
          "internalType": "string",
          "name": "stuId",
          "type": "string"
        },
        {
          "internalType": "address",
          "name": "stuWallet",
          "type": "address"
        },
        {
          "internalType": "string",
          "name": "stuName",
          "type": "string"
        },
        {
          "internalType": "uint256",
          "name": "enrolledYear",
          "type": "uint256"
        },
        {
          "internalType": "uint256",
          "name": "enrolledIndex",
          "type": "uint256"
        },
        {
          "internalType": "string",
          "name": "enrolledProgram",
          "type": "string"
        },
        {
          "internalType": "bool",
          "name": "isGraduated",
          "type": "bool"
        },
        {
          "internalType": "bool",
          "name": "hasClaimedCertificate",
          "type": "bool"
        },
        {
          "internalType": "string",
          "name": "certificateId",
          "type": "string"
        }
      ],
      "stateMutability": "view",
      "type": "function"
    },
    {
      "inputs": [
        {
          "internalType": "bytes4",
          "name": "interfaceId",
          "type": "bytes4"
        }
      ],
      "name": "supportsInterface",
      "outputs": [
        {
          "internalType": "bool",
          "name": "",
          "type": "bool"
        }
      ],
      "stateMutability": "view",
      "type": "function"
    },
    {
      "inputs": [],
      "name": "symbol",
      "outputs": [
        {
          "internalType": "string",
          "name": "",
          "type": "string"
        }
      ],
      "stateMutability": "view",
      "type": "function"
    },
    {
      "inputs": [
        {
          "internalType": "uint256",
          "name": "",
          "type": "uint256"
        }
      ],
      "name": "tokenOwners",
      "outputs": [
        {
          "internalType": "address",
          "name": "",
          "type": "address"
        }
      ],
      "stateMutability": "view",
      "type": "function"
    },
    {
      "inputs": [
        {
          "internalType": "uint256",
          "name": "_tokenId",
          "type": "uint256"
        }
      ],
      "name": "tokenURI",
      "outputs": [
        {
          "internalType": "string",
          "name": "",
          "type": "string"
        }
      ],
      "stateMutability": "view",
      "type": "function"
    },
    {
      "inputs": [],
      "name": "totalStudentsEnrolled",
      "outputs": [
        {
          "internalType": "uint256",
          "name": "",
          "type": "uint256"
        }
      ],
      "stateMutability": "view",
      "type": "function"
    },
    {
      "inputs": [
        {
          "internalType": "address",
          "name": "from",
          "type": "address"
        },
        {
          "internalType": "address",
          "name": "to",
          "type": "address"
        },
        {
          "internalType": "uint256",
          "name": "tokenId",
          "type": "uint256"
        }
      ],
      "name": "transferFrom",
      "outputs": [],
      "stateMutability": "nonpayable",
      "type": "function"
    },
    {
      "inputs": [
        {
          "internalType": "string",
          "name": "_studentId",
          "type": "string"
        },
        {
          "components": [
            {
              "internalType": "uint256",
              "name": "firstYearPercent",
              "type": "uint256"
            },
            {
              "internalType": "uint256",
              "name": "secondYearPercent",
              "type": "uint256"
            },
            {
              "internalType": "uint256",
              "name": "thirdYearPercent",
              "type": "uint256"
            },
            {
              "internalType": "uint256",
              "name": "finalYearPercent",
              "type": "uint256"
            }
          ],
          "internalType": "struct Certify.Academics",
          "name": "_studentAcademics",
          "type": "tuple"
        }
      ],
      "name": "updateAcademics",
      "outputs": [],
      "stateMutability": "nonpayable",
      "type": "function"
    },
    {
      "inputs": [],
      "name": "usedDecimalPoints",
      "outputs": [
        {
          "internalType": "uint256",
          "name": "",
          "type": "uint256"
        }
      ],
      "stateMutability": "view",
      "type": "function"
    }
  ],
  "bytecode": "0x6080604052600060065560026007553480156200001b57600080fd5b50604051806040016040528060078152602001664365727469667960c81b8152506040518060400160405280600381526020016221a2a960e91b815250816000908162000069919062000138565b50600162000078828262000138565b5050600880546001600160a01b031916331790555062000204565b634e487b7160e01b600052604160045260246000fd5b600181811c90821680620000be57607f821691505b602082108103620000df57634e487b7160e01b600052602260045260246000fd5b50919050565b601f8211156200013357600081815260208120601f850160051c810160208610156200010e5750805b601f850160051c820191505b818110156200012f578281556001016200011a565b5050505b505050565b81516001600160401b0381111562000154576200015462000093565b6200016c81620001658454620000a9565b84620000e5565b602080601f831160018114620001a457600084156200018b5750858301515b600019600386901b1c1916600185901b1785556200012f565b600085815260208120601f198616915b82811015620001d557888601518255948401946001909101908401620001b4565b5085821015620001f45787850151600019600388901b60f8161c191681555b5050505050600190811b01905550565b61346880620002146000396000f3fe608060405234801561001057600080fd5b50600436106101a95760003560e01c806395d89b41116100f9578063c87b56dd11610097578063e985e9c511610071578063e985e9c5146103f5578063f851a44014610408578063f8a14f461461041b578063fcda73ec1461044457600080fd5b8063c87b56dd14610379578063cc2078851461038c578063e59eed281461039557600080fd5b8063b82e47b6116100d3578063b82e47b614610307578063b88d4fde1461032b578063c191ca831461033e578063c7ef6bfb1461035157600080fd5b806395d89b41146102d9578063a22cb465146102e1578063aaaedf01146102f457600080fd5b80633ae5443e116101665780636352211e116101405780636352211e1461028a578063672756ad1461029d57806370a08231146102a55780638f283970146102c657600080fd5b80633ae5443e1461025157806342842e0e1461026457806348b3daef1461027757600080fd5b806301ffc9a7146101ae57806306fdde03146101d6578063081812fc146101eb578063095ea7b3146102165780630f5981b51461022b57806323b872dd1461023e575b600080fd5b6101c16101bc3660046125c1565b61044d565b60405190151581526020015b60405180910390f35b6101de61049f565b6040516101cd919061262e565b6101fe6101f9366004612641565b610531565b6040516001600160a01b0390911681526020016101cd565b610229610224366004612676565b610558565b005b61022961023936600461274c565b610672565b61022961024c3660046127ed565b6107e8565b61022961025f366004612829565b61085f565b6102296102723660046127ed565b610a1f565b610229610285366004612877565b610a3a565b6101fe610298366004612641565b610d28565b610229610d88565b6102b86102b3366004612924565b61105f565b6040519081526020016101cd565b6102296102d4366004612924565b6110e5565b6101de611187565b6102296102ef36600461293f565b611196565b6101de610302366004612924565b6111a5565b61031a61031536600461297b565b61123f565b6040516101cd9594939291906129b0565b610229610339366004612a0b565b61141e565b61022961034c366004612a7b565b61145e565b61036461035f36600461297b565b6116b4565b6040516101cd99989796959493929190612b1e565b6101de610387366004612641565b61193d565b6102b860075481565b6103d56103a336600461297b565b8051602081830181018051600c8252928201919093012091528054600182015460028301546003909301549192909184565b6040805194855260208501939093529183015260608201526080016101cd565b6101c1610403366004612baa565b6119c5565b6008546101fe906001600160a01b031681565b6101fe610429366004612641565b600d602052600090815260409020546001600160a01b031681565b6102b860065481565b60006001600160e01b031982166380ac58cd60e01b148061047e57506001600160e01b03198216635b5e139f60e01b145b8061049957506301ffc9a760e01b6001600160e01b03198316145b92915050565b6060600080546104ae90612bd4565b80601f01602080910402602001604051908101604052809291908181526020018280546104da90612bd4565b80156105275780601f106104fc57610100808354040283529160200191610527565b820191906000526020600020905b81548152906001019060200180831161050a57829003601f168201915b5050505050905090565b600061053c826119f3565b506000908152600460205260409020546001600160a01b031690565b600061056382610d28565b9050806001600160a01b0316836001600160a01b0316036105d55760405162461bcd60e51b815260206004820152602160248201527f4552433732313a20617070726f76616c20746f2063757272656e74206f776e656044820152603960f91b60648201526084015b60405180910390fd5b336001600160a01b03821614806105f157506105f181336119c5565b6106635760405162461bcd60e51b815260206004820152603d60248201527f4552433732313a20617070726f76652063616c6c6572206973206e6f7420746f60448201527f6b656e206f776e6572206f7220617070726f76656420666f7220616c6c00000060648201526084016105cc565b61066d8383611a55565b505050565b6008546001600160a01b0316331461069c5760405162461bcd60e51b81526004016105cc90612c0e565b6000600a836040516106ae9190612c78565b90815260405190819003602001902080546106c890612bd4565b90501161070f5760405162461bcd60e51b815260206004820152601560248201527414dd1d59195b9d08191bd95cdb9bdd08195e1a5cdd605a1b60448201526064016105cc565b600a8260405161071f9190612c78565b9081526040519081900360200190206006015460ff16156107a15760405162461bcd60e51b815260206004820152603660248201527f43616e6e6f74206d6f64696679206d61726b73206f6e6365206365727469666960448201527518d85d19481a185cc81899595b8819195c1b1bde595960521b60648201526084016105cc565b80600c836040516107b29190612c78565b90815260408051602092819003830190208351815591830151600183015582015160028201556060909101516003909101555050565b6107f23382611ac3565b6108545760405162461bcd60e51b815260206004820152602d60248201527f4552433732313a2063616c6c6572206973206e6f7420746f6b656e206f776e6560448201526c1c881bdc88185c1c1c9bdd9959609a1b60648201526084016105cc565b61066d838383611b22565b6008546001600160a01b031633146108895760405162461bcd60e51b81526004016105cc90612c0e565b6001600160a01b038116600090815260096020526040902080546108ac90612bd4565b1590506108f25760405162461bcd60e51b815260206004820152601460248201527315d85b1b195d08185b1c9958591e48195e1a5cdd60621b60448201526064016105cc565b6000600a836040516109049190612c78565b908152604051908190036020019020805461091e90612bd4565b90501161096d5760405162461bcd60e51b815260206004820152601860248201527f53747564656e7420494420646f65736e6f74206578697374000000000000000060448201526064016105cc565b6040518060200160405280600081525060096000600a856040516109919190612c78565b9081526040805160209281900383019020600101546001600160a01b031683529082019290925201600020906109c79082612ce2565b5080600a836040516109d99190612c78565b908152604080516020928190038301902060010180546001600160a01b0319166001600160a01b03948516179055918316600090815260099091522061066d8382612ce2565b61066d8383836040518060200160405280600081525061141e565b6008546001600160a01b03163314610a645760405162461bcd60e51b81526004016105cc90612c0e565b600a84604051610a749190612c78565b90815260200160405180910390206007018054610a9090612bd4565b159050610adf5760405162461bcd60e51b815260206004820152601d60248201527f436572746966696361746520616c72656164792067656e65726174656400000060448201526064016105cc565b60006001600160a01b0316600b84604051610afa9190612c78565b908152604051908190036020019020600201546001600160a01b031614610b715760405162461bcd60e51b815260206004820152602560248201527f43657274696669636174652068617320616c7265616479206265656e206173736044820152641a59db995960da1b60648201526084016105cc565b6000610b7c85611c86565b9050600a85604051610b8e9190612c78565b908152604051908190036020018120600101546001600160a01b031690600b90610bb9908790612c78565b908152602001604051809103902060020160006101000a8154816001600160a01b0302191690836001600160a01b0316021790555082600b85604051610bff9190612c78565b90815260200160405180910390206001019081610c1c9190612ce2565b5081600b85604051610c2e9190612c78565b90815260200160405180910390206004019081610c4b9190612ce2565b5083600b85604051610c5d9190612c78565b90815260405190819003602001902090610c779082612ce2565b506001600a86604051610c8a9190612c78565b908152604051908190036020018120600601805492151560ff19909316929092179091558490600a90610cbe908890612c78565b90815260200160405180910390206007019081610cdb9190612ce2565b50600a85604051610cec9190612c78565b908152602001604051809103902060040154600b85604051610d0e9190612c78565b908152604051908190036020019020600301555050505050565b6000818152600260205260408120546001600160a01b0316806104995760405162461bcd60e51b8152602060048201526018602482015277115490cdcc8c4e881a5b9d985b1a59081d1bdad95b88125160421b60448201526064016105cc565b3360009081526009602052604081208054610da290612bd4565b905011610df15760405162461bcd60e51b815260206004820152601c60248201527f4f4e6c792073747564656e7420616c6c6f77656420746f206d696e740000000060448201526064016105cc565b3360009081526009602052604081208054610e0b90612bd4565b80601f0160208091040260200160405190810160405280929190818152602001828054610e3790612bd4565b8015610e845780601f10610e5957610100808354040283529160200191610e84565b820191906000526020600020905b815481529060010190602001808311610e6757829003601f168201915b505050505090506000600a82604051610e9d9190612c78565b90815260200160405180910390206007018054610eb990612bd4565b80601f0160208091040260200160405190810160405280929190818152602001828054610ee590612bd4565b8015610f325780601f10610f0757610100808354040283529160200191610f32565b820191906000526020600020905b815481529060010190602001808311610f1557829003601f168201915b505050505090506000600b82604051610f4b9190612c78565b908152602001604051809103902060030154905060008111610fa75760405162461bcd60e51b81526020600482015260156024820152744e6f7420656c696769626c6520746f20636c61696d60581b60448201526064016105cc565b600a83604051610fb79190612c78565b9081526040519081900360200190206006015460ff61010090910416156110165760405162461bcd60e51b815260206004820152601360248201527213919508105b1c9958591e4810db185a5b5959606a1b60448201526064016105cc565b6110203382611d0e565b6001600a846040516110329190612c78565b90815260405190819003602001902060060180549115156101000261ff0019909216919091179055505050565b60006001600160a01b0382166110c95760405162461bcd60e51b815260206004820152602960248201527f4552433732313a2061646472657373207a65726f206973206e6f7420612076616044820152683634b21037bbb732b960b91b60648201526084016105cc565b506001600160a01b031660009081526003602052604090205490565b6008546001600160a01b0316331461110f5760405162461bcd60e51b81526004016105cc90612c0e565b6001600160a01b0381166111655760405162461bcd60e51b815260206004820152601860248201527f50726f7669646520612076616c6964206164646472657373000000000000000060448201526064016105cc565b600880546001600160a01b0319166001600160a01b0392909216919091179055565b6060600180546104ae90612bd4565b6111a1338383611d28565b5050565b600960205260009081526040902080546111be90612bd4565b80601f01602080910402602001604051908101604052809291908181526020018280546111ea90612bd4565b80156112375780601f1061120c57610100808354040283529160200191611237565b820191906000526020600020905b81548152906001019060200180831161121a57829003601f168201915b505050505081565b8051602081830181018051600b8252928201919093012091528054819061126590612bd4565b80601f016020809104026020016040519081016040528092919081815260200182805461129190612bd4565b80156112de5780601f106112b3576101008083540402835291602001916112de565b820191906000526020600020905b8154815290600101906020018083116112c157829003601f168201915b5050505050908060010180546112f390612bd4565b80601f016020809104026020016040519081016040528092919081815260200182805461131f90612bd4565b801561136c5780601f106113415761010080835404028352916020019161136c565b820191906000526020600020905b81548152906001019060200180831161134f57829003601f168201915b505050506002830154600384015460048501805494956001600160a01b03909316949193509061139b90612bd4565b80601f01602080910402602001604051908101604052809291908181526020018280546113c790612bd4565b80156114145780601f106113e957610100808354040283529160200191611414565b820191906000526020600020905b8154815290600101906020018083116113f757829003601f168201915b5050505050905085565b60405162461bcd60e51b81526020600482015260156024820152744e4654206e6f6e207472616e736665727261626c6560581b60448201526064016105cc565b6008546001600160a01b031633146114885760405162461bcd60e51b81526004016105cc90612c0e565b600a856040516114989190612c78565b90815260405190819003602001902080546114b290612bd4565b1590506115015760405162461bcd60e51b815260206004820152601b60248201527f53747564656e7420494420616c726561647920656e726f6c6c6564000000000060448201526064016105cc565b6001600160a01b0383166000908152600960205260409020805461152490612bd4565b15905061156a5760405162461bcd60e51b815260206004820152601460248201527315d85b1b195d08185b1c9958591e48195e1a5cdd60621b60448201526064016105cc565b83600a8660405161157b9190612c78565b908152602001604051809103902060020190816115989190612ce2565b5081600a866040516115aa9190612c78565b90815260200160405180910390206003018190555084600a866040516115d09190612c78565b908152604051908190036020019020906115ea9082612ce2565b5080600a866040516115fc9190612c78565b908152602001604051809103902060050190816116199190612ce2565b5082600a8660405161162b9190612c78565b908152604080516020928190038301902060010180546001600160a01b0319166001600160a01b0394851617905591851660009081526009909152206116718682612ce2565b506006805490600061168283612db8565b9190505550600654600a8660405161169a9190612c78565b908152604051908190036020019020600401555050505050565b8051602081830181018051600a825292820191909301209152805481906116da90612bd4565b80601f016020809104026020016040519081016040528092919081815260200182805461170690612bd4565b80156117535780601f1061172857610100808354040283529160200191611753565b820191906000526020600020905b81548152906001019060200180831161173657829003601f168201915b505050600184015460028501805494956001600160a01b0390921694919350915061177d90612bd4565b80601f01602080910402602001604051908101604052809291908181526020018280546117a990612bd4565b80156117f65780601f106117cb576101008083540402835291602001916117f6565b820191906000526020600020905b8154815290600101906020018083116117d957829003601f168201915b50505050509080600301549080600401549080600501805461181790612bd4565b80601f016020809104026020016040519081016040528092919081815260200182805461184390612bd4565b80156118905780601f1061186557610100808354040283529160200191611890565b820191906000526020600020905b81548152906001019060200180831161187357829003601f168201915b505050506006830154600784018054939460ff80841695610100909404169350916118ba90612bd4565b80601f01602080910402602001604051908101604052809291908181526020018280546118e690612bd4565b80156119335780601f1061190857610100808354040283529160200191611933565b820191906000526020600020905b81548152906001019060200180831161191657829003601f168201915b5050505050905089565b6000818152600260205260409020546060906001600160a01b03166119bc5760405162461bcd60e51b815260206004820152602f60248201527f4552433732314d657461646174613a2055524920717565727920666f72206e6f60448201526e3732bc34b9ba32b73a103a37b5b2b760891b60648201526084016105cc565b61049982611df6565b6001600160a01b03918216600090815260056020908152604080832093909416825291909152205460ff1690565b6000818152600260205260409020546001600160a01b0316611a525760405162461bcd60e51b8152602060048201526018602482015277115490cdcc8c4e881a5b9d985b1a59081d1bdad95b88125160421b60448201526064016105cc565b50565b600081815260046020526040902080546001600160a01b0319166001600160a01b0384169081179091558190611a8a82610d28565b6001600160a01b03167f8c5be1e5ebec7d5bd14f71427d1e84f3dd0314c0f7b2291e5b200ac8c7c3b92560405160405180910390a45050565b600080611acf83610d28565b9050806001600160a01b0316846001600160a01b03161480611af65750611af681856119c5565b80611b1a5750836001600160a01b0316611b0f84610531565b6001600160a01b0316145b949350505050565b826001600160a01b0316611b3582610d28565b6001600160a01b031614611b5b5760405162461bcd60e51b81526004016105cc90612dd1565b6001600160a01b038216611bbd5760405162461bcd60e51b8152602060048201526024808201527f4552433732313a207472616e7366657220746f20746865207a65726f206164646044820152637265737360e01b60648201526084016105cc565b826001600160a01b0316611bd082610d28565b6001600160a01b031614611bf65760405162461bcd60e51b81526004016105cc90612dd1565b600081815260046020908152604080832080546001600160a01b03199081169091556001600160a01b0387811680865260038552838620805460001901905590871680865283862080546001019055868652600290945282852080549092168417909155905184937fddf252ad1be2c89b69c2b068fc378daa952ba7f163c4a11628f55a4df523b3ef91a4505050565b600080600c83604051611c999190612c78565b90815260408051918290036020908101832060808401835280548085526001820154928501839052600282015493850184905260039091015460608501819052939450600493611ce99190612e16565b611cf39190612e16565b611cfd9190612e16565b611d079190612e29565b9392505050565b6111a1828260405180602001604052806000815250611fd9565b816001600160a01b0316836001600160a01b031603611d895760405162461bcd60e51b815260206004820152601960248201527f4552433732313a20617070726f766520746f2063616c6c65720000000000000060448201526064016105cc565b6001600160a01b03838116600081815260056020908152604080832094871680845294825291829020805460ff191686151590811790915591519182527f17307eab39ab6107e8899845ad3d59bd9653f200f220920489ca2b5937696c31910160405180910390a3505050565b6000818152600d60209081526040808320546001600160a01b031683526009909152812080546060929190611e2a90612bd4565b80601f0160208091040260200160405190810160405280929190818152602001828054611e5690612bd4565b8015611ea35780601f10611e7857610100808354040283529160200191611ea3565b820191906000526020600020905b815481529060010190602001808311611e8657829003601f168201915b505050505090506000600a82604051611ebc9190612c78565b90815260200160405180910390206002018054611ed890612bd4565b80601f0160208091040260200160405190810160405280929190818152602001828054611f0490612bd4565b8015611f515780601f10611f2657610100808354040283529160200191611f51565b820191906000526020600020905b815481529060010190602001808311611f3457829003601f168201915b505050505090506000600a83604051611f6a9190612c78565b9081526020016040518091039020600301549050611fb082611f8b8761210d565b604051602001611f9c929190612e9d565b6040516020818303038152906040526122b9565b604051602001611fc09190612f11565b6040516020818303038152906040529350505050919050565b611fe38383612420565b611ff0600084848461200c565b61066d5760405162461bcd60e51b81526004016105cc90612e4b565b60006001600160a01b0384163b1561210257604051630a85bd0160e11b81526001600160a01b0385169063150b7a0290612050903390899088908890600401612f56565b6020604051808303816000875af192505050801561208b575060408051601f3d908101601f1916820190925261208891810190612f93565b60015b6120e8573d8080156120b9576040519150601f19603f3d011682016040523d82523d6000602084013e6120be565b606091505b5080516000036120e05760405162461bcd60e51b81526004016105cc90612e4b565b805181602001fd5b6001600160e01b031916630a85bd0160e11b149050611b1a565b506001949350505050565b6000818152600d60209081526040808320546001600160a01b03168352600990915281208054606092919061214190612bd4565b80601f016020809104026020016040519081016040528092919081815260200182805461216d90612bd4565b80156121ba5780601f1061218f576101008083540402835291602001916121ba565b820191906000526020600020905b81548152906001019060200180831161219d57829003601f168201915b505050505090506000600a826040516121d39190612c78565b908152602001604051809103902060020180546121ef90612bd4565b80601f016020809104026020016040519081016040528092919081815260200182805461221b90612bd4565b80156122685780601f1061223d57610100808354040283529160200191612268565b820191906000526020600020905b81548152906001019060200180831161224b57829003601f168201915b505050505090506000600a836040516122819190612c78565b90815260200160405180910390206003015490506122a982604051602001611f9c9190612fb0565b604051602001611fc09190613396565b606081516000036122d857505060408051602081019091526000815290565b60006040518060600160405280604081526020016133f360409139905060006003845160026123079190612e16565b6123119190612e29565b61231c9060046133db565b9050600061232b826020612e16565b67ffffffffffffffff811115612343576123436126a0565b6040519080825280601f01601f19166020018201604052801561236d576020820181803683370190505b509050818152600183018586518101602084015b818310156123db5760039283018051603f601282901c811687015160f890811b8552600c83901c8216880151811b6001860152600683901c8216880151811b60028601529116860151901b93820193909352600401612381565b6003895106600181146123f5576002811461240657612412565b613d3d60f01b600119830152612412565b603d60f81b6000198301525b509398975050505050505050565b6001600160a01b0382166124765760405162461bcd60e51b815260206004820181905260248201527f4552433732313a206d696e7420746f20746865207a65726f206164647265737360448201526064016105cc565b6000818152600260205260409020546001600160a01b0316156124db5760405162461bcd60e51b815260206004820152601c60248201527f4552433732313a20746f6b656e20616c7265616479206d696e7465640000000060448201526064016105cc565b6000818152600260205260409020546001600160a01b0316156125405760405162461bcd60e51b815260206004820152601c60248201527f4552433732313a20746f6b656e20616c7265616479206d696e7465640000000060448201526064016105cc565b6001600160a01b038216600081815260036020908152604080832080546001019055848352600290915280822080546001600160a01b0319168417905551839291907fddf252ad1be2c89b69c2b068fc378daa952ba7f163c4a11628f55a4df523b3ef908290a45050565b6001600160e01b031981168114611a5257600080fd5b6000602082840312156125d357600080fd5b8135611d07816125ab565b60005b838110156125f95781810151838201526020016125e1565b50506000910152565b6000815180845261261a8160208601602086016125de565b601f01601f19169290920160200192915050565b602081526000611d076020830184612602565b60006020828403121561265357600080fd5b5035919050565b80356001600160a01b038116811461267157600080fd5b919050565b6000806040838503121561268957600080fd5b6126928361265a565b946020939093013593505050565b634e487b7160e01b600052604160045260246000fd5b600067ffffffffffffffff808411156126d1576126d16126a0565b604051601f8501601f19908116603f011681019082821181831017156126f9576126f96126a0565b8160405280935085815286868601111561271257600080fd5b858560208301376000602087830101525050509392505050565b600082601f83011261273d57600080fd5b611d07838335602085016126b6565b60008082840360a081121561276057600080fd5b833567ffffffffffffffff8082111561277857600080fd5b6127848783880161272c565b94506080601f198401121561279857600080fd5b604051925060808301915082821081831117156127b7576127b76126a0565b50806040525060208401358152604084013560208201526060840135604082015260808401356060820152809150509250929050565b60008060006060848603121561280257600080fd5b61280b8461265a565b92506128196020850161265a565b9150604084013590509250925092565b6000806040838503121561283c57600080fd5b823567ffffffffffffffff81111561285357600080fd5b61285f8582860161272c565b92505061286e6020840161265a565b90509250929050565b6000806000806080858703121561288d57600080fd5b843567ffffffffffffffff808211156128a557600080fd5b6128b18883890161272c565b955060208701359150808211156128c757600080fd5b6128d38883890161272c565b945060408701359150808211156128e957600080fd5b6128f58883890161272c565b9350606087013591508082111561290b57600080fd5b506129188782880161272c565b91505092959194509250565b60006020828403121561293657600080fd5b611d078261265a565b6000806040838503121561295257600080fd5b61295b8361265a565b91506020830135801515811461297057600080fd5b809150509250929050565b60006020828403121561298d57600080fd5b813567ffffffffffffffff8111156129a457600080fd5b611b1a8482850161272c565b60a0815260006129c360a0830188612602565b82810360208401526129d58188612602565b6001600160a01b038716604085015260608401869052838103608085015290506129ff8185612602565b98975050505050505050565b60008060008060808587031215612a2157600080fd5b612a2a8561265a565b9350612a386020860161265a565b925060408501359150606085013567ffffffffffffffff811115612a5b57600080fd5b8501601f81018713612a6c57600080fd5b612918878235602084016126b6565b600080600080600060a08688031215612a9357600080fd5b853567ffffffffffffffff80821115612aab57600080fd5b612ab789838a0161272c565b96506020880135915080821115612acd57600080fd5b612ad989838a0161272c565b9550612ae76040890161265a565b9450606088013593506080880135915080821115612b0457600080fd5b50612b118882890161272c565b9150509295509295909350565b6000610120808352612b328184018d612602565b6001600160a01b038c16602085015283810360408501529050612b55818b612602565b905088606084015287608084015282810360a0840152612b758188612602565b905085151560c084015284151560e0840152828103610100840152612b9a8185612602565b9c9b505050505050505050505050565b60008060408385031215612bbd57600080fd5b612bc68361265a565b915061286e6020840161265a565b600181811c90821680612be857607f821691505b602082108103612c0857634e487b7160e01b600052602260045260246000fd5b50919050565b6020808252602e908201527f4f6e6c79207468652061646d696e20697320616c6c6f77656420746f2063616c60408201526d36103a343290333ab731ba34b7b760911b606082015260800190565b60008151612c6e8185602086016125de565b9290920192915050565b60008251612c8a8184602087016125de565b9190910192915050565b601f82111561066d57600081815260208120601f850160051c81016020861015612cbb5750805b601f850160051c820191505b81811015612cda57828155600101612cc7565b505050505050565b815167ffffffffffffffff811115612cfc57612cfc6126a0565b612d1081612d0a8454612bd4565b84612c94565b602080601f831160018114612d455760008415612d2d5750858301515b600019600386901b1c1916600185901b178555612cda565b600085815260208120601f198616915b82811015612d7457888601518255948401946001909101908401612d55565b5085821015612d925787850151600019600388901b60f8161c191681555b5050505050600190811b01905550565b634e487b7160e01b600052601160045260246000fd5b600060018201612dca57612dca612da2565b5060010190565b60208082526025908201527f4552433732313a207472616e736665722066726f6d20696e636f72726563742060408201526437bbb732b960d91b606082015260800190565b8082018082111561049957610499612da2565b600082612e4657634e487b7160e01b600052601260045260246000fd5b500490565b60208082526032908201527f4552433732313a207472616e7366657220746f206e6f6e20455243373231526560408201527131b2b4bb32b91034b6b83632b6b2b73a32b960711b606082015260800190565b6f3d9139ba3ab232b73a2730b6b2911d1160811b81528251600090612ec98160108501602088016125de565b6c1116101134b6b0b3b2911d101160991b6010918401918201528351612ef681601d8401602088016125de565b61227d60f01b601d9290910191820152601f01949350505050565b7f646174613a6170706c69636174696f6e2f6a736f6e3b6261736536342c000000815260008251612f4981601d8501602087016125de565b91909101601d0192915050565b6001600160a01b0385811682528416602082015260408101839052608060608201819052600090612f8990830184612602565b9695505050505050565b600060208284031215612fa557600080fd5b8151611d07816125ab565b7f3c7376672077696474683d2233353922206865696768743d223539342220766981527f6577426f783d223020302033353920353934222066696c6c3d226e6f6e65222060208201527f786d6c6e733d22687474703a2f2f7777772e77332e6f72672f323030302f737660408201527f67223e3c7265637420783d22322e3939393934222077696474683d223335362260608201527f206865696768743d22353930222066696c6c3d2223463146314631222f3e3c7060808201527f61746820643d224d3120304c3335362032352e3831334c3120383756305a222060a08201527f66696c6c3d2223423238303639222f3e3c7061746820643d224d3335352e352060c08201527f345639324c302e352034483335352e355a222066696c6c3d222342464132393460e08201527f222f3e3c7061746820643d224d3335362e393835203539332e3233324c322e326101008201527f333533203536342e3138344c3335372e373738203530362e3233364c3335362e6101208201527f393835203539332e3233325a222066696c6c3d2223423238303639222f3e3c706101408201527f61746820643d224d322e3031383232203538372e3939364c322e3832303436206101608201527f3530304c3335372e303033203539312e3233334c322e3031383232203538372e6101808201527f3939365a222066696c6c3d2223424641323934222f3e3c6c696e652078313d226101a08201527f34302e39393939222079313d22333939222078323d22333331222079323d22336101c08201527f393922207374726f6b653d22626c61636b2220207374726f6b652d77696474686101e08201527f3d2232222f3e3c7465787420783d223136252220793d22333025222066696c6c6102008201527f3d22626c61636b222020666f6e742d7765696768743d223630302220666f6e746102208201527f2d73697a653d22333222203e496d70657269616c20436f6c6c6567653c2f74656102408201527f78743e3c7465787420783d223430252220793d22373325222066696c6c3d22626102608201527f6c61636b2220666f6e742d73697a653d22323222203e416c756d6e693c2f7465610280820152623c3a1f60e91b6102a08201527f3c7465787420783d223530252220793d2236342e35252220646f6d696e616e746102a38201527f2d626173656c696e653d226d6964646c65222066696c6c3d226e616d617374656102c38201527f2220746578742d616e63686f723d226d6964646c652220666f6e742d73697a656102e3820152651e91191a911f60d11b6103038201526000611d0761337d610309840185612c5c565b6c1e17ba32bc3a1f1e17b9bb339f60991b8152600d0190565b7f646174613a696d6167652f7376672b786d6c3b6261736536342c0000000000008152600082516133ce81601a8501602087016125de565b91909101601a0192915050565b808202811582820484141761049957610499612da256fe4142434445464748494a4b4c4d4e4f505152535455565758595a6162636465666768696a6b6c6d6e6f707172737475767778797a303132333435363738392b2fa2646970667358221220ca28b36a3a489571a793a83381597d4f206659e2038903c1ead9bb63b04c7eba64736f6c63430008120033",
  "linkReferences": {},
  "deployedLinkReferences": {}
}