{
  "_format": "hh-sol-artifact-1",
  "contractName": "Certify",
  "sourceName": "contracts/Certify.sol",
  "abi": [
    {
      "inputs": [],
      "stateMutability": "nonpayable",
      "type": "constructor"
    },
    {
      "anonymous": false,
      "inputs": [
        {
          "indexed": true,
          "internalType": "address",
          "name": "owner",
          "type": "address"
        },
        {
          "indexed": true,
          "internalType": "address",
          "name": "approved",
          "type": "address"
        },
        {
          "indexed": true,
          "internalType": "uint256",
          "name": "tokenId",
          "type": "uint256"
        }
      ],
      "name": "Approval",
      "type": "event"
    },
    {
      "anonymous": false,
      "inputs": [
        {
          "indexed": true,
          "internalType": "address",
          "name": "owner",
          "type": "address"
        },
        {
          "indexed": true,
          "internalType": "address",
          "name": "operator",
          "type": "address"
        },
        {
          "indexed": false,
          "internalType": "bool",
          "name": "approved",
          "type": "bool"
        }
      ],
      "name": "ApprovalForAll",
      "type": "event"
    },
    {
      "anonymous": false,
      "inputs": [
        {
          "indexed": true,
          "internalType": "address",
          "name": "from",
          "type": "address"
        },
        {
          "indexed": true,
          "internalType": "address",
          "name": "to",
          "type": "address"
        },
        {
          "indexed": true,
          "internalType": "uint256",
          "name": "tokenId",
          "type": "uint256"
        }
      ],
      "name": "Transfer",
      "type": "event"
    },
    {
      "inputs": [
        {
          "internalType": "string",
          "name": "_studentId",
          "type": "string"
        },
        {
          "internalType": "string",
          "name": "_certificateId",
          "type": "string"
        }
      ],
      "name": "addStudentCertificate",
      "outputs": [],
      "stateMutability": "nonpayable",
      "type": "function"
    },
    {
      "inputs": [],
      "name": "admin",
      "outputs": [
        {
          "internalType": "address",
          "name": "",
          "type": "address"
        }
      ],
      "stateMutability": "view",
      "type": "function"
    },
    {
      "inputs": [
        {
          "internalType": "address",
          "name": "to",
          "type": "address"
        },
        {
          "internalType": "uint256",
          "name": "tokenId",
          "type": "uint256"
        }
      ],
      "name": "approve",
      "outputs": [],
      "stateMutability": "nonpayable",
      "type": "function"
    },
    {
      "inputs": [
        {
          "internalType": "address",
          "name": "owner",
          "type": "address"
        }
      ],
      "name": "balanceOf",
      "outputs": [
        {
          "internalType": "uint256",
          "name": "",
          "type": "uint256"
        }
      ],
      "stateMutability": "view",
      "type": "function"
    },
    {
      "inputs": [
        {
          "internalType": "address",
          "name": "newAdmin",
          "type": "address"
        }
      ],
      "name": "changeAdmin",
      "outputs": [],
      "stateMutability": "nonpayable",
      "type": "function"
    },
    {
      "inputs": [
        {
          "internalType": "string",
          "name": "_studentId",
          "type": "string"
        },
        {
          "internalType": "address",
          "name": "_stuWallet",
          "type": "address"
        }
      ],
      "name": "changeStudentWalletAddress",
      "outputs": [],
      "stateMutability": "nonpayable",
      "type": "function"
    },
    {
      "inputs": [],
      "name": "claimNFT",
      "outputs": [],
      "stateMutability": "nonpayable",
      "type": "function"
    },
    {
      "inputs": [
        {
          "internalType": "string",
          "name": "_studentId",
          "type": "string"
        },
        {
          "internalType": "string",
          "name": "_stuName",
          "type": "string"
        },
        {
          "internalType": "address",
          "name": "_stuWallet",
          "type": "address"
        },
        {
          "internalType": "string",
          "name": "",
          "type": "string"
        },
        {
          "internalType": "uint8",
          "name": "_enrolledYear",
          "type": "uint8"
        },
        {
          "internalType": "string",
          "name": "_enrolledProgram",
          "type": "string"
        }
      ],
      "name": "enrollStudent",
      "outputs": [],
      "stateMutability": "nonpayable",
      "type": "function"
    },
    {
      "inputs": [
        {
          "internalType": "uint256",
          "name": "tokenId",
          "type": "uint256"
        }
      ],
      "name": "getApproved",
      "outputs": [
        {
          "internalType": "address",
          "name": "",
          "type": "address"
        }
      ],
      "stateMutability": "view",
      "type": "function"
    },
    {
      "inputs": [
        {
          "internalType": "address",
          "name": "owner",
          "type": "address"
        },
        {
          "internalType": "address",
          "name": "operator",
          "type": "address"
        }
      ],
      "name": "isApprovedForAll",
      "outputs": [
        {
          "internalType": "bool",
          "name": "",
          "type": "bool"
        }
      ],
      "stateMutability": "view",
      "type": "function"
    },
    {
      "inputs": [],
      "name": "name",
      "outputs": [
        {
          "internalType": "string",
          "name": "",
          "type": "string"
        }
      ],
      "stateMutability": "view",
      "type": "function"
    },
    {
      "inputs": [
        {
          "internalType": "uint256",
          "name": "tokenId",
          "type": "uint256"
        }
      ],
      "name": "ownerOf",
      "outputs": [
        {
          "internalType": "address",
          "name": "",
          "type": "address"
        }
      ],
      "stateMutability": "view",
      "type": "function"
    },
    {
      "inputs": [
        {
          "internalType": "address",
          "name": "from",
          "type": "address"
        },
        {
          "internalType": "address",
          "name": "to",
          "type": "address"
        },
        {
          "internalType": "uint256",
          "name": "tokenId",
          "type": "uint256"
        }
      ],
      "name": "safeTransferFrom",
      "outputs": [],
      "stateMutability": "nonpayable",
      "type": "function"
    },
    {
      "inputs": [
        {
          "internalType": "address",
          "name": "from",
          "type": "address"
        },
        {
          "internalType": "address",
          "name": "to",
          "type": "address"
        },
        {
          "internalType": "uint256",
          "name": "tokenId",
          "type": "uint256"
        },
        {
          "internalType": "bytes",
          "name": "data",
          "type": "bytes"
        }
      ],
      "name": "safeTransferFrom",
      "outputs": [],
      "stateMutability": "nonpayable",
      "type": "function"
    },
    {
      "inputs": [
        {
          "internalType": "address",
          "name": "operator",
          "type": "address"
        },
        {
          "internalType": "bool",
          "name": "approved",
          "type": "bool"
        }
      ],
      "name": "setApprovalForAll",
      "outputs": [],
      "stateMutability": "nonpayable",
      "type": "function"
    },
    {
      "inputs": [
        {
          "internalType": "string",
          "name": "",
          "type": "string"
        }
      ],
      "name": "studentAcademics",
      "outputs": [
        {
          "internalType": "uint8",
          "name": "firstYearPercent",
          "type": "uint8"
        },
        {
          "internalType": "uint8",
          "name": "secondYearPercent",
          "type": "uint8"
        },
        {
          "internalType": "uint8",
          "name": "thirdYearPercent",
          "type": "uint8"
        },
        {
          "internalType": "uint8",
          "name": "finalYearPercent",
          "type": "uint8"
        }
      ],
      "stateMutability": "view",
      "type": "function"
    },
    {
      "inputs": [
        {
          "internalType": "string",
          "name": "",
          "type": "string"
        }
      ],
      "name": "studentCertificates",
      "outputs": [
        {
          "internalType": "string",
          "name": "certificateId",
          "type": "string"
        },
        {
          "internalType": "address",
          "name": "ownerAddress",
          "type": "address"
        },
        {
          "internalType": "uint256",
          "name": "tokenId",
          "type": "uint256"
        },
        {
          "internalType": "string",
          "name": "claimedDate",
          "type": "string"
        },
        {
          "internalType": "string",
          "name": "generatedDate",
          "type": "string"
        }
      ],
      "stateMutability": "view",
      "type": "function"
    },
    {
      "inputs": [
        {
          "internalType": "address",
          "name": "",
          "type": "address"
        }
      ],
      "name": "studentWallets",
      "outputs": [
        {
          "internalType": "string",
          "name": "",
          "type": "string"
        }
      ],
      "stateMutability": "view",
      "type": "function"
    },
    {
      "inputs": [
        {
          "internalType": "string",
          "name": "",
          "type": "string"
        }
      ],
      "name": "students",
      "outputs": [
        {
          "internalType": "string",
          "name": "stuId",
          "type": "string"
        },
        {
          "internalType": "address",
          "name": "stuWallet",
          "type": "address"
        },
        {
          "internalType": "string",
          "name": "stuName",
          "type": "string"
        },
        {
          "internalType": "uint8",
          "name": "enrolledYear",
          "type": "uint8"
        },
        {
          "internalType": "uint256",
          "name": "enrolledIndex",
          "type": "uint256"
        },
        {
          "internalType": "string",
          "name": "enrolledProgram",
          "type": "string"
        },
        {
          "internalType": "bool",
          "name": "isGraduated",
          "type": "bool"
        },
        {
          "internalType": "bool",
          "name": "hasClaimedCertificate",
          "type": "bool"
        },
        {
          "components": [
            {
              "internalType": "string",
              "name": "certificateId",
              "type": "string"
            },
            {
              "internalType": "address",
              "name": "ownerAddress",
              "type": "address"
            },
            {
              "internalType": "uint256",
              "name": "tokenId",
              "type": "uint256"
            },
            {
              "internalType": "string",
              "name": "claimedDate",
              "type": "string"
            },
            {
              "internalType": "string",
              "name": "generatedDate",
              "type": "string"
            }
          ],
          "internalType": "struct Certify.Certificate",
          "name": "stuCertificate",
          "type": "tuple"
        }
      ],
      "stateMutability": "view",
      "type": "function"
    },
    {
      "inputs": [
        {
          "internalType": "bytes4",
          "name": "interfaceId",
          "type": "bytes4"
        }
      ],
      "name": "supportsInterface",
      "outputs": [
        {
          "internalType": "bool",
          "name": "",
          "type": "bool"
        }
      ],
      "stateMutability": "view",
      "type": "function"
    },
    {
      "inputs": [],
      "name": "symbol",
      "outputs": [
        {
          "internalType": "string",
          "name": "",
          "type": "string"
        }
      ],
      "stateMutability": "view",
      "type": "function"
    },
    {
      "inputs": [
        {
          "internalType": "uint256",
          "name": "",
          "type": "uint256"
        }
      ],
      "name": "tokenOwners",
      "outputs": [
        {
          "internalType": "address",
          "name": "",
          "type": "address"
        }
      ],
      "stateMutability": "view",
      "type": "function"
    },
    {
      "inputs": [
        {
          "internalType": "uint256",
          "name": "_tokenId",
          "type": "uint256"
        }
      ],
      "name": "tokenURI",
      "outputs": [
        {
          "internalType": "string",
          "name": "",
          "type": "string"
        }
      ],
      "stateMutability": "view",
      "type": "function"
    },
    {
      "inputs": [],
      "name": "totalStudentsEnrolled",
      "outputs": [
        {
          "internalType": "uint256",
          "name": "",
          "type": "uint256"
        }
      ],
      "stateMutability": "view",
      "type": "function"
    },
    {
      "inputs": [
        {
          "internalType": "address",
          "name": "from",
          "type": "address"
        },
        {
          "internalType": "address",
          "name": "to",
          "type": "address"
        },
        {
          "internalType": "uint256",
          "name": "tokenId",
          "type": "uint256"
        }
      ],
      "name": "transferFrom",
      "outputs": [],
      "stateMutability": "nonpayable",
      "type": "function"
    },
    {
      "inputs": [
        {
          "internalType": "string",
          "name": "_studentId",
          "type": "string"
        },
        {
          "components": [
            {
              "internalType": "uint8",
              "name": "firstYearPercent",
              "type": "uint8"
            },
            {
              "internalType": "uint8",
              "name": "secondYearPercent",
              "type": "uint8"
            },
            {
              "internalType": "uint8",
              "name": "thirdYearPercent",
              "type": "uint8"
            },
            {
              "internalType": "uint8",
              "name": "finalYearPercent",
              "type": "uint8"
            }
          ],
          "internalType": "struct Certify.Academics",
          "name": "_studentAcademics",
          "type": "tuple"
        }
      ],
      "name": "updateAcademics",
      "outputs": [],
      "stateMutability": "nonpayable",
      "type": "function"
    },
    {
      "inputs": [],
      "name": "usedDecimalPoints",
      "outputs": [
        {
          "internalType": "uint256",
          "name": "",
          "type": "uint256"
        }
      ],
      "stateMutability": "view",
      "type": "function"
    }
  ],
  "bytecode": "0x6080604052600060065560026007553480156200001b57600080fd5b50604051806040016040528060078152602001664365727469667960c81b8152506040518060400160405280600381526020016221a2a960e91b815250816000908162000069919062000138565b50600162000078828262000138565b5050600880546001600160a01b031916331790555062000204565b634e487b7160e01b600052604160045260246000fd5b600181811c90821680620000be57607f821691505b602082108103620000df57634e487b7160e01b600052602260045260246000fd5b50919050565b601f8211156200013357600081815260208120601f850160051c810160208610156200010e5750805b601f850160051c820191505b818110156200012f578281556001016200011a565b5050505b505050565b81516001600160401b0381111562000154576200015462000093565b6200016c81620001658454620000a9565b84620000e5565b602080601f831160018114620001a457600084156200018b5750858301515b600019600386901b1c1916600185901b1785556200012f565b600085815260208120601f198616915b82811015620001d557888601518255948401946001909101908401620001b4565b5085821015620001f45787850151600019600388901b60f8161c191681555b5050505050600190811b01905550565b61349380620002146000396000f3fe608060405234801561001057600080fd5b50600436106101a95760003560e01c806395d89b41116100f9578063c87b56dd11610097578063e985e9c511610071578063e985e9c51461040c578063f851a4401461041f578063f8a14f4614610432578063fcda73ec1461045b57600080fd5b8063c87b56dd14610379578063cc2078851461038c578063e59eed281461039557600080fd5b8063aaaedf01116100d3578063aaaedf0114610307578063b82e47b61461031a578063b88d4fde1461033e578063c7ef6bfb1461035157600080fd5b806395d89b41146102d9578063a22cb465146102e1578063a32130b7146102f457600080fd5b80633ae5443e11610166578063672756ad11610140578063672756ad1461028a57806370a08231146102925780638b22f9d9146102b35780638f283970146102c657600080fd5b80633ae5443e1461025157806342842e0e146102645780636352211e1461027757600080fd5b806301ffc9a7146101ae57806306fdde03146101d65780630737fcd4146101eb578063081812fc14610200578063095ea7b31461022b57806323b872dd1461023e575b600080fd5b6101c16101bc36600461263b565b610464565b60405190151581526020015b60405180910390f35b6101de6104b6565b6040516101cd91906126af565b6101fe6101f936600461276e565b610548565b005b61021361020e3660046127d2565b6107b0565b6040516001600160a01b0390911681526020016101cd565b6101fe610239366004612807565b6107d7565b6101fe61024c366004612831565b6108ec565b6101fe61025f36600461286d565b610963565b6101fe610272366004612831565b610b23565b6102136102853660046127d2565b610b3e565b6101fe610b9e565b6102a56102a03660046128bb565b610dc4565b6040519081526020016101cd565b6101fe6102c13660046128e7565b610e4a565b6101fe6102d43660046128bb565b610ffe565b6101de6110a0565b6101fe6102ef3660046129a2565b6110af565b6101fe6103023660046129de565b6110be565b6101de6103153660046128bb565b6112fd565b61032d610328366004612aab565b611397565b6040516101cd959493929190612ae0565b6101fe61034c366004612b3b565b611576565b61036461035f366004612aab565b6115b6565b6040516101cd99989796959493929190612bb7565b6101de6103873660046127d2565b61199f565b6102a560075481565b6103df6103a3366004612aab565b8051602081830181018051600c8252928201919093012091525460ff808216916101008104821691620100008204811691630100000090041684565b6040805160ff958616815293851660208501529184169183019190915290911660608201526080016101cd565b6101c161041a366004612c9e565b611a27565b600854610213906001600160a01b031681565b6102136104403660046127d2565b600d602052600090815260409020546001600160a01b031681565b6102a560065481565b60006001600160e01b031982166380ac58cd60e01b148061049557506001600160e01b03198216635b5e139f60e01b145b806104b057506301ffc9a760e01b6001600160e01b03198316145b92915050565b6060600080546104c590612cc8565b80601f01602080910402602001604051908101604052809291908181526020018280546104f190612cc8565b801561053e5780601f106105135761010080835404028352916020019161053e565b820191906000526020600020905b81548152906001019060200180831161052157829003601f168201915b5050505050905090565b6008546001600160a01b0316331461057b5760405162461bcd60e51b815260040161057290612d02565b60405180910390fd5b600a8260405161058b9190612d6c565b90815260405190819003602001902060070180546105a890612cc8565b1590506105f75760405162461bcd60e51b815260206004820152601d60248201527f436572746966696361746520616c72656164792067656e6572617465640000006044820152606401610572565b60006001600160a01b0316600b826040516106129190612d6c565b908152604051908190036020019020600101546001600160a01b0316146106895760405162461bcd60e51b815260206004820152602560248201527f43657274696669636174652068617320616c7265616479206265656e206173736044820152641a59db995960da1b6064820152608401610572565b600061069483611a55565b9050600a836040516106a69190612d6c565b908152604051908190036020018120600101546001600160a01b031690600b906106d1908590612d6c565b908152602001604051809103902060010160006101000a8154816001600160a01b0302191690836001600160a01b0316021790555081600b836040516107179190612d6c565b908152604051908190036020019020906107319082612dd6565b506001600a846040516107449190612d6c565b908152604051908190036020018120600601805492151560ff1990931692909217909155600a90610776908590612d6c565b908152602001604051809103902060040154600b836040516107989190612d6c565b90815260405190819003602001902060020155505050565b60006107bb82611aec565b506000908152600460205260409020546001600160a01b031690565b60006107e282610b3e565b9050806001600160a01b0316836001600160a01b03160361084f5760405162461bcd60e51b815260206004820152602160248201527f4552433732313a20617070726f76616c20746f2063757272656e74206f776e656044820152603960f91b6064820152608401610572565b336001600160a01b038216148061086b575061086b8133611a27565b6108dd5760405162461bcd60e51b815260206004820152603d60248201527f4552433732313a20617070726f76652063616c6c6572206973206e6f7420746f60448201527f6b656e206f776e6572206f7220617070726f76656420666f7220616c6c0000006064820152608401610572565b6108e78383611b4e565b505050565b6108f63382611bbc565b6109585760405162461bcd60e51b815260206004820152602d60248201527f4552433732313a2063616c6c6572206973206e6f7420746f6b656e206f776e6560448201526c1c881bdc88185c1c1c9bdd9959609a1b6064820152608401610572565b6108e7838383611c1b565b6008546001600160a01b0316331461098d5760405162461bcd60e51b815260040161057290612d02565b6001600160a01b038116600090815260096020526040902080546109b090612cc8565b1590506109f65760405162461bcd60e51b815260206004820152601460248201527315d85b1b195d08185b1c9958591e48195e1a5cdd60621b6044820152606401610572565b6000600a83604051610a089190612d6c565b9081526040519081900360200190208054610a2290612cc8565b905011610a715760405162461bcd60e51b815260206004820152601860248201527f53747564656e7420494420646f65736e6f7420657869737400000000000000006044820152606401610572565b6040518060200160405280600081525060096000600a85604051610a959190612d6c565b9081526040805160209281900383019020600101546001600160a01b03168352908201929092520160002090610acb9082612dd6565b5080600a83604051610add9190612d6c565b908152604080516020928190038301902060010180546001600160a01b0319166001600160a01b0394851617905591831660009081526009909152206108e78382612dd6565b6108e783838360405180602001604052806000815250611576565b6000818152600260205260408120546001600160a01b0316806104b05760405162461bcd60e51b8152602060048201526018602482015277115490cdcc8c4e881a5b9d985b1a59081d1bdad95b88125160421b6044820152606401610572565b3360009081526009602052604081208054610bb890612cc8565b905011610c075760405162461bcd60e51b815260206004820152601c60248201527f4f4e6c792073747564656e7420616c6c6f77656420746f206d696e74000000006044820152606401610572565b3360009081526009602052604081208054610c2190612cc8565b80601f0160208091040260200160405190810160405280929190818152602001828054610c4d90612cc8565b8015610c9a5780601f10610c6f57610100808354040283529160200191610c9a565b820191906000526020600020905b815481529060010190602001808311610c7d57829003601f168201915b505050505090506000600a82604051610cb39190612d6c565b90815260405190819003602001902060090154905080610d0d5760405162461bcd60e51b81526020600482015260156024820152744e6f7420656c696769626c6520746f20636c61696d60581b6044820152606401610572565b600a82604051610d1d9190612d6c565b9081526040519081900360200190206006015460ff6101009091041615610d7c5760405162461bcd60e51b815260206004820152601360248201527213919508105b1c9958591e4810db185a5b5959606a1b6044820152606401610572565b610d863382611d7f565b6001600a83604051610d989190612d6c565b90815260405190819003602001902060060180549115156101000261ff00199092169190911790555050565b60006001600160a01b038216610e2e5760405162461bcd60e51b815260206004820152602960248201527f4552433732313a2061646472657373207a65726f206973206e6f7420612076616044820152683634b21037bbb732b960b91b6064820152608401610572565b506001600160a01b031660009081526003602052604090205490565b6008546001600160a01b03163314610e745760405162461bcd60e51b815260040161057290612d02565b6000600a83604051610e869190612d6c565b9081526040519081900360200190208054610ea090612cc8565b905011610ee75760405162461bcd60e51b815260206004820152601560248201527414dd1d59195b9d08191bd95cdb9bdd08195e1a5cdd605a1b6044820152606401610572565b600a82604051610ef79190612d6c565b9081526040519081900360200190206006015460ff6101009091041615610f7e5760405162461bcd60e51b815260206004820152603560248201527f43616e6e6f74206d6f64696679206d61726b73206f6e6365206365727469666960448201527418d85d19481a185cc81899595b8818db185a5b5959605a1b6064820152608401610572565b80600c83604051610f8f9190612d6c565b908152604080516020928190038301902083518154938501519285015160609095015160ff91821661ffff1990951694909417610100938216939093029290921763ffff00001916620100009483169490940263ff000000191693909317630100000091909216021790555050565b6008546001600160a01b031633146110285760405162461bcd60e51b815260040161057290612d02565b6001600160a01b03811661107e5760405162461bcd60e51b815260206004820152601860248201527f50726f7669646520612076616c696420616464647265737300000000000000006044820152606401610572565b600880546001600160a01b0319166001600160a01b0392909216919091179055565b6060600180546104c590612cc8565b6110ba338383611d99565b5050565b6008546001600160a01b031633146110e85760405162461bcd60e51b815260040161057290612d02565b600a866040516110f89190612d6c565b908152604051908190036020019020805461111290612cc8565b1590506111615760405162461bcd60e51b815260206004820152601b60248201527f53747564656e7420494420616c726561647920656e726f6c6c656400000000006044820152606401610572565b6001600160a01b0384166000908152600960205260409020805461118490612cc8565b1590506111ca5760405162461bcd60e51b815260206004820152601460248201527315d85b1b195d08185b1c9958591e48195e1a5cdd60621b6044820152606401610572565b84600a876040516111db9190612d6c565b908152602001604051809103902060020190816111f89190612dd6565b5081600a8760405161120a9190612d6c565b908152602001604051809103902060030160006101000a81548160ff021916908360ff16021790555080600a876040516112449190612d6c565b908152602001604051809103902060050190816112619190612dd6565b5083600a876040516112739190612d6c565b908152604080516020928190038301902060010180546001600160a01b0319166001600160a01b0394851617905591861660009081526009909152206112b98782612dd6565b50600680549060006112ca83612eac565b9190505550600654600a876040516112e29190612d6c565b90815260405190819003602001902060040155505050505050565b6009602052600090815260409020805461131690612cc8565b80601f016020809104026020016040519081016040528092919081815260200182805461134290612cc8565b801561138f5780601f106113645761010080835404028352916020019161138f565b820191906000526020600020905b81548152906001019060200180831161137257829003601f168201915b505050505081565b8051602081830181018051600b825292820191909301209152805481906113bd90612cc8565b80601f01602080910402602001604051908101604052809291908181526020018280546113e990612cc8565b80156114365780601f1061140b57610100808354040283529160200191611436565b820191906000526020600020905b81548152906001019060200180831161141957829003601f168201915b505050506001830154600284015460038501805494956001600160a01b03909316949193509061146590612cc8565b80601f016020809104026020016040519081016040528092919081815260200182805461149190612cc8565b80156114de5780601f106114b3576101008083540402835291602001916114de565b820191906000526020600020905b8154815290600101906020018083116114c157829003601f168201915b5050505050908060040180546114f390612cc8565b80601f016020809104026020016040519081016040528092919081815260200182805461151f90612cc8565b801561156c5780601f106115415761010080835404028352916020019161156c565b820191906000526020600020905b81548152906001019060200180831161154f57829003601f168201915b5050505050905085565b60405162461bcd60e51b81526020600482015260156024820152744e4654206e6f6e207472616e736665727261626c6560581b6044820152606401610572565b8051602081830181018051600a825292820191909301209152805481906115dc90612cc8565b80601f016020809104026020016040519081016040528092919081815260200182805461160890612cc8565b80156116555780601f1061162a57610100808354040283529160200191611655565b820191906000526020600020905b81548152906001019060200180831161163857829003601f168201915b505050600184015460028501805494956001600160a01b0390921694919350915061167f90612cc8565b80601f01602080910402602001604051908101604052809291908181526020018280546116ab90612cc8565b80156116f85780601f106116cd576101008083540402835291602001916116f8565b820191906000526020600020905b8154815290600101906020018083116116db57829003601f168201915b5050505060038301546004840154600585018054949560ff909316949193509061172190612cc8565b80601f016020809104026020016040519081016040528092919081815260200182805461174d90612cc8565b801561179a5780601f1061176f5761010080835404028352916020019161179a565b820191906000526020600020905b81548152906001019060200180831161177d57829003601f168201915b5050505060068301546040805160a08101909152600785018054949560ff8085169661010090950416945092829082906117d390612cc8565b80601f01602080910402602001604051908101604052809291908181526020018280546117ff90612cc8565b801561184c5780601f106118215761010080835404028352916020019161184c565b820191906000526020600020905b81548152906001019060200180831161182f57829003601f168201915b505050918352505060018201546001600160a01b031660208201526002820154604082015260038201805460609092019161188690612cc8565b80601f01602080910402602001604051908101604052809291908181526020018280546118b290612cc8565b80156118ff5780601f106118d4576101008083540402835291602001916118ff565b820191906000526020600020905b8154815290600101906020018083116118e257829003601f168201915b5050505050815260200160048201805461191890612cc8565b80601f016020809104026020016040519081016040528092919081815260200182805461194490612cc8565b80156119915780601f1061196657610100808354040283529160200191611991565b820191906000526020600020905b81548152906001019060200180831161197457829003601f168201915b505050505081525050905089565b6000818152600260205260409020546060906001600160a01b0316611a1e5760405162461bcd60e51b815260206004820152602f60248201527f4552433732314d657461646174613a2055524920717565727920666f72206e6f60448201526e3732bc34b9ba32b73a103a37b5b2b760891b6064820152608401610572565b6104b082611e67565b6001600160a01b03918216600090815260056020908152604080832093909416825291909152205460ff1690565b600080600c83604051611a689190612d6c565b9081526040805191829003602090810183206080840183525460ff80821680865261010083048216938601849052620100008304821694860185905263010000009092041660608501819052939450600493611ac49190612ec5565b611ace9190612ec5565b611ad89190612ec5565b611ae29190612ef4565b60ff169392505050565b6000818152600260205260409020546001600160a01b0316611b4b5760405162461bcd60e51b8152602060048201526018602482015277115490cdcc8c4e881a5b9d985b1a59081d1bdad95b88125160421b6044820152606401610572565b50565b600081815260046020526040902080546001600160a01b0319166001600160a01b0384169081179091558190611b8382610b3e565b6001600160a01b03167f8c5be1e5ebec7d5bd14f71427d1e84f3dd0314c0f7b2291e5b200ac8c7c3b92560405160405180910390a45050565b600080611bc883610b3e565b9050806001600160a01b0316846001600160a01b03161480611bef5750611bef8185611a27565b80611c135750836001600160a01b0316611c08846107b0565b6001600160a01b0316145b949350505050565b826001600160a01b0316611c2e82610b3e565b6001600160a01b031614611c545760405162461bcd60e51b815260040161057290612f16565b6001600160a01b038216611cb65760405162461bcd60e51b8152602060048201526024808201527f4552433732313a207472616e7366657220746f20746865207a65726f206164646044820152637265737360e01b6064820152608401610572565b826001600160a01b0316611cc982610b3e565b6001600160a01b031614611cef5760405162461bcd60e51b815260040161057290612f16565b600081815260046020908152604080832080546001600160a01b03199081169091556001600160a01b0387811680865260038552838620805460001901905590871680865283862080546001019055868652600290945282852080549092168417909155905184937fddf252ad1be2c89b69c2b068fc378daa952ba7f163c4a11628f55a4df523b3ef91a4505050565b6110ba828260405180602001604052806000815250612050565b816001600160a01b0316836001600160a01b031603611dfa5760405162461bcd60e51b815260206004820152601960248201527f4552433732313a20617070726f766520746f2063616c6c6572000000000000006044820152606401610572565b6001600160a01b03838116600081815260056020908152604080832094871680845294825291829020805460ff191686151590811790915591519182527f17307eab39ab6107e8899845ad3d59bd9653f200f220920489ca2b5937696c31910160405180910390a3505050565b6000818152600d60209081526040808320546001600160a01b031683526009909152812080546060929190611e9b90612cc8565b80601f0160208091040260200160405190810160405280929190818152602001828054611ec790612cc8565b8015611f145780601f10611ee957610100808354040283529160200191611f14565b820191906000526020600020905b815481529060010190602001808311611ef757829003601f168201915b505050505090506000600a82604051611f2d9190612d6c565b90815260200160405180910390206002018054611f4990612cc8565b80601f0160208091040260200160405190810160405280929190818152602001828054611f7590612cc8565b8015611fc25780601f10611f9757610100808354040283529160200191611fc2565b820191906000526020600020905b815481529060010190602001808311611fa557829003601f168201915b505050505090506000600a83604051611fdb9190612d6c565b9081526040519081900360200190206003015460ff169050612027818361200188612184565b60405160200161201393929190612fad565b604051602081830303815290604052612333565b604051602001612037919061304d565b6040516020818303038152906040529350505050919050565b61205a838361249a565b6120676000848484612083565b6108e75760405162461bcd60e51b815260040161057290612f5b565b60006001600160a01b0384163b1561217957604051630a85bd0160e11b81526001600160a01b0385169063150b7a02906120c7903390899088908890600401613092565b6020604051808303816000875af1925050508015612102575060408051601f3d908101601f191682019092526120ff918101906130cf565b60015b61215f573d808015612130576040519150601f19603f3d011682016040523d82523d6000602084013e612135565b606091505b5080516000036121575760405162461bcd60e51b815260040161057290612f5b565b805181602001fd5b6001600160e01b031916630a85bd0160e11b149050611c13565b506001949350505050565b6000818152600d60209081526040808320546001600160a01b0316835260099091528120805460609291906121b890612cc8565b80601f01602080910402602001604051908101604052809291908181526020018280546121e490612cc8565b80156122315780601f1061220657610100808354040283529160200191612231565b820191906000526020600020905b81548152906001019060200180831161221457829003601f168201915b505050505090506000600a8260405161224a9190612d6c565b9081526020016040518091039020600201805461226690612cc8565b80601f016020809104026020016040519081016040528092919081815260200182805461229290612cc8565b80156122df5780601f106122b4576101008083540402835291602001916122df565b820191906000526020600020905b8154815290600101906020018083116122c257829003601f168201915b505050505090506000600a836040516122f89190612d6c565b908152604051602091819003820181206003015460ff169250612323916120139185918591016130ec565b604051602001612037919061339a565b6060815160000361235257505060408051602081019091526000815290565b600060405180606001604052806040815260200161341e604091399050600060038451600261238191906133df565b61238b91906133f2565b612396906004613406565b905060006123a58260206133df565b67ffffffffffffffff8111156123bd576123bd6126c2565b6040519080825280601f01601f1916602001820160405280156123e7576020820181803683370190505b509050818152600183018586518101602084015b818310156124555760039283018051603f601282901c811687015160f890811b8552600c83901c8216880151811b6001860152600683901c8216880151811b60028601529116860151901b938201939093526004016123fb565b60038951066001811461246f57600281146124805761248c565b613d3d60f01b60011983015261248c565b603d60f81b6000198301525b509398975050505050505050565b6001600160a01b0382166124f05760405162461bcd60e51b815260206004820181905260248201527f4552433732313a206d696e7420746f20746865207a65726f20616464726573736044820152606401610572565b6000818152600260205260409020546001600160a01b0316156125555760405162461bcd60e51b815260206004820152601c60248201527f4552433732313a20746f6b656e20616c7265616479206d696e746564000000006044820152606401610572565b6000818152600260205260409020546001600160a01b0316156125ba5760405162461bcd60e51b815260206004820152601c60248201527f4552433732313a20746f6b656e20616c7265616479206d696e746564000000006044820152606401610572565b6001600160a01b038216600081815260036020908152604080832080546001019055848352600290915280822080546001600160a01b0319168417905551839291907fddf252ad1be2c89b69c2b068fc378daa952ba7f163c4a11628f55a4df523b3ef908290a45050565b6001600160e01b031981168114611b4b57600080fd5b60006020828403121561264d57600080fd5b813561265881612625565b9392505050565b60005b8381101561267a578181015183820152602001612662565b50506000910152565b6000815180845261269b81602086016020860161265f565b601f01601f19169290920160200192915050565b6020815260006126586020830184612683565b634e487b7160e01b600052604160045260246000fd5b600067ffffffffffffffff808411156126f3576126f36126c2565b604051601f8501601f19908116603f0116810190828211818310171561271b5761271b6126c2565b8160405280935085815286868601111561273457600080fd5b858560208301376000602087830101525050509392505050565b600082601f83011261275f57600080fd5b612658838335602085016126d8565b6000806040838503121561278157600080fd5b823567ffffffffffffffff8082111561279957600080fd5b6127a58683870161274e565b935060208501359150808211156127bb57600080fd5b506127c88582860161274e565b9150509250929050565b6000602082840312156127e457600080fd5b5035919050565b80356001600160a01b038116811461280257600080fd5b919050565b6000806040838503121561281a57600080fd5b612823836127eb565b946020939093013593505050565b60008060006060848603121561284657600080fd5b61284f846127eb565b925061285d602085016127eb565b9150604084013590509250925092565b6000806040838503121561288057600080fd5b823567ffffffffffffffff81111561289757600080fd5b6128a38582860161274e565b9250506128b2602084016127eb565b90509250929050565b6000602082840312156128cd57600080fd5b612658826127eb565b803560ff8116811461280257600080fd5b60008082840360a08112156128fb57600080fd5b833567ffffffffffffffff8082111561291357600080fd5b61291f8783880161274e565b94506080601f198401121561293357600080fd5b60405192506080830191508282108183111715612952576129526126c2565b50604052612962602085016128d6565b8152612970604085016128d6565b6020820152612981606085016128d6565b6040820152612992608085016128d6565b6060820152809150509250929050565b600080604083850312156129b557600080fd5b6129be836127eb565b9150602083013580151581146129d357600080fd5b809150509250929050565b60008060008060008060c087890312156129f757600080fd5b863567ffffffffffffffff80821115612a0f57600080fd5b612a1b8a838b0161274e565b97506020890135915080821115612a3157600080fd5b612a3d8a838b0161274e565b9650612a4b60408a016127eb565b95506060890135915080821115612a6157600080fd5b612a6d8a838b0161274e565b9450612a7b60808a016128d6565b935060a0890135915080821115612a9157600080fd5b50612a9e89828a0161274e565b9150509295509295509295565b600060208284031215612abd57600080fd5b813567ffffffffffffffff811115612ad457600080fd5b611c138482850161274e565b60a081526000612af360a0830188612683565b6001600160a01b0387166020840152604083018690528281036060840152612b1b8186612683565b90508281036080840152612b2f8185612683565b98975050505050505050565b60008060008060808587031215612b5157600080fd5b612b5a856127eb565b9350612b68602086016127eb565b925060408501359150606085013567ffffffffffffffff811115612b8b57600080fd5b8501601f81018713612b9c57600080fd5b612bab878235602084016126d8565b91505092959194509250565b6000610120808352612bcb8184018d612683565b6001600160a01b038c811660208601528482036040860152909150612bf0828c612683565b915060ff8a16606085015288608085015283820360a0850152612c138289612683565b915086151560c085015285151560e0850152838203610100850152845160a08352612c4160a0840182612683565b905081602087015116602084015260408601516040840152606086015191508281036060840152612c728183612683565b91505060808501518282036080840152612c8c8282612683565b9e9d5050505050505050505050505050565b60008060408385031215612cb157600080fd5b612cba836127eb565b91506128b2602084016127eb565b600181811c90821680612cdc57607f821691505b602082108103612cfc57634e487b7160e01b600052602260045260246000fd5b50919050565b6020808252602e908201527f4f6e6c79207468652061646d696e20697320616c6c6f77656420746f2063616c60408201526d36103a343290333ab731ba34b7b760911b606082015260800190565b60008151612d6281856020860161265f565b9290920192915050565b60008251612d7e81846020870161265f565b9190910192915050565b601f8211156108e757600081815260208120601f850160051c81016020861015612daf5750805b601f850160051c820191505b81811015612dce57828155600101612dbb565b505050505050565b815167ffffffffffffffff811115612df057612df06126c2565b612e0481612dfe8454612cc8565b84612d88565b602080601f831160018114612e395760008415612e215750858301515b600019600386901b1c1916600185901b178555612dce565b600085815260208120601f198616915b82811015612e6857888601518255948401946001909101908401612e49565b5085821015612e865787850151600019600388901b60f8161c191681555b5050505050600190811b01905550565b634e487b7160e01b600052601160045260246000fd5b600060018201612ebe57612ebe612e96565b5060010190565b60ff81811683821601908111156104b0576104b0612e96565b634e487b7160e01b600052601260045260246000fd5b600060ff831680612f0757612f07612ede565b8060ff84160491505092915050565b60208082526025908201527f4552433732313a207472616e736665722066726f6d20696e636f72726563742060408201526437bbb732b960d91b606082015260800190565b60208082526032908201527f4552433732313a207472616e7366657220746f206e6f6e20455243373231526560408201527131b2b4bb32b91034b6b83632b6b2b73a32b960711b606082015260800190565b6b3d912130ba31b427b3111d1160a11b815260f884901b6001600160f81b031916600c820152711116101139ba3ab232b73a2730b6b2911d1160711b600d820152825160009061300481601f85016020880161265f565b6c1116101134b6b0b3b2911d101160991b601f91840191820152835161303181602c84016020880161265f565b61227d60f01b602c9290910191820152602e0195945050505050565b7f646174613a6170706c69636174696f6e2f6a736f6e3b6261736536342c00000081526000825161308581601d85016020870161265f565b91909101601d0192915050565b6001600160a01b03858116825284166020820152604081018390526080606082018190526000906130c590830184612683565b9695505050505050565b6000602082840312156130e157600080fd5b815161265881612625565b7f3c7376672077696474683d2233353622206865696768743d223539302220786d81527f6c6e733d22687474703a2f2f7777772e77332e6f72672f323030302f7376672260208201527f20786d6c6e733a786c696e6b3d22687474703a2f2f7777772e77332e6f72672f60408201526b189c9c9c97bc3634b735911f60a11b60608201527f3c696d61676520786c696e6b3a687265663d2268747470733a2f2f697066732e606c8201527f66696c65626173652e696f2f697066732f516d5a503347793948387a77463833608c8201527f426969676b55695239556341317072516770786a667244775056774c4531462260ac8201527f20783d22302220793d2230222077696474683d2233353622206865696768743d60cc82015267111a9c981110179f60c11b60ec8201527f3c7465787420783d223530252220793d2236342e35252220646f6d696e616e7460f48201527f2d626173656c696e653d226d6964646c65222066696c6c3d226e616d617374656101148201527f2220746578742d616e63686f723d226d6964646c652220666f6e742d73697a65610134820152651e91191a911f60d11b610154820152600061335a6132c66132b361015a850187612d50565b661e17ba32bc3a1f60c91b815260070190565b7f3c7465787420783d223633252220793d223830252220646f6d696e616e742d6281527f6173656c696e653d226d6964646c65222066696c6c3d226e616d61737465222060208201527f746578742d616e63686f723d226d6964646c652220666f6e742d73697a653d22604082015275191811103337b73a16bbb2b4b3b43a1e911b1818111f60511b606082015260760190565b613370818560f81b6001600160f81b0319169052565b661e17ba32bc3a1f60c91b6001820152651e17b9bb339f60d11b6008820152600e01949350505050565b7f646174613a696d6167652f7376672b786d6c3b6261736536342c0000000000008152600082516133d281601a85016020870161265f565b91909101601a0192915050565b808201808211156104b0576104b0612e96565b60008261340157613401612ede565b500490565b80820281158282048414176104b0576104b0612e9656fe4142434445464748494a4b4c4d4e4f505152535455565758595a6162636465666768696a6b6c6d6e6f707172737475767778797a303132333435363738392b2fa2646970667358221220bf5ba3d6369b61d3d1f820aff53e7a76440afed82929b1214bc171eb36cc281a64736f6c63430008120033",
  "linkReferences": {},
  "deployedLinkReferences": {}
}